:020000040800F2
:1000000078BE0120BD020008D32B00080F2B00088A
:10001000D12B0008C10C0008C93300080000000003
:10002000000000000000000000000000A32E0008F7
:10003000450D000800000000F52B0008292F0008DE
:10004000D7020008D7020008D7020008D70200082C
:10005000D7020008D7020008D7020008D70200081C
:10006000D7020008D7020008210F0008D7020008B5
:10007000D7020008D7020008C50C0008D702000804
:10008000D7020008D7020008D7020008D7020008EC
:10009000D7020008D7020008D7020008D7020008DC
:1000A000D7020008D7020008D7020008D7020008CC
:1000B000D7020008812F0008B92F0008D7020008D6
:1000C000D7020008D7020008D7020008D7020008AC
:1000D000D702000885330008D7020008D7020008BD
:1000E000D7020008D7020008D7020008D70200088C
:1000F000D7020008D7020008D7020008D70200087C
:10010000D7020008D7020008D7020008D70200086B
:10011000D7020008D7020008D7020008D70200085B
:10012000D7020008D7020008D7020008D70200084B
:10013000D7020008950D0008D7020008D702000872
:10014000D7020008D7020008D7020008D70200082B
:10015000D7020008D7020008D7020008D70200081B
:10016000D7020008D7020008D7020008D70200080B
:10017000D7020008D7020008D702000800000000DC
:10018000D7020008D7020008D7020008D7020008EB
:10019000D7020008D7020008D7020008D7020008DB
:1001A000D7020008D7020008D702000800F002F8C2
:1001B00000F06DF80AA090E8000C82448344AAF194
:1001C0000107DA4501D100F062F8AFF2090EBAE892
:1001D0000F0013F0010F18BFFB1A43F0010318477B
:1001E000ACBF0000CCBF00000A444FF0000C10F878
:1001F000013B13F0070408BF10F8014B1D1108BFA5
:1002000010F8015B641E05D010F8016B641E01F844
:10021000016BF9D113F0080F1EBF10F8014BAD1C94
:100220000C1B09D16D1E58BF01F801CBFAD505E0B2
:1002300014F8016B01F8016B6D1EF9D59142D6D30C
:10024000704700000023002400250026103A28BF34
:1002500078C1FBD8520728BF30C148BF0B60704738
:10026000642900F0BD80752900F0BA80782900F07B
:10027000F380632900F05183732900F05683002036
:1002800070471FB50BF020FE1FBD10B510BD00F06C
:1002900067FB1146FFF7F5FF05F0E0FA00F085FB7C
:1002A00003B4FFF7F2FF03BC03F096F830BF72B659
:1002B000704762B6704780F30888704709488047E6
:1002C00009480047FEE7FEE7FEE7FEE7FEE7FEE738
:1002D000FEE7FEE7FEE7FEE704480549054A064B50
:1002E000704700002D2F0008AD01000878B80120EC
:1002F00078BE012078BA012078BA0120704700004A
:100300000FB4044910B503AA029800F013FB10BC07
:100310005DF814FB200000200FB41CB5074B06AAA3
:100320007B4469460090059800F0D5FA00206946A4
:1003300000F0E4FA1CBC5DF814FB0000D9050000D5
:1003400070B5044685690068C10601D5302600E015
:100350002026C00707D070BDD4E901213046904760
:10036000206A401C20626D1EF6D570BD70B5044633
:1003700085690078C00707D170BDD4E9012120202C
:100380009047206A401C20626D1EF6D570BD70B586
:100390000C460546012A05D02878800600D5EA6972
:1003A000002302E0012305E05B1C934202D2E05CE3
:1003B0000028F9D1A869E618C01AA861286A18446B
:1003C00028622846FFF7BCFF04E0D5E9012114F8B4
:1003D000010B9047B442F8D32846FFF7C7FF70BD22
:1003E0002DE9F0410646002410687529314616A50E
:1003F00010D0AFF30080002802DA404213A507E0D6
:1004000031688A0701D512A502E0490704D511A574
:10041000012401E0AFF3008000210A2206F1240745
:1004200009E0B0FBF2FCB0FBF2F302FB1C00303041
:1004300078541846491C0028F3D123462A463046F2
:10044000BDE8F04100F0E8B9000000002D00000018
:100450002B0000002000000070B504460D46214628
:100460001068AFF300802188090502D50F4A7A444D
:1004700002E00E4A7A440E32002104F1240305E022
:1004800000F00F060009965D5E54491C0028F7D164
:1004900020780023000704D5702D02D009B1022373
:1004A00011322046BDE8704000F0B6B922BB000012
:1004B0002DE9F05F894604464FF0000ADFF874B179
:1004C000FB44C0F820A02046E1688847002874D08B
:1004D000252806D0D4E901219047206A401C2062DB
:1004E000F1E700265F462046E16888472028054658
:1004F00007DB312D05D2781910F8200C08B106431E
:10050000F1E7B00701D526F00406C4F81CA00027C7
:10051000C4F818A02A2D09D0284602F056FF38B397
:1005200004EB8708303DC8F8185019E059F8041B4F
:10053000204604EB87029161E1688847012F054658
:1005400018D1E069002820DA26F020061DE0D8F84E
:10055000180000EB800005EB40003038C8F81800A8
:100560002046E1688847054602F02FFF0028EED1BB
:10057000012F0AD02E2D08D12046E16888477F1C24
:100580000546022F46F02006C4DBA069002803DAE6
:10059000404246F00106A061F00701D026F01006A7
:1005A0006C2D0BD0682D09D04C2D39D06A2D35D04B
:1005B000742D35D07A2D33D016E038E0E1682F461F
:1005C00020468847B842054609D16C2F26D04FF403
:1005D0008060E168064320468847054604E06C2FAA
:1005E0001AD04FF4807006430DB3A5F141001928CD
:1005F00002D8203546F400664A4629462046266041
:100600004E46FFF72DFE80B101280BD0F61D26F0D7
:10061000070000F1080956E74020E4E78020D8E70A
:100620000020D6E706F104094DE7284652E7206A84
:10063000BDE8F09FF8BA000040EA010310B59B073F
:100640000FD1042A0DD310C808C9121F9C42F8D03C
:1006500020BA19BA884201D9012010BD4FF0FF30ED
:1006600010BD1AB1D30703D0521C07E0002010BD03
:1006700010F8013B11F8014B1B1B07D110F8013B8F
:1006800011F8014B1B1B01D1921EF1D1184610BD70
:10069000032A40F2308010F0030C00F0158011F8AE
:1006A000013BBCF1020F624498BF11F801CB00F886
:1006B000013B38BF11F8013BA2F1040298BF00F8DA
:1006C00001CB38BF00F8013B11F0030300F0258097
:1006D000083AC0F0088051F8043B083A51F804CBBE
:1006E000A0E80810F5E7121D5CBF51F8043B40F884
:1006F000043BAFF30080D20724BF11F8013B11F88F
:1007000001CB48BF11F8012B24BF00F8013B00F8D2
:1007100001CB48BF00F8012B704710B5203AC0F05C
:100720000B80B1E81850203AA0E81850B1E81850F2
:10073000A0E81850BFF4F5AF5FEA027C24BFB1E82F
:100740001850A0E8185044BF18C918C0BDE81040A0
:100750005FEA827C24BF51F8043B40F8043B08BFA9
:100760007047D20728BF31F8023B48BF11F8012B70
:1007700028BF20F8023B48BF00F8012B70474FF01C
:1007800000020429C0F0128010F0030C00F01B805E
:10079000CCF1040CBCF1020F18BF00F8012BA8BF6C
:1007A00020F8022BA1EB0C0100F00DB85FEAC17C30
:1007B00024BF00F8012B00F8012B48BF00F8012BE3
:1007C00070474FF0000200B5134694469646203914
:1007D00022BFA0E80C50A0E80C50B1F12001BFF4FA
:1007E000F7AF090728BFA0E80C5048BF0CC05DF860
:1007F00004EB890028BF40F8042B08BF704748BFAE
:1008000020F8022B11F0804F18BF00F8012B704721
:1008100070477047704770472DE9F0470D4699467D
:100820009246044600F124080168880604D5E06970
:1008300021F01001216000E00120A84201DD471BEA
:1008400000E00027A1697A1902EB0900081AA061EB
:100850002078C00602D42046FFF772FD002608E08B
:10086000D4E901211AF806009047206A401C761C42
:1008700020624E45F4DB2078C0060AD52046FFF7FB
:100880005FFD06E0D4E9012130209047206A401C3A
:100890002062381EA7F10107F4DC07E0D4E901214A
:1008A00018F805009047206A401C2062281EA5F118
:1008B0000105F3DC2046FFF759FD2078000602D53C
:1008C0000220BDE8F0870120FBE7000001694A1C17
:1008D00002610878704700B58FB0CDE90131002181
:1008E000059105497944CDE9031011466846FFF7A3
:1008F000DFFD0FB000BD0000E5FFFFFF0A6802F852
:10090000010B0A60704710B5436913B1AFF3008063
:1009100001E0FFF73CFD012010BD127800F1240139
:100920000A7000224A700122EDE711684FF0FF3291
:10093000E9E70000074B70B50D467B44FFF7CBFF9E
:100940000446284600F008F810B14FF0FF3070BDA3
:10095000204670BD93380000007B00F08000704797
:10096000754600F02BF8AE4605006946534620F068
:100970000700854618B020B5FFF7AEFCBDE8204063
:100980004FF000064FF000074FF000084FF0000B4B
:1009900021F00701AC46ACE8C009ACE8C009ACE8FE
:1009A000C009ACE8C0098D46704710B50446AFF3E6
:1009B00000802046BDE81040FFF772BC0048704739
:1009C00018B80120094A40B1012809D002280AD0EC
:1009D000032801D1C2F898127047C2F88C127047F0
:1009E000C2F890127047C2F89412704700804042DB
:1009F00010B50A2002F00AFD9521012000F045F90A
:100A000000F010F91A493E28087001D0012010BDED
:100A1000082000F02FF80021052000F036F9002111
:100A2000062000F032F90021072000F02EF9002105
:100A3000082000F02AF90021092000F026F9002101
:100A40000A2000F022F900210B2000F01EF90021FD
:100A50000C2000F01AF91021152000F016F91220D0
:100A600000F008F8012002F0D1FC002010BD0000C9
:100A70003C00002070B50546002400212046FFF709
:100A8000A1FF284602F094F901212046FFF79AFFC2
:100A9000641CE4B2042CF0D370BD0000124810B501
:100AA000016886B041F0040101600068012400F093
:100AB00004000590102000900C48CDE9010469461F
:100AC0000B4800F03BFE012200210A2000F072FFDB
:100AD0000A2000F064FF0748C0F89C420A2002F098
:100AE00095FC06B010BD0000303802400000211017
:100AF0000000024000004142F0B5434887B00026A4
:100B0000016841F001010160016801F001010591F6
:100B1000016841F002010160016801F002010591E4
:100B2000016841F004010160016801F004010591D0
:100B3000016841F0080101600068012400F008002C
:100B4000059041F2FA70CDE90004032569462F486B
:100B5000CDE9024500F0F2FDE003CDE9000469466D
:100B60002B48CDE9024500F0E9FDC020CDE90004A5
:100B70000220CDE902406946264800F0DFFD02F080
:100B8000EFF8322002F042FC102002F021F9224856
:100B9000C0F89C62214DC5F88C42C5F89042C5F85A
:100BA0009442C5F89842C5F89C421D4FC7F8BC4214
:100BB000C5F8A842C5F88442C0F89842C5F8A442D6
:100BC000C5F8A042C5F8B042052005F5217507F526
:100BD0002F7702F01BFCEE62AE613E606E62052074
:100BE00002F014FCAC61EC623C606C62052002F027
:100BF0000DFC00F035F8E021032000F046F8142049
:100C000002F004FC07B0F0BD30380240000402409E
:100C100000000240000802400000414200804042C3
:100C20000000404270B50C4E0020C6F88C02202017
:100C300002F0BEF8122002F0BBF8084D002400209C
:100C400002F0B6F82855641CE4B2032CF7D3012057
:100C5000C6F88C02287870BD008040424104002014
:100C600010B5002400212046FFF7ACFE112002F051
:100C70009FF801212046FFF7A5FE022002F0D4FBD9
:100C8000641CE4B2042CEDD310BD70B50E460024F4
:100C900040F0400500212046FFF794FE284602F070
:100CA00087F8002002F084F8304602F081F8012134
:100CB0002046FFF787FE641CE4B2042CEAD370BD23
:100CC000FEE7000070B51B481C4D1C4A00681A4B1B
:100CD0001A4C603DB83A984202D91749543903E09A
:100CE000A04203D914495839096804E0A84201D93F
:100CF000516800E0116811F0006F1AD04FF00061E8
:100D0000984202D90C484C3803E0A04203D90A4863
:100D10005038016004E0A84201D9D16000E0916040
:100D2000074800688047BDE870400248583801F025
:100D300081BA70BD0405002058640240B8600240CA
:100D40005C000020704738B50446006800F580500C
:100D5000816941F480118161206800F580508069CB
:100D60000090012000F09DF92068009900F5805066
:100D7000816138BD02680021002A08DB0268120484
:100D800005D40268D20502D50068C0F30D410846BB
:100D90007047000010B5094C01E004F02DFDA06A79
:100DA000FFF7E8FF0028F8D120684FF4803100F504
:100DB000805041614021416110BD0000A00300202E
:100DC0002DE9F041044621B14FF40060E060C0001D
:100DD000A060E0690026002861D0354620684027E1
:100DE00002683A490A40D4E902131943294341F4FD
:100DF00000711143016020680568012000F051F97D
:100E0000206805602068476020684568012000F080
:100E100048F920684560206886602068C6602068C0
:100E200081694FF64172114041F080018161206873
:100E30008569012000F035F9206885612068C66168
:100E40002068C569012000F02CF92068C561206880
:100E500000F5805081691E4A11401E4A0A43826192
:100E6000206800F580508569012000F01AF920689B
:100E700000F5805085612068174900F580500160B9
:100E8000206800F580500568012000F00AF920680C
:100E900000F580500560A069012803D009E04FF4F7
:100EA00080659BE7206800F58050C1690B4A1143BB
:100EB000C16160690A4A818811640178D0F8010033
:100EC00041EA00205064BDE8F08100000F8120FF5E
:100ED000233FDEF8040020028020C1024000010010
:100EE0000080024010B54FF4A071002005F0F0F82A
:100EF0000A4CA0212060002005F0EAF8606043F66B
:100F00008831002005F0E4F8A06041F6C4510020CB
:100F100005F0DEF8E060002010BD00002C0000208D
:100F200010B501F069FE02491020086010BD0000F4
:100F3000143C014030B5D1E901231A43D1E903340F
:100F400023431A434B690D681A438B691A43D1E94D
:100F50000734012D496A05686FF30E0505D01A4361
:100F600022430A432A43026008E0234329430B43F8
:100F7000416803606FF30E010A434260002030BDF8
:100F8000426942EA4101416100207047F8B51446C8
:100F90000546D1E9000210438A686FF01F03C96853
:100FA00003EB421242EA412108430090286100F01D
:100FB000B9FC064609E0601C07D024B100F0B2FC81
:100FC000801BA04201D90320F8BDA8698006F2D495
:100FD0000020F8BDF0B56FF00F05D1E9003405EB46
:100FE00004145B1E2E0123438C682F0306EB04249C
:100FF0004FEA054C23430D8A8E8ACC68097E4FF058
:101000007F4E07EB05450CEB06560EEB0161012AFE
:101010000CD082683F1107EB043423432B43334346
:1010200002F070420B43134383600FE0C2682B430E
:101030000B4302F070428168134301F070422103B8
:10104000A1F5805131431143C36081600020F0BDA0
:101050002DE9F04104460068016821F001010160BA
:1010600000F060FC054600264FF47A770FE000F0B0
:1010700059FC401BB8420AD954F84C0F40F02000EC
:1010800044F81809032026706070BDE8F0812068DC
:101090000068C007EBD104F8346F012060700020B5
:1010A000F3E731B500F03EFC044600F03BFC00994C
:1010B000001B8842F9D338BD2DE9F04390F8455024
:1010C0000024012D0DD04FF0010980F84590022534
:1010D00080F8445044F2F45C4FF000485F1E816297
:1010E00016E00220BDE8F08301EB4415C5F800804E
:1010F000C4EBC41606EB460602EB8606C5E901C63C
:10110000BC4203D205F12006EE6000E0E960641CF9
:101110009C42E9D3026802F58052D16080F8449085
:10112000002180F845100846DCE72DE9F04390F8EF
:1011300045400025012C0BD04FF0010C80F845C034
:10114000022480F844404FF480195F1EC1621BE006
:101150000220BDE8F08301EB4514C4F80090C5EB14
:10116000C51606EB460602EB8606A660C6691EB9E2
:10117000266846F440062660BD4203D204F12006EC
:10118000E66000E0E1606D1C9D42E4D3026802F578
:101190008052116180F844C0002180F84510084653
:1011A000D7E710B590F84510012913D0012380F836
:1011B0004530022180F84410816A0A680024002A20
:1011C00027DB0A68D20518D5826B521C8263012A7C
:1011D00002D002E0022010BD016341630A68C2F33D
:1011E0000D42121FC263026B92680264C96840F824
:1011F000281F03774477002010BD0A68920503D5A5
:101200008363C0E90C1402E0826B521C8263C968DC
:10121000816200F8443F4470012010BD2DE9FC417B
:101220004FF0000604000096B046019603D094F8F3
:10123000440018B107E00120BDE8FC8184F8456056
:10124000204600F0C5F85848016841F4804101602B
:10125000006800F4804001905448016821F40001C6
:1012600001600168226A11430160206800F5805026
:10127000016841F001010160226802F580500168B7
:10128000C907FCD1106920F01C0500F00DFD48498C
:10129000484A0144914202D245F0080516E0464909
:1012A000464A0144914202D245F00C050EE0444901
:1012B000444A0144914209D343490844434988427E
:1012C00002D245F0040501E045F0100520680561F3
:1012D0006068012780B300F025FB42F21075019091
:1012E0006A460121204600F0E5F800F01BFB019959
:1012F000401AA84217D800984007F1D54FF4805201
:101300000021204600F0DFF980BB00F00BFB0190CC
:101310006A460121204600F0CDF800F003FB019958
:10132000401AA84209D901212046FFF749FD04F8D7
:10133000447F032066707FE719E000988006E7D5B8
:101340006A461F21204600F0B5F878B90098C1061A
:1013500003D54FF40061E16000E0E660400701D58D
:10136000A66019E04FF48040A06015E00AE0E06854
:10137000A168C00840EA510082B20021204600F076
:10138000A2F930B101212046FFF71AFD84F844701C
:1013900051E7FF20FFF785FE41462046FFF710FD8D
:1013A00084F84470002047E7443802400438014084
:1013B00000D3CEFEC0E1E40040F1E9FD40787D01BC
:1013C00000796CFC005A6202001F0AFA80F0FA02EF
:1013D000334800B5026887B0002142F00072026015
:1013E000026802F000720592026842F080620260B8
:1013F000026802F080620592026842F000620260B8
:10140000026802F000620592026842F00102026086
:10141000026802F001020592026842F002020260D4
:10142000026802F002020592026842F004020260C1
:10143000026802F004020592026842F04002026073
:10144000006800F040000590862000900220CDE961
:101450000101032003900B2004906946114800F01D
:101460006DF94FF40060009069460F4800F066F98E
:101470003220009069460D4800F060F94FF4C040FA
:10148000009069460A4800F059F9002201213D20E8
:1014900000F090FA3D2000F082FA07B000BD000095
:1014A00030380240000002400004024000080240C0
:1014B000001802402DE9F84300260446009690F8F3
:1014C0004400914682281DD0822084F84400206880
:1014D00002694FF6FF7502F01C03228A05EAC22258
:1014E0001A434FF4F86303EA8111114321F002011A
:1014F00041F00105056100F015FA01274FF480382D
:1015000000900FE00220BDE8F88300F00BFA00998C
:10151000401A404504D304F8447F03206670F2E784
:1015200020680569E807F0D12068406981B2C9F8F0
:10153000001084F844700020E5E7F8B5044690F800
:101540004500012839D0012584F84550022084F84F
:10155000440020680026016841F00801016020680D
:10156000006800902846FFF79CFD216800980860FD
:101570002068016841F00401016020680068009063
:101580000120FFF78EFD2168009808602046FFF7D4
:10159000DAFB206800F58050816941F400518161D7
:1015A000206800F58050816941F00201816184F872
:1015B000445084F845600020F8BD0220F8BDF0B525
:1015C00090F845300022012B11D0012780F845709A
:1015D000022380F84430002559B1C46A2368002BE7
:1015E0000ADA122100F8441F45700120F0BD0220E4
:1015F000F0BD00F8447FF7E740F2F456B1420BD952
:10160000B1FBF6FCB1FBF6F306FB1C1CBCF1000FB2
:1016100000D05B1C012B43D1226842F04052226073
:10162000C26AC1F30C015160C16A0A6842F000420B
:101630000A60C16AC968C16234E0D4F800C02CF005
:10164000405CC4F800C032B9C46AD4F800C04CF0A1
:10165000805CC4F800C0C46A66605C1EA24214D1FB
:10166000C46AD4F800C04CF0005CC4F800C0C3F1F8
:101670000104C4EBC41404EB4404D0F82CC001EB07
:101680008404C4F30C04CCF80440C46AD4F800C049
:101690004CF0004CC4F800C0C46A521CE468C46238
:1016A0009A42CAD3016801F580514A69520705D5AB
:1016B00004224A61016801F580514D6000F8447FC1
:1016C00045700020F0BD2DE9F041044690F844003B
:1016D00042281ED0422084F84400206803694FF657
:1016E000FF7603F01C05238A06EAC3232B434FF43D
:1016F000F86505EA8111194341F0030591B2416192
:101700002068056100F00EF9064601274FF4803885
:101710000FE00220BDE8F08100F004F9801B404595
:1017200005D304F8447F002060700320F2E72068AE
:101730000569E807F0D184F84470EBE72DE9F84F2C
:10174000DFF8A091002209F1040A0AF1040B4FF01E
:101750000F080BF1040E01260B6896403340B3428C
:1017600071D14C68022C01D0122C11D1D40800EB9D
:1017700084073D6A5407E40E08FA04FC25EA0C05C8
:10178000D1F810C00CFA04FC4CEA050CC7F820C0D4
:1017900007685400032591F804C0A5400CF0030C21
:1017A000AF430CFA04FC4CEA070CC0F800C04F68C9
:1017B000012F05D0022F03D0112F01D0122F11D1EC
:1017C0008768D1F80CC0AF430CFA04FC4CEA070C54
:1017D000C0F808C04768B7430E79C6F300169640B4
:1017E0003E434660C668AE438D68A5403543C5603C
:1017F0004C68E4006FD53C4C256845F48045256075
:10180000246822F0030504F480440094374C2E1918
:10181000D6F808789407250F08FA05F4A743344C46
:10182000A04201D100242EE0324CA04201D101247B
:1018300029E0314CA04201D1022424E02F4CA042E7
:1018400002D103241FE046E02D4CA04201D1042424
:1018500019E02C4CA04201D1052414E02A4CA042EE
:1018600001D106240FE0294CA04201D107240AE04F
:10187000274CA04201D1082405E0264CA04201D10A
:10188000092400E00A24AC403C43C6F80848D9F8D3
:1018900000404D464E689C43F60300D51C432C6027
:1018A000DAF8004055464E689C43B60300D51C4309
:1018B0002C60DBF800405D464E689C43F60200D584
:1018C0001C432C60DEF8004075464E689C43B6020F
:1018D00000D51C432C60521C102AFFF43CAFBDE81D
:1018E000F88F0000003C01404438024000300140C5
:1018F000000002400004024000080240000C0240C8
:10190000001002400014024000180240001C024077
:1019100000200240002402400AB18161704709049E
:10192000FBE7000001480068704700001400002039
:1019300002480168491C0160704700001400002043
:101940000B4810B5016841F400710160016841F471
:1019500080610160016841F480710160052000F040
:1019600049F80F2000F006F800F015F8002010BD2F
:10197000003C024010B5044600F096F94FF47A712D
:10198000B0FBF1F000F059FE00222146501E00F09D
:1019900011F8002010BD08B50020009008BD00F02F
:1019A0001F02012191404009800000F1E020C0F8B1
:1019B00000117047F0B40E4B1B68C3F30223C3F150
:1019C0000704042C00D904241D1D072D01D2002377
:1019D00000E0DB1E012606FA04F56D1E0D409D4059
:1019E0009E40761E164045EA0601F0BC01F0F2B8B2
:1019F0000CED00E0064A00F0070110684FF6FF0307
:101A0000184040EA01200349084310607047000075
:101A10000CED00E00000FA052DE9F8431D480168CF
:101A200041F0805101600068012700F08050009073
:101A3000380490FAA0F0DFF86080B0FA80F048F83F
:101A40002070FFF76FFF04464FF47A75134E04E0E1
:101A5000FFF768FF001BA84213D87068C003F7D5D2
:101A60004FF4003090FAA0F0B0FA80F048F82070FF
:101A7000FFF758FF044607E0FFF754FF001BA8429A
:101A800002D90320BDE8F88370688003F4D50020F4
:101A9000F8E700004038024000000E4200700040AD
:101AA0002DE9F05FDFF8F8A104460F46DAF80000F0
:101AB000DFF8F08100F00F02C8B27A49814641F2A6
:101AC000883608F10808BA4261D202468AF8002036
:101AD000DAF8000000F00F00B8427DD120788007CE
:101AE00007D5D8F80020A36822F0F0021A43C8F8FE
:101AF00000202078C0072DD0606801281AD0022865
:101B00001BD0032819D009688907002964DAD8F89E
:101B10000010474621F003010143C8F80010FFF709
:101B200001FF0546606801280FD0022818D003285D
:101B30001CD027E009688903E7E709688901E4E721
:101B4000FFF7F0FE401BB04258D83868C0F3810060
:101B50000128F5D188E0FFF7E5FE401BB0424DD8E3
:101B60003868C0F381000228F5D17DE03868FFF7BE
:101B7000D9FE401BB042F9D940E0FFF7D3FE401B2D
:101B8000B0423BD8386810F00C0FF6D16CE02078EA
:101B9000800707D5D8F80020A36822F0F0021A4386
:101BA000C8F800202078C0074CD06068012828D0F1
:101BB000022829D0032827D009688907002949DA93
:101BC000D8F8002022F003020243C8F80020FFF7F3
:101BD000A9FE0546606800E03CE001281DD002280F
:101BE00029D0032838D0B3464646306810F00C0F91
:101BF00028D0FFF797FE411B5945F6D90320BDE8D1
:101C0000F09F09688903D9E709688901D6E7FFF7DA
:101C100089FE411B594502D9F0E7B3464646306874
:101C2000C0F381000128F2D10CE0FFF77BFE411BDD
:101C3000594502D9E2E7B34646463068C0F3810011
:101C40000228F2D18AF80090DAF8000000F00F00C4
:101C5000B84209D00120D2E744462068FFF762FE6F
:101C6000401BB042F9D9C9E72078400707D5D8F81A
:101C70000010E26821F4E0511143C8F80010207808
:101C8000000708D5D8F80010226921F4604141EA24
:101C9000C201C8F800100F20FFF76CFE0020AEE76D
:101CA000003C02400038024010B500F043F80849FB
:101CB0000968F02292FAA2F201F0F001B2FA82F27F
:101CC000D140044A515CC8400349086010BD00007F
:101CD00008380240D2BE00080000002010B5FFF70F
:101CE000E3FF074909684FF4E05292FAA2F201F4C7
:101CF000E051B2FA82F2D140024A515CC84010BDB4
:101D000008380240D2BE000810B5FFF7CDFF0749E2
:101D100009684FF4604292FAA2F201F46041B2FA0B
:101D200082F2D140024A515CC84010BD08380240DE
:101D3000D2BE000830B51948006810F00C011848F0
:101D400012D0184C04290ED008290DD1134A121FA5
:101D50001168136801F03F015D0247F6C07304D5B6
:101D6000B4FBF1F003E0204630BDB0FBF1F01168A8
:101D7000194093FAA3F3B3FA83F3D94048431168A7
:101D80004FF4403292FAA2F201F44031B2FA82F2F8
:101D9000D140491C4900B0FBF1F030BD0838024089
:101DA0000024F40040787D012DE9F84F04460078C6
:101DB000DFF8FCA2BF4DC0074FF0000648D0DAF8AC
:101DC00000105046C1F38101012908D00068C0F31A
:101DD000810002280AD1281D0068400206D5286823
:101DE000800335D56068002873D031E0DFF8C492F5
:101DF00009F1020989F80060FFF794FD074641F2F6
:101E0000883804E0FFF78EFDC11B41457AD8286869
:101E10008003F7D4207989F80000606860B1FFF78B
:101E200081FD074604E0FFF77DFDC11B4145EDD86C
:101E300028688003F7D50BE0FFF774FD074604E040
:101E4000FFF770FDC11B4145E0D828688003F7D437
:101E50002078DFF86492800744D5DAF80010504605
:101E600011F00C0F4FF0F80809D00068C0F38100A2
:101E700002280BD18E48001F0068400206D4286853
:101E8000800714D5E068012823D110E0E068D0B1C4
:101E90000120C9F80000FFF745FD074604E0FFF701
:101EA00041FDC01B6428B1D828688007F7D5286891
:101EB00098FAA8F22169B2FA82F220F0F800914073
:101EC000084328600EE0C9F80060FFF72BFD0746C5
:101ED00005E0EAE0FFF726FDC01B642812D8286859
:101EE0008007F7D42078000725D5DFF8C481734830
:101EF000616908F16C0881B101210160FFF712FDF1
:101F0000074605E07EE0FFF70DFDC01B642879D889
:101F1000D8F800008007F6D50DE00660FFF702FD57
:101F2000074604E0FFF7FEFCC01B64286AD8D8F817
:101F300000008007F6D42078400753D55C4838303D
:101F4000016841F0805101600068DFF8748100F0A1
:101F500080500090D8F8001041F48071C8F800104B
:101F6000FFF7E0FC074604E0FFF7DCFCC01B642839
:101F700048D8D8F80000C005F6D5DFF834B10BF129
:101F8000680B8BF80060FFF7CDFC074641F28838FC
:101F900004E0FFF7C7FCC11B41457ED8DBF8000019
:101FA0008007F6D4207A8BF80000A06868B1FFF7AC
:101FB000B9FC074604E0FFF7B5FCC11B41456CD8EE
:101FC000DBF800008007F6D50CE0FFF7ABFC074616
:101FD00004E0FFF7A7FCC11B41455ED8DBF8000019
:101FE0008007F6D4A069E8B3DAF80010C1F38101E4
:101FF00002295AD0022806D0C9F86060FFF792FC87
:1020000004464DE049E04F46C9F86060FFF78AFC9E
:10201000064604E0FFF786FC801B64283DD828684C
:102020008001F7D4D4E90701084347F6C07191FA5B
:10203000A1F1626AB1FA81F18A40A16A4FF0FF33DF
:1020400003EB51014FF4403393FAA3F3B3FA83F354
:1020500099400A4310434FF0706292FAA2F2B2FA2A
:1020600082F200E01FE0E16A914008431049091F35
:10207000086001203866FFF755FC044604E0FFF7CE
:1020800051FC001B642808D828688001F7D50AE0B5
:10209000FFF748FC001B642802D90320BDE8F88F35
:1020A00028688001F4D40020F8E70120F6E700005A
:1020B000083802400038024000004742800E474284
:1020C0000070004070B50D46040003D094F82C0059
:1020D00010B107E0012070BD002084F82D002046DB
:1020E00000F012F8022084F82C00211D2068FEF771
:1020F00021FFD4E900022946FEF76CFF012084F895
:102100002C00002070BD0000304800B5016887B089
:1021100041F001010160006800F0010005902B48CA
:102120000838016841F004010160016801F0040110
:102130000591016841F008010160016801F00801A2
:102140000591016841F010010160016801F0100182
:102150000591016841F020010160016801F0200152
:102160000591016841F0400101600068694600F096
:10217000400005900D200090022001900120029067
:10218000032003900C2004901148FFF7D7FA4CF27B
:102190000370009069460F48FFF7D0FA4FF683703E
:1021A000009069460C48FFF7C9FA4FF63F000090CF
:1021B00069460A48FFF7C2FA48F2371000906946AC
:1021C0000748FFF7BBFA07B000BD000038380240EF
:1021D00000080240000C02400010024000140240BF
:1021E0000018024010B5044690F82C00022809D0CF
:1021F000022084F82C002068FEF7C2FE012084F83B
:102200002C00002010BD70B5044690F82C000D463F
:1022100002280CD0022084F82C002068FEF7B6FEBD
:102220002868022804D0012084F82C00002070BD0A
:102230000520F9E710B50446006C08B1FEF708FF69
:10224000606C08B1FEF704FF2068416821F00201CC
:1022500041602068416821F001014160012084F85B
:102260005100002010BD70B5040004D094F8510056
:10227000002510B106E0012070BD84F850502046C2
:1022800000F034F8022084F851002068016821F041
:1022900040010160D4E901010843D4E9031211436C
:1022A000084361690843218B01F400710843E16927
:1022B0000843216A0843A16A084321680860A069AD
:1022C000042101EA1040616A0843216848602168DE
:1022D000E06A08612068C16921F40061C161656537
:1022E000012084F85100002070BD000070B51F4827
:1022F00086B0016841F002010160016801F002014D
:102300000591016841F020010160006800F02000A3
:10231000059016481430016841F48011016000688E
:1023200000F48010059011481030016841F480419C
:1023300001600068022400F4804005904FF4607052
:1023400001268DE85100052569460948CDE9034578
:10235000FFF7F4F94FF460408DE8510069460548F5
:10236000CDE90345FFF7EAF906B070BD3038024009
:1023700000140240000402402DE9F843044690F89E
:102380005100DDF82080012801D022287ED169B1DA
:1023900062B15BB194F85000012877D0012784F82E
:1023A000507094F85100012803D005E00120BDE8E9
:1023B000F883322084F8510000266665A263A38763
:1023C000E3872163A386E386A664E664A06A4FF4EC
:1023D0000055A84209D12068016821F4005101602C
:1023E0002068016841F400510160206801684906D5
:1023F00003D4016841F040010160E0684FF482714C
:10240000B0F5006F606807D0002867D088426ED1B1
:10241000E08E012862D06AE020B188420CD1E08EC3
:10242000012809D1206B21680088C860206B801CBE
:102430002063E08E401EE086E08E80B9A06AA8424C
:1024400044D12068016841F4805101603EE0206879
:10245000C068A16B0880A06B801CA0639EE043460F
:1024600000220221204600F0CDFC002874D1206B10
:1024700021680088C860206B801C2063E08E401EAD
:102480000004000CE08609D1A06A00E0C7E0A84281
:1024900004D12068016841F4805101604346002264
:1024A0000121204600F0AEFC00286FD12068C068F2
:1024B000A16B0880A06B801CA063E08F401EE087AA
:1024C000E08E0028CBD1606800286AD14346002204
:1024D0000121204600F096FCF0BBB8E7206B411CC0
:1024E000216321680078C860E08E401EE086E08E9F
:1024F00098B9A06AA84204D12068016841F48051CB
:102500000160434600220121204600F07BFC18BBFD
:102510002068C068A16B087040E043460022022199
:10252000204600F06FFCB8B9206B411C2163216884
:102530000078C860E08E401E0004000CE08607D1E1
:10254000A06AA84204D12068016841F4805101606A
:1025500000224346012100E018E0204600F052FC32
:10256000A0B92068C168A06B421CA2630170E08F13
:10257000401EE087E08E0028CFD1606888B94346CE
:1025800000220121204600F03DFC08B103200EE7A7
:102590002068C168A06B421CA2630170E08F401EDE
:1025A000E087A06AA84210D14346002201212046BC
:1025B00000F028FC18B1606D40F002000FE02068C8
:1025C000C068ADF80000BDF800004346012280213C
:1025D000204600F017FC20B1606D40F020006065DF
:1025E000D4E784F8517020688168A26AC1F30011B1
:1025F000AA4210D179B1616D41F0020161650168B3
:1026000021F4005101602068016841F4005101602B
:1026100084F85060CAE684F850600020C7E60220C3
:10262000C5E64FF0E0210428086903D020F004003B
:102630000861704740F00400FAE710B5401EB0F1A1
:10264000807F01D3012010BD4FF0E02460610F2195
:10265000601700F0BFFA0020A06107202061002071
:1026600010BD7047704710B5040003D094F83900CE
:1026700010B107E0012010BD002084F8380020468A
:1026800000F00CF8022084F83900211D206800F0C9
:10269000ADFC012084F83900002010BD08B50068A9
:1026A0000B49884212D10B48016841F002010160D8
:1026B0000068032200F00200009001211D20FFF7B6
:1026C00079F9BDE808401D20FFF769B908BD000091
:1026D00000040040403802400168CA6842F001022C
:1026E000CA600068016841F0010101600020704784
:1026F000704770B50446006801694FF00005C94392
:10270000890715D4C168C943890711D4E91E01613D
:1027100001202076206880698007204602D0FFF7DC
:10272000E7FF04E000F098F8204600F096F82576E0
:1027300020680169C943490717D4C168C9434907DB
:1027400013D46FF0040101610220207620688069B3
:1027500010F4407F204602D0FFF7CAFF04E000F0EB
:102760007BF8204600F079F8257620680169C94396
:10277000090716D4C168C943090712D46FF00801CC
:102780000161042020762068C0698007204602D0BD
:10279000FFF7AEFF04E000F05FF8204600F05DF8C0
:1027A000257620680169C943C90617D4C168C943A1
:1027B000C90613D46FF0100101610820207620684B
:1027C000C06910F4407F204602D0FFF791FF04E07B
:1027D00000F042F8204600F040F8257620680169B4
:1027E000C943C90708D1C168C943C90704D1891EB3
:1027F0000161204600F032F820680169C9430906EA
:1028000009D4C168C943090605D46FF0800101618C
:102810002046FFF726FF20680169C943490609D40D
:10282000C168C943490605D46FF0400101612046E3
:1028300000F020F820680169C94389060BD4C168FB
:10284000C943890607D46FF0200101612046BDE825
:102850007040FFF707BF70BD70477047034988425B
:1028600003D1034801680A3101607047E803002082
:10287000B40100207047704790F83900704738B5B0
:10288000016804460868CA68C0F3000002F4807258
:1028900038B132B1086848680090E06B40F0010040
:1028A000E06308684A69C0F3400002F0010238B1F1
:1028B00032B1086848680090E06B40F00400E063C3
:1028C00008684A69C0F3800002F0010238B132B1F1
:1028D000086848680090E06B40F00200E063086818
:1028E0004A69C0F3C00002F0010238B132B1086891
:1028F00048680090E06B40F00800E0630868C96831
:10290000C0F3401001F0200118B111B1204600F0D1
:10291000F7FB20680168C068C1F3C01100F08000B7
:1029200019B110B1204600F0F9FC21680868CA68A6
:10293000C0F3801002F04002012568B162B1CA689C
:10294000204622F04002CA6094F8391032290CD097
:1029500080F8395000F0DAF8E06B002804D084F8F1
:1029600039502046FFF787FF38BD222180F8391003
:10297000F0E770B5040004D094F83900002510B1D8
:1029800006E0012070BD84F83850204600F020F8A1
:10299000022084F839002068C16821F40051C16028
:1029A000204600F001FC2068016921F4904101619A
:1029B0002068416921F02A0141612068C16841F421
:1029C0000051C160E563012084F83900002070BD2A
:1029D00010B500681A4986B088422FD1194801689D
:1029E00041F001010160006800F001000590154808
:1029F0001430016841F0100101600068012100F00D
:102A0000100005904FF4007000900220CDE9010104
:102A1000039007200C4C049069462046FEF78EFE7A
:102A20002115009169462046FEF788FE2520FEF715
:102A3000B6FF032211462520FEF7BCFF06B010BDED
:102A400000100140303802400000024090F8393058
:102A5000012B01D0122B2BD131B32AB390F838308F
:102A6000012B25D0012380F8383081628285C28510
:102A70000022C26390F83910122917D0222180F861
:102A800039100168CB6843F48073CB6001684B69EF
:102A900043F001034B6180F838200068C16841F0C1
:102AA0002001C16000207047012070473221E6E715
:102AB0000220704730B50068114988420CD1114A94
:102AC0005088010408D41146440409784FF00003EB
:102AD00006D50A2901D0538030BD40F400400DE0F6
:102AE0000D2909D0C0F30D04074D401C80B22955B3
:102AF0005080C728EFD830BD40F48040508030BDB2
:102B0000001001401C000020640200207047FEE716
:102B100030B52A4889B00024016841F00101016004
:102B20000068274D00F0010007904020029011201E
:102B3000CDE903040320059002A92846FEF7FEFD17
:102B4000FDF7B5FB002240212846FEF7E5FE642094
:102B500000F05CFC012240212846FEF7DDFE6420E7
:102B600000F054FCFDF7A5FB164801788DF8001025
:102B700041788DF8011081788DF80210C1788DF8B8
:102B8000031001798DF8041040798DF805000F4885
:102B90000D49016001218A03C0E90112CA02C26025
:102BA00004826A46C0E90521C905C0E90741FEF76C
:102BB00035FB002800D0012009B030BD303802407C
:102BC0000000024000AF012000800240A00300206E
:102BD000FEE770470907090E002806DA00F00F002B
:102BE00000F1E02080F8141D704700F1E02080F82B
:102BF0000014704770470000F0B589B01F4D0024E5
:102C000001AE4FF4966700212046FDF7DBFE1C2342
:102C100001AA1B491B480097FFF7AEFB04EB4400D9
:102C200005EBC0001822311D801CFDF731FD01218C
:102C30002046FDF7C7FE641CE4B2042CE3D3A020B9
:102C40000F492870C020891E85F863004878FF2846
:102C500001D2401C00E0002048706870074803F073
:102C60004DFA094910F0FF00087004D007480178B8
:102C700041F08001017009B0F0BD00002404002083
:102C80003E000020AC040020B9010020B801002063
:102C900000B5254887B023490022C0E90012012170
:102CA000816008211023C0E90313402343614FF4DE
:102CB000C073C0E906320A0202624A0242628A0214
:102CC00082620220CDE9000106210291CDE90310C4
:102CD0000590069069461448FFF7F4F90023012295
:102CE0001146184600F022F84FF4FA7000F09CFBF1
:102CF000002301220221184600F018F800230822C0
:102D00000321184600F012F84FF40C73012204213D
:102D1000002000F00BF840F2AB210348FFF762FA05
:102D200007B000BD400100A06C0300201FB50024C7
:102D300010B1012802D002E0102400E00824CDE9FF
:102D40000014CDE902234FF4805269460348FFF78F
:102D50005AFA002800D0012004B010BD6C030020F6
:102D600010B5124C1048012120604FF48270606051
:102D70000020A060E060C4E904014902A16138219B
:102D8000C4E907106062A0620720E0622046FFF7F6
:102D90006AFA2068016841F040010160BDE8104016
:102DA000FF2000F005B8000000380040AC0400200F
:102DB00001B582B04FF47A700090012301AA02A9F4
:102DC0000248FFF7D9FA9DF804000EBDAC040020BC
:102DD0000B4A10B511680B6823F040030B601168B3
:102DE0000B684FF6C77423400B6011680B680343F0
:102DF0000B601068016841F04001016010BD0000E7
:102E0000AC0400202DE9F0471D4690460F460446CD
:102E1000FEF788FD06465FEA08004FF000084FF411
:102E2000005A4FF0010926D034E0681C23D025B1A8
:102E3000FEF778FD801BA8421DD92068416821F06B
:102E4000E00141602068016821F040010160A06A52
:102E5000504509D12068016821F4005101602068C3
:102E6000016841F40051016084F8519084F8508069
:102E70000320BDE8F0872068806837EA0000D4D1DD
:102E80000DE0681C06D0002DD7D0FEF74BFD801B4F
:102E9000A842D2D82068806837EA0000F1D000202C
:102EA000E7E7704770B51E4C92B00025266846F0E3
:102EB00080562660246804F080541194194C2668CA
:102EC00046F44046266024680DF1240C04F4404486
:102ED0001194012400940194022406948CE80D00BE
:102EE0006605CDE907616846FEF75EFF00B1FEE7C3
:102EF000FEF792FD00B1FEE70CA90F2081E831003A
:102F00004FF4A0500F904FF48050109005210CA862
:102F1000FEF7C6FD002800D0FEE712B070BD00002D
:102F20004038024000700040FEF702BD10480168C2
:102F300041F4700101600F48016841F00101016036
:102F40000C4A00210832116002680B4B1A400260E3
:102F5000031D0A4A1A60026822F4802202600548B2
:102F60000C30016002495806803908607047000043
:102F700088ED00E000380240FFFFF6FE103000242C
:102F80000148FFF7B6BB0000E8030020094A10B56E
:102F9000074BC2E900310021C2E90210104611615D
:102FA000FFF761FBBDE810400248FFF795BB00004A
:102FB00000040040E803002010B50A4C2068C068F7
:102FC000C043C00709D10848006980472168002034
:102FD000486221686420C862E06021686FF00100E7
:102FE000086110BDB40500209C000020F0B5026807
:102FF000234D244E244FDFF894C0254B4FF0804ED4
:10300000A84209D0704507D0B04205D0B84203D0DD
:10301000604501D0984203D122F070044A682243EF
:10302000A8421BD0704519D0B04217D0B84215D075
:10303000604513D0984211D0164CA0420ED0164CC9
:10304000A0420BD0154CA04208D0154CA04205D090
:10305000144CA04202D0144CA04203D122F440747C
:10306000CA68224302608A68C2620A688262A84211
:1030700001D0984201D10969016301214161F0BD8C
:10308000000001400004004000080040000C004027
:10309000000401400040014000440140004801405C
:1030A00000180040001C004000200040F8B5064613
:1030B00010480D460024016841F0040101600068D9
:1030C000032200F00400009021461E20FEF772FC4F
:1030D0001E20FEF764FC094A07481060C2E901544B
:1030E000C2E903641046FFF7BEFABDE8F8400348A2
:1030F000FFF7F2BA4038024000080040B405002053
:1031000010B590F83910222903D0322901D00220BD
:1031100010BD8168B1F5805F11D001690029016897
:103120001FD0496801F07F03816A4A1C82620B70DC
:10313000C18D491E0904090CC18518D02FE0026910
:10314000816A002A0268526805D0D2B20A80816A78
:10315000491C8162ECE7C2F308020A80816A891C7B
:10316000F7E74A68816A4B1C83620A70E0E70168EE
:10317000CA6822F02002CA6090F83910322910D0B3
:103180000168CA6822F48072CA6001684A6922F044
:1031900001024A61012180F83910FFF78BFC002001
:1031A00010BD1221F7E700002DE9F0410446006848
:1031B0000169E26821F440510A4302612068C16854
:1031C00049F20C6291432369A268E5691A43636975
:1031D0002B431A430A43C2602068416921F44072BC
:1031E000A16911434161E06964263225B0F5004FC1
:1031F000484A494920681DD0884201D0904269D18F
:10320000FEF782FD00EBC00101EB00106168B046E3
:103210008900B0FBF1F1B1FBF8F6FEF775FD00EBAC
:10322000C00101EB001061688900B0FBF1F7FEF707
:103230006BFD68E0884201D0904219D1FEF764FD31
:1032400000EBC00101EB00106168B0464900B0FB23
:10325000F1F1B1FBF8F6FEF757FD00EBC00101EB11
:10326000001061684900B0FBF1F7FEF74DFD18E072
:10327000FEF734FD00EBC00101EB00106168B046C1
:103280004900B0FBF1F1B1FBF8F6FEF727FD00EBCA
:10329000C00101EB001061684900B0FBF1F7FEF7D7
:1032A0001DFD00EBC00101EB001061684900B0FB9F
:1032B000F1F1B1FBF8F06FF01801484307EB800023
:1032C00005EB0011B1FBF8F0216866F31F10886070
:1032D000BDE8F081FEF702FD00EBC00101EB00103C
:1032E0006168B0468900B0FBF1F1B1FBF8F6FEF77A
:1032F000F5FC00EBC00101EB001061688900B0FB38
:10330000F1F7FEF7EBFC00EBC00101EB0010616888
:103310008900CCE7001401400010014090F83910FA
:10332000122903D0322901D0022070478168B1F5FB
:10333000805F016A0BD04A1C026202680978516002
:10334000C18C491E0904090CC1840ED017E00988FC
:103350000268C1F30801516001690029016A02D0C5
:10336000491C0162ECE7891CFBE70168CA6822F08E
:103370008002CA600068C16841F04001C16000205D
:103380007047000070B500240C4D0D48FFF777FA28
:1033900002E0641CAC4204D80948FFF76DFA01282A
:1033A000F7D1002402E0641CAC4206D80122054992
:1033B0000348FFF74BFB0028F5D170BDFFFF01006C
:1033C0002C0300201C000020FEE730380A2801D220
:1033D00001207047002070477047000010B500F0D2
:1033E0005DFDBDE810400022024941F2883003F043
:1033F00081BF0000DD33000810B504460420FFF74C
:1034000010F90148046010BD1800002070B5054691
:1034100000244FF47A7603E0304600F005F8641C8F
:10342000AC42F9D370BD000070B54FF0E02500212B
:103430006C69094AAB6912685043AA699A42FCD088
:1034400002D2A3EB020302E0A4EB020633441944C8
:1034500013468142F1D370BD180000202DE9F84FCA
:1034600090468946050010D0B8F80A002A2866D38D
:10347000D8F804604FF4807A344634F80E0F504583
:103480005DD1207906285AD108E02FA340F2BB2253
:1034900037A13BA0FCF734FFBDE8F88F6079042822
:1034A0004DD1608808284AD1D4F80E000090A16957
:1034B000281D05D0686818B1814201D1012700E0BC
:1034C00000270FB1012300E0022304F1080269463E
:1034D000284600F007FDE088504530D1002F2ED05F
:1034E000022002F071F9E080D4F80E00A061686853
:1034F000C4F80E0095F82200062806D012A340F268
:1035000011322A491EA0FCF7FBFEA068C4F8120085
:10351000A089E082A0683060A089B080D9F800104E
:10352000A160B9F80400A081D9F80010C6F806100F
:10353000B9F804007081AA69414628469047404680
:1035400003F016FBA8E700002E2E5C4C5749505C98
:103550006C7769702D312E342E315C7372635C6E22
:10356000657469665C6574686172702E6300000042
:103570006E6574696620213D204E554C4C0000005C
:10358000417373657274696F6E2022257322206601
:1035900061696C6564206174206C696E65202564C6
:1035A00020696E2025730D0A0000000078C0000815
:1035B0002DE9F34F80460A2085B00024029007468B
:1035C000A346A2460190A14600904C4904EB84001A
:1035D00001EB80060390B57C0A2F18D0002D24D073
:1035E000012D08D0022D06D245A340F22B124EA188
:1035F0005DA0FCF785FEB8F1000F0CD0D8F80000F4
:103600007168884207D160B207B0BDE8F08F002D25
:10361000E6D167B209E0012D15D0022D05D3F07C6B
:10362000504502D361B282460191641CE4B20A2C77
:10363000CBD3069881074FF0FF30E5D40A2F15D081
:1036400017DAFCB23AE02D48039950F8210000281F
:10365000F07C05D04845E8D361B281460091E4E7AB
:103660005845E2D361B283460291DEE70699C90765
:10367000CAD001990A290EDACCB2204804EB8401A1
:1036800050F8210070B11EA340F2711241A136A082
:10369000FCF736FE06E002990A2902DB00990A29A6
:1036A000B2DACCB20A2C06D315A340F283123FA1A2
:1036B0002DA0FCF725FE204600F098F80A2C06D332
:1036C0000FA340F2871239A127A0FCF719FE0B487F
:1036D00004EB840100EB8105A87C30B108A34FF412
:1036E000C47237A120A0FCF70BFEB8F1000F02D086
:1036F000D8F8000068600020E87484E718B701205B
:103700002E2E5C4C5749505C6C7769702D312E34ED
:103710002E315C7372635C6E657469665C65746897
:103720006172702E630000007374617465203D3D0A
:10373000204554484152505F53544154455F5045D1
:103740004E44494E47207C7C207374617465203E52
:103750003D204554484152505F53544154455F53B6
:103760005441424C45000000417373657274696FA7
:103770006E2022257322206661696C656420617465
:10378000206C696E6520256420696E2025730D0A02
:10379000000000006172705F7461626C655B695D5E
:1037A0002E71203D3D204E554C4C000069203C20A0
:1037B0004152505F5441424C455F53495A450000C5
:1037C0006172705F7461626C655B695D2E737461B8
:1037D0007465203D3D204554484152505F5354414B
:1037E00054455F454D5054590000000070B5074DD9
:1037F00000EB8004002655F8240018B103F0B8F956
:1038000045F8246005EB8400867470BD18B701206C
:103810002DE9FC4115460E46040006D145A340F2B1
:1038200075324EA151A0FCF76BFD36B941A340F2B1
:10383000763259A14DA0FCF763FD35B93DA340F2A6
:10384000773258A149A0FCF75BFD0E21304603F00A
:103850003DFA18B16FF00100BDE8FC8121462868EF
:1038600000F0BEFE08B1534B3CE02868C0F30311E2
:103870000E2922D0A168636800EA01020B409A4237
:103880000BD080B2A0F57E41A93906D014F10C0FFF
:103890002FD0E06868B304F10C05474B474A18780D
:1038A00000EB800102EB81018F7C022F24D32F6873
:1038B00049688F4220D102462CE001208DF800009B
:1038C00000208DF801005E208DF8020068786B46BC
:1038D00000F07F008DF80300A8788DF80400E878E8
:1038E0008DF8050004F123023146204600F086FAE7
:1038F000B2E76FF00300AFE7002000EB800102EBBE
:1039000081018F7C022F0AD32F6849688F4206D12C
:10391000C2B21A703146204600F052F89CE7401CB3
:1039200040B20A28E9DB32462946204600F0B6F8C4
:1039300092E700002E2E5C4C5749505C6C77697002
:103940002D312E342E315C7372635C6E6574696642
:103950005C6574686172702E630000006E65746946
:103960006620213D204E554C4C000000417373658C
:103970007274696F6E2022257322206661696C65FE
:1039800064206174206C696E6520256420696E2056
:1039900025730D0A000000007120213D204E554C7A
:1039A0004C00000069706164647220213D204E5516
:1039B0004C4C000008BF0008CC01002018B70120C3
:1039C00070B505460E46134802EB820100EB8104F8
:1039D000A07C022806D210A34FF4537218A124A091
:1039E000FCF78EFCA07C022809D1E07CE42806D3F9
:1039F000211D284600F0F0F908B90320A07404F155
:103A00000C0305F1230231462846BDE8704000F062
:103A1000F5B9000018B701202E2E5C4C5749505CB8
:103A20006C7769702D312E342E315C7372635C6E4D
:103A3000657469665C6574686172702E630000006D
:103A40006172705F7461626C655B6172705F696402
:103A5000785D2E7374617465203E3D204554484165
:103A600052505F53544154455F535441424C4500BA
:103A7000417373657274696F6E202225732220660C
:103A800061696C6564206174206C696E65202564D1
:103A900020696E2025730D0A000000002DE9F74F04
:103AA00082B0884602984FF0FF3B233000900868B0
:103AB00016465F46029900F093FD002829D1D8F8F8
:103AC0000000C0F303110E2923D0B8F1000F20D05D
:103AD00000281ED001214046FFF76AFD04001AD4D9
:103AE000DFF8DCA004EB84090AEB8905A87C002838
:103AF00014D0012814D0022809D232A340F219426E
:103B00003AA144A0FCF7FCFBA87C012808D03EB1F8
:103B10000DE06FF00D0005B0BDE8F08F0120A87436
:103B20004146029800F058F90746002EF3D0A87CD1
:103B300002280AD3424805F10C0331460470009A6A
:103B4000029800F05BF9074638E0D046012835D1ED
:103B50000025344640F23E4760892189884207D1DA
:103B6000206828B117A33A4636A12AA0FCF7C8FB63
:103B7000207B012803D12468002CEDD175B1218967
:103B80000022032002F0C2FB050016D0314602F0ED
:103B900075FE40B1284602F0EBFF0EE03546304698
:103BA00003F0E4F94DB158F82900444608B102F099
:103BB000DFFF44F82950002700E05F463846AAE7B7
:103BC00018B701202E2E5C4C5749505C6C776970F9
:103BD0002D312E342E315C7372635C6E65746966B0
:103BE0005C6574686172702E630000006172705FC2
:103BF0007461626C655B695D2E7374617465203DF0
:103C00003D2050454E44494E47206F722053544149
:103C1000424C4500417373657274696F6E202225B2
:103C20007322206661696C6564206174206C696E22
:103C30006520256420696E2025730D0A00000000B0
:103C4000CC0100206E6F207061636B65742071750C
:103C50006575657320616C6C6F7765642100000089
:103C60002DE9F05FDDF82CB0984691468A460700B2
:103C700006D132A340F2A5423AA13EA0FCF740FB98
:103C800000222A21032002F041FB060053D0708954
:103C90002A2806D229A34FF4966241A135A0FCF749
:103CA0002FFB75680D9805F10E0401F08DFDE08085
:103CB00097F82200062806D020A34FF497624549C2
:103CC0002CA0FCF71DFBD8F80010A160B8F8040088
:103CD000A081DBF80010C4F81210BBF80400E082E9
:103CE000D9F800102960B9F80400A880DAF80010AB
:103CF000C5F80610BAF8040068810A9831460068D1
:103D0000C4F80E000C980068A0614FF48070208009
:103D10000820608006202071042060714FF4C1608B
:103D2000A881BA69384690470446304602F020FF21
:103D30002046BDE8F09F4FF0FF30FAE72E2E5C4C96
:103D40005749505C6C7769702D312E342E315C737D
:103D500072635C6E657469665C6574686172702E0E
:103D6000630000006E6574696620213D204E554C4D
:103D70004C000000417373657274696F6E202225D8
:103D80007322206661696C6564206174206C696EC1
:103D90006520256420696E2025730D0A000000004F
:103DA000636865636B2074686174206669727374FC
:103DB00020706275662063616E20686F6C6420738A
:103DC0007472756374206574686172705F68647280
:103DD0000000000078C000081FB50123064C021D3A
:103DE000CDE90213CDE9002400F123031946A21FF7
:103DF000FFF736FF04B010BD0EBF00082DE9F041FB
:103E0000054690F822004C681E461746884606284C
:103E100006D00CA340F2A312144915A0FCF770FAC7
:103E200030682060B088A0803868C4F80600B88880
:103E300060810820A08141462846AA69BDE8F0417A
:103E4000104700002E2E5C4C5749505C6C7769700F
:103E50002D312E342E315C7372635C6E657469662D
:103E60005C6574686172702E6300000078C00008A1
:103E7000417373657274696F6E2022257322206608
:103E800061696C6564206174206C696E65202564CD
:103E900020696E2025730D0A0000000070B5104DDA
:103EA000002404EB840005EB8000827C92B1C17C8D
:103EB000491CC9B2C174F02906D2012A02D0032AD2
:103EC00006D007E0022905D32046FFF78FFC01E06A
:103ED00002218174641CE4B20A2CE2D370BD00009C
:103EE00018B701202DE9F041044690F822001F4642
:103EF00015460E46062806D01EA340F2C31227A17F
:103F000030A0FCF7FDF986B3306870B3214600F0AD
:103F100067FB50BB3078C0F303100E2826D039461B
:103F20003046FFF745FB00281DDB314A00EB8001DE
:103F300002EB81000223837484602B68C360AB882A
:103F400003820023C37452F821605EB142F821302D
:103F50002B4604F1230231462046FFF74FFF30463F
:103F600002F006FE0020BDE8F081FFE76FF00D00D3
:103F7000F9E700002E2E5C4C5749505C6C77697055
:103F80002D312E342E315C7372635C6E65746966FC
:103F90005C6574686172702E630000006E65746900
:103FA000662D3E6877616464725F6C656E203D3D8E
:103FB000204554484152505F4857414444525F4C59
:103FC000454E0000417373657274696F6E2022253F
:103FD0007322206661696C6564206174206C696E6F
:103FE0006520256420696E2025730D0A00000000FD
:103FF00018B7012070B5044640890D460E2842D9F5
:10400000606801788689CA0714D0012905D0062284
:104010001F49FCF711FB48B10CE0417851B9807899
:104020005E2807D1607B40F0100002E0607B40F02A
:1040300008006073082E03D0B6F5C16F23D116E0D7
:1040400095F8290080061ED56FF00D01204602F07C
:104050003DFE38B10FA340F24F5218A120A0FCF74B
:104060004FF910E02946204600F010FC09E095F8D1
:104070002900800607D5224605F123012846FFF7CF
:10408000EDF9002070BD204602F072FDF9E7000056
:1040900008BF00082E2E5C4C5749505C6C77697045
:1040A0002D312E342E315C7372635C6E65746966DB
:1040B0005C6574686172702E6300000043616E2756
:1040C00074206D6F7665206F766572206865616417
:1040D000657220696E207061636B6574000000007A
:1040E000417373657274696F6E2022257322206696
:1040F00061696C6564206174206C696E652025645B
:1041000020696E2025730D0A0000000010B5040020
:1041100005D10AA3C02214A116A0FCF7F1F865206E
:1041200084F82A006E2084F82B001D4860611D4829
:10413000A061204601F040F9002010BD2E2E5C4CFD
:104140005749505C6C7769702D312E342E315C7379
:1041500072635C6E657469665C65746865726E65D1
:104160007469662E630000006E65746966213D4EB9
:10417000554C4C00417373657274696F6E20222533
:104180007322206661696C6564206174206C696EBD
:104190006520256420696E2025730D0A000000004B
:1041A00011380008F154000870B5054601F042F9D5
:1041B000040009D02A6929469047050002D020460C
:1041C00002F0D6FC284670BD4FF0FF3070BD0000F5
:1041D00003490A685206FCD5C2B24A607047000023
:1041E0000010014010B502F073F8FCF785FCFCF7F5
:1041F000FFFB18B16420FFF709F9F8E7BDE81040AC
:10420000FCF74CBC0A46032100F040B92DE9FE4FF3
:10421000456804468A4628780007870E7942884612
:10422000204602F053FD00287AD12089042877D354
:104230006068007800287FD008287DD14149012698
:104240000868C0F303120E2A00D1002689465146A1
:1042500000F0C6F900286FD1002E6DD02089082803
:104260006AD3204600F098F9002865D12221204623
:1042700002F02CFD002831D03946204602F026FD00
:1042800018B131A398223AA147E0218900220220E7
:1042900002F03CF806004FD0718907F10800814216
:1042A00005D229A3A1223FA14CA0FCF729F8214661
:1042B000304602F0E3FA18B123A3A52252A12CE064
:1042C00041463046756802F001FD10B11EA3AB22D5
:1042D0000CE0204602F04CFC344609E06FF021016E
:1042E000204602F0F3FC18B117A3B52250A114E048
:1042F0006068D9F80010E9605A4900260968296108
:1043000006704680FF2028726E813946204602F0F2
:10431000DDFC30B10CA3DA2253A130A0FBF7F0FF93
:104320000AE00121CDE90061FF230022CDF808A0B9
:104330000449204600F0A6FB2046BDE8FE4F02F0EF
:1043400017BC0000E00100202E2E5C4C5749505C49
:104350006C7769702D312E342E315C7372635C631F
:104360006F72655C697076345C69636D702E630092
:1043700069636D705F696E7075743A206D6F7669F0
:104380006E6720702D3E7061796C6F616420746F70
:1043900020697020686561646572206661696C657A
:1043A000640A0000636865636B207468617420664A
:1043B0006972737420706275662063616E20686F25
:1043C0006C6420737472756374207468652049434B
:1043D0004D5020686561646572000000417373652B
:1043E0007274696F6E2022257322206661696C6584
:1043F00064206174206C696E6520256420696E20DC
:1044000025730D0A0000000069636D705F696E70AE
:1044100075743A20636F7079696E6720746F206ECF
:1044200065772070627566206661696C65640A0054
:1044300069636D705F696E7075743A20726573742C
:104440006F72696E67206F726967696E616C207048
:104450002D3E7061796C6F6164206661696C656482
:104460000A000000DC01002043616E2774206D6F9C
:104470007665206F76657220686561646572206973
:104480006E207061636B6574000000002DE9FE43CF
:1044900091460E46074600222421012001F036FFF6
:1044A00005002DD06889242806D216A34FF49972EE
:1044B0001EA129A0FBF724FF6C68D7F804801C22FA
:1044C000267084F801900026A680E68068687968E6
:1044D0000830FCF7DDF866806989204600F056F860
:1044E0006080D8F80C0002900120CDE90060FF2325
:1044F00002AA0021284600F071FA284602F038FB93
:10450000BDE8FE832E2E5C4C5749505C6C77697079
:104510002D312E342E315C7372635C636F72655C77
:10452000697076345C69636D702E630063686563DF
:104530006B20746861742066697273742070627590
:10454000662063616E20686F6C642069636D702003
:104550006D65737361676500417373657274696F2C
:104560006E2022257322206661696C656420617467
:10457000206C696E6520256420696E2025730D0A04
:10458000000000000A460B21FFF780BF10B501F0C4
:1045900039F9C04380B210BD70B5002405462646E7
:1045A00013E06989686801F02DF92044010C11FAC3
:1045B00080F4A87AC00707D0C6F10100C6B2E0B205
:1045C000C4F3072141EA00242D68002DE9D126B16A
:1045D000E0B2C4F3072141EA0024E04380B270BD99
:1045E000421C12D088B191F8292092070BD54A6855
:1045F000824208D0896800EA01030A40934202D14E
:104600000143491C01D00020704701207047000081
:104610002DE9F74F8AB004460B9814250026078C25
:1046200060680690C08801F0E2F8C0F30C0100F465
:1046300000500391089020891438143F1FFA80F924
:10464000F81707EB5070C0F3CF00079704908EE087
:104650000799894501DC012000E000200399089AB0
:10466000C1F30C0111430591002825D048461FFADB
:1046700080FB00221421022001F048FE0290002855
:1046800020D06089142806D240A340F2FB224AA120
:1046900051A0FBF735FE0298142206994068FBF7FB
:1046A000F7FF0298D0F804A0606828446060608931
:1046B000401B60815D4631E041F400500590049854
:1046C000C000D4E74FF0FF300DB0BDE8F08F668931
:1046D000AE4200D92E4606B3062001F0DDFB0700EE
:1046E0004BD06068CDE900063B46022231460320EC
:1046F00001F0BAFF5FEA000843D0204602F036FC22
:104700004048C7E904044146029802F019F8A81B82
:1047100005042D0C04D02468D9E72468002DD6D1D7
:104720003546059801F050F8AAF806000BF1140080
:1047300080B201F049F8AAF802000021AAF80A1094
:1047400014215046FFF722FFAAF80A000B980C9A92
:10475000029943699847029802F00AFAA9EB0B0004
:104760001FFA80F9DDE90301084480B20390B9F132
:10477000000F7FF46DAF0020A6E7029802F0F8F971
:10478000A0E7384600F040F8F7E700002E2E5C4C1A
:104790005749505C6C7769702D312E342E315C7323
:1047A00072635C636F72655C697076345C69705FBC
:1047B000667261672E63000074686973206E6565B8
:1047C00064732061207062756620696E206F6E656B
:1047D0002070696563652100417373657274696F48
:1047E0006E2022257322206661696C6564206174E5
:1047F000206C696E6520256420696E2025730D0A82
:10480000000000002D53000810B5040006D106A3D7
:1048100040F279220FA112A0FBF772FD2146BDE8FC
:104820001040062001F0B8BA2E2E5C4C5749505C5F
:104830006C7769702D312E342E315C7372635C633A
:104840006F72655C697076345C69705F667261670F
:104850002E6300007020213D204E554C4C0000007E
:10486000417373657274696F6E202225732220660E
:1048700061696C6564206174206C696E65202564D3
:1048800020696E2025730D0A000000002DE9F05FFD
:1048900045680646884628780421B1EB101F0FD1E1
:1048A00000F00F004FF6FF7101EA8004688800F005
:1048B0009EFF01467089A04202D33089884203D20C
:1048C000304602F055F94EE0304602F08BFA41488E
:1048D0002969A0F1040A0160EA68DFF8FCB0012749
:1048E00044468146CAF8002094F82900C0070BD03E
:1048F000201D09D0616839B1D9F8000088420ED076
:104900002146FFF76DFE50B91FB10027DBF80040CC
:1049100000E02468444500D12468002CE4D15746C7
:104920004146DAF80000FFF75BFE0028C8D138786E
:10493000BA46C0F303100E28C2D0002CC0D0E888BD
:1049400030F0C00005D0304600F04EF906000AD025
:104950007568204C4146103C3046C4E9018502F0A0
:104960005FFC18B12DE00020BDE8F09F687A0128B7
:1049700015D006280ED0112807D04F464146D9F849
:104980000000FFF72DFE78B118E04146304606F0F2
:104990005DFA16E04146304603F0A8F911E04146C1
:1049A0003046FFF733FC0CE03878C0F303100E28D4
:1049B00004D0022130467560FFF724FC304602F037
:1049C000D7F800206060A060CAF80000C9F80000B5
:1049D000C9E70000E0010020040200202DE9FE43A9
:1049E0000446DDE90A65C0899846174689460128CC
:1049F00006D00CA340F2393214A117A0FBF780FCBB
:104A0000384600F073FC50B10096CDE901504346A2
:104A10003A464946204600F035F8BDE8FE836FF07F
:104A20000300FAE72E2E5C4C5749505C6C77697096
:104A30002D312E342E315C7372635C636F72655C52
:104A4000697076345C69702E63000000702D3E72D0
:104A50006566203D3D203100417373657274696F56
:104A60006E2022257322206661696C656420617462
:104A7000206C696E6520256420696E2025730D0AFF
:104A8000000000002DE9F84F0546DDE90BA6C089BE
:104A9000DDF828B0984617468946012806D02DA390
:104AA0004FF4277235A138A0FBF72AFC002F3CD029
:104AB0001421284602F00AF918B16FF00100BDE890
:104AC000F88F68896C68142806D222A340F2C922A4
:104AD00038A12DA0FBF714FC84F8088084F809A005
:104AE000386820614520207084F801B0288900F0E2
:104AF0006BFEDFF8F08060804FF0000AA4F806A09B
:104B0000B8F8000000F060FEA080B8F80000401C7B
:104B1000A8F80000B9F1000F02D0D9F8000000B9E0
:104B20007068E060A4F80AA003E068686F46006956
:104B30000090308C40B12989814205D93A463146EE
:104B40002846FFF765FDBAE773693A4629463046BD
:104B50009847B4E72E2E5C4C5749505C6C776970CF
:104B60002D312E342E315C7372635C636F72655C21
:104B7000697076345C69702E63000000702D3E729F
:104B80006566203D3D203100417373657274696F25
:104B90006E2022257322206661696C656420617431
:104BA000206C696E6520256420696E2025730D0ACE
:104BB00000000000636865636B20746861742066A0
:104BC0006972737420706275662063616E20686F0D
:104BD0006C64207374727563742069705F686472AA
:104BE00000000000D00100202DE9F14F00270098BF
:104BF0004468207800F00F0005287CD1E08800F0A0
:104C0000F6FDC0044FEA104A608800F0F0FD2178FC
:104C100001F00F01494200EB81001FFA80F9009872
:104C200001F022FE584D0646288830440A2809D94A
:104C30003146204600F0FCFA00285CD02888304439
:104C40000A2858D8A8466D684FF0000B0DE0686937
:104C5000E168884207D1A8692169884203D1A889FF
:104C6000A188884204D02F462D68002DEFD106E0A0
:104C70002DB1E08800F0BBFDC00424D02EE005205B
:104C800001F00AF905000AD13146204600F0D0FAB9
:104C9000B04216DB052001F0FFF8050011D02021FD
:104CA000FBF78FFD0320E877D8F804102960142261
:104CB000214605F10800C8F80450FBF7E9FCD5B11E
:104CC0000CE05D46FBE7E88900F091FDC00405D0EB
:104CD0001422214605F10800FBF7DAFCB8F80010B1
:104CE0003144A8F80010A079800608D4A87F40F0CD
:104CF0000100A87700E041E00AEB0900A8832846FC
:104D0000009900F043F8002836D0A88B1422143004
:104D1000A883686805F10801466830463468FBF7E7
:104D2000B7FCA88B00F050FD7080A6F806B0A6F87E
:104D30000AB014213046FFF729FC70816FF0130A86
:104D4000D5F8049009E051462046666801F0BEFFA0
:104D50002146484601F0F4FC3468002CF3D1394672
:104D6000284600F04DF9484601F07EFDB8F80020D5
:104D7000101AA8F800004846BDE8F88F009801F026
:104D8000F7FE0020F8E70000E40100202DE9F047DD
:104D90004C680646884600250127608800F027FDFC
:104DA000217801F00F01494200EB8109E08800F011
:104DB0001EFDC004D8F80440020C0020206002EB65
:104DC0000900A2801FFA80FCA4F806C071681DE0EB
:104DD000486883889A420ED2216045B1EB889A4296
:104DE00075D38088844572D8C5F8008001E0C6F884
:104DF000048069B12BE06AD0C1888A4267D31DB1B3
:104E0000E988994200D00027016805460029DFD1D2
:104E100095B1E888A188884206D933A340F293125D
:104E20003CA144A0FBF76CFAC5F80080E888A18893
:104E300088420CD000270AE0706830B12AA340F203
:104E40009B1247A13BA0FBF75BFAC6F80480B07F3A
:104E5000C00739D0002F36D072685068808838B9C2
:104E60002068214630B14468C888A1888842F7D0BC
:104E7000002728E0002F26D032B91BA34FF4DE72A2
:104E800045A12CA0FBF73CFA70684068A04206D10F
:104E900015A340F2BD1240A126A0FBF731FA20680D
:104EA00030B111A340F2BF123FA122A0FBF728FAB4
:104EB000E088B18B884206D00BA340F2C11243A117
:104EC0001CA0FBF71DFA3846BDE8F087FFE7404617
:104ED00001F0CAFC49490A88101A0880404601F0CE
:104EE00047FE0020F0E700002E2E5C4C5749505C36
:104EF0006C7769702D312E342E315C7372635C6374
:104F00006F72655C697076345C69705F6672616748
:104F10002E630000636865636B20667261676D6570
:104F20006E747320646F6E2774206F7665726C6187
:104F300070000000417373657274696F6E202225E2
:104F40007322206661696C6564206174206C696EEF
:104F50006520256420696E2025730D0A000000007D
:104F60006E6F2070726576696F7573206672616707
:104F70006D656E742C2074686973206D7573742070
:104F80006265207468652066697273742066726158
:104F9000676D656E7421000073616E6974792063BA
:104FA0006865636B0000000076616C69646174651C
:104FB0005F646174616772616D3A6E6578745F7089
:104FC000627566213D4E554C4C00000076616C695F
:104FD000646174655F646174616772616D3A646194
:104FE00074616772616D20656E64213D64617461F6
:104FF0006772616D206C656E00000000E4010020A6
:1050000070B504460B480D464168A14202D12168A3
:10501000416009E035B908A340F2391211A118A086
:10502000FBF76EF9206828602146BDE87040052036
:1050300000F0B2BEE40100202E2E5C4C5749505CBB
:105040006C7769702D312E342E315C7372635C6322
:105050006F72655C697076345C69705F66726167F7
:105060002E63000073616E69747920636865636BF9
:10507000206C696E6B6564206C69737400000000BD
:10508000417373657274696F6E20222573222066E6
:1050900061696C6564206174206C696E65202564AB
:1050A00020696E2025730D0A000000002DE9F047ED
:1050B000064600250F46B14205D12FA3A52239A1EE
:1050C0003BA0FBF71DF947B13868B04205D02AA3D1
:1050D000A72242A136A0FBF713F974684FF4803879
:1050E0006068818800291AD100687060142206F176
:1050F00008016068FBF7CCFA01212046FFF742FA6D
:10510000204601F0B1FB0546404505D31AA3B6225F
:1051100037A127A0FBF7F4F8204601F029FDC1468E
:10512000746812E06068A0460468404601F09CFB89
:1051300005444D4505D310A3C6222DA11CA0FBF7A5
:10514000DFF8ADB2404601F013FD002CEAD139463C
:105150003046FFF755FF2E4C2088A84205D206A303
:10516000CC222CA112A0FBF7CBF82088401B20807A
:105170002846BDE8F08700002E2E5C4C5749505C55
:105180006C7769702D312E342E315C7372635C63E1
:105190006F72655C697076345C69705F66726167B6
:1051A0002E6300007072657620213D2069707200C8
:1051B000417373657274696F6E20222573222066B5
:1051C00061696C6564206174206C696E652025647A
:1051D00020696E2025730D0A00000000707265764C
:1051E0002D3E6E657874203D3D2069707200000090
:1051F00070627566735F6672656564202B20636CF0
:10520000656E203C3D2030786666666600000000D2
:10521000E401002069705F72656173735F7062758D
:1052200066636F756E74203E3D20636C656E000092
:105230002DE9F041DFF868800F4605460026002280
:1052400013461446D8F804001AE04169D5F80CC09A
:10525000614509D18169D5F810C0614504D18189C2
:10526000B5F804C0614507D0641C22B1C17F92F833
:105270001FC0614500D80246016801B103460846D7
:105280000028E2D122B119461046FFF70FFF06446D
:10529000BE4201DA012CD2DC3046BDE8F0810000CC
:1052A000E401002010B500F00BF8BDE8104000222A
:1052B00002494FF47A7002F01DB80000A5520008B0
:1052C00070B50948002544680BE0E07F20B1401E1E
:1052D000E0772546246804E0204624682946FFF745
:1052E000E5FE002CF1D170BDE401002010B50446AC
:1052F0000C480AE090F82910C90706D08168226896
:1053000043680A400B409A420AD000680028F1D155
:105310000548006818B190F82910C90700D100208D
:1053200010BD0000040200200802002010B5040097
:1053300006D108A340F2832211A114A0FAF7E0FFDE
:10534000606908B101F014FC2046BDE81040FFF789
:105350005BBA00002E2E5C4C5749505C6C7769702C
:105360002D312E342E315C7372635C636F72655C19
:10537000697076345C69705F667261672E630000E5
:1053800070637220213D204E554C4C004173736573
:105390007274696F6E2022257322206661696C65C4
:1053A00064206174206C696E6520256420696E201C
:1053B00025730D0A0000000010B5062180F82210A8
:1053C000164905230A7880F823204A7880F824209B
:1053D0008A7880F82520CA7880F826200A7980F813
:1053E0002720497980F8281040F2DC5120F8201F4E
:1053F000322141720A4802680A4801680A48FBF7EC
:1054000094FE0A480A230268094801680648FBF727
:1054100053FE0548FCF791F8002010BD00AF0120B5
:105420003800002030000020A003002034000020BD
:105430002C0000202DE9F84F0020044600902B4856
:10544000FBF7AFFE10B10020BDE8F88F2748818F31
:10545000D0F840900904090C2DD00322104600F02A
:1054600055FF009038B32148009D40F2F45BD0F81E
:1054700030806F8900260FE0A4F2F4525242FBF70D
:1054800007F9D8F80C008046D0F80890361BAAF22D
:10549000F457002406F2F456686807EB040ADA456C
:1054A00009EB04013044E7D83A46FBF7F1F82D68E0
:1054B0003C44002DDDD10D4A0021106B05E003684E
:1054C00043F000430360C068491C936B8B42F6D8DD
:1054D00000219163106800F580504269120602D5E0
:1054E0008022426181600098AEE70000A0030020A6
:1054F0002DE9F05F27480E46C56A00208146044624
:10550000D5F808A031E0286800280CDBB6F80A803E
:10551000002717E0A4F2F4525242FBF7B9F8ED6805
:105520002868002802DA6FF0070025E0D5F808A007
:105530003F1BA9EB0400ABF2F45800F2F45900242D
:1055400007F2F45708EB040B40F2F45170688B45F6
:1055500000EB07010AEB0400DCD84246FBF798F8A1
:1055600009EB0800366844448146002ECBD1014641
:105570000848FCF724F800200649096801F5805125
:105580004A69920603D520224A6100224A60BDE89A
:10559000F09F0000A003002070B512490968C024E4
:1055A0008471A825C5710122027239234372022336
:1055B00003700023437083700E0CC6700E0A0671D0
:1055C00041718472C572027337214173FF21817367
:1055D000C173017443748474C57402754275837514
:1055E00070BD0000107AFF1F10B586B00024FBF7D5
:1055F00079FC10B1012006B010BD00F0CDF808B163
:105600000220F8E72F48FFF7C7FF05E0641CE4B26B
:10561000052C01D90320EEE7FDF77AFA0028F5D131
:1056200000F0D4F8274CA07AD4F80B1040EA0120FF
:105630000390A07BD4F80F1040EA01200490A07CD6
:10564000D4F8131040EA01200590E07862792179BE
:105650008DE80700A378627821781BA0FAF750FE46
:10566000607B0090237BE27AA17A25A0FAF748FEBE
:10567000607C0090237CE27BA17B2DA0FAF740FEAA
:10568000607D0090237DE27CA17C35A0FAF738FE96
:105690003F4A404900208DE8070005AB04AA03A952
:1056A00004F1180000F04AFD48B104F1180000F0C0
:1056B000BDFD04F1180000F0FBFD00209BE7042075
:1056C00099E7000000AF0120CDF8BFA8656EB5C412
:1056D0004D4143B5D8D6B7CEAA3A2E2E2E2E2E2E19
:1056E0002E2E2E2E2E2E2E2E2E2E25642E25642E80
:1056F00025642E25642E25642E25640D0A000000E5
:10570000BEB2CCAC4950B5D8D6B72E2E2E2E2E2EEA
:105710002E2E2E2E2E2E2E2E2E2E2E2E2E2E2E2EA9
:105720002E2E25642E25642E25642E25640D0A0058
:10573000D7D3CDF8D1DAC2EB2E2E2E2E2E2E2E2E32
:105740002E2E2E2E2E2E2E2E2E2E2E2E2E2E2E2E79
:105750002E2E25642E25642E25642E25640D0A0028
:10576000C4ACC8CFCDF8B9D82E2E2E2E2E2E2E2E6C
:105770002E2E2E2E2E2E2E2E2E2E2E2E2E2E2E2E49
:105780002E2E25642E25642E25642E25640D0A00F8
:10579000F53F00080D41000810B500F04BFB014635
:1057A000002000F095FC0549086043F69C6100204C
:1057B00000F08EFC02490860002010BDFC010020B2
:1057C000EC01002000BA704740BA704710B500F0F5
:1057D00011F900F033FB00F017FD05F035FB02F086
:1057E00083FABDE8104001F005BE00BA704740BA28
:1057F000704701F051BD00000148FEF7D5BC000024
:1058000018AF012018B50022ADF8002010F00103F8
:105810000BD0002909DD10F8014B8DF80140491E1D
:1058200003E030F8024B891E22440129F9DC0029EB
:1058300002DD00788DF80000BDF800001044010C76
:1058400011FA80F0010C11FA80F023B1C1B2C0F35B
:10585000072040EA012080B218BD00000823022280
:1058600019214FF4B470FDF71DFBFCF769F8B42063
:10587000FDF7C2FD4FF4E13005F0CAFA1648416861
:105880005A208847FDF704FA002000F09DFB022013
:1058900000F09AFB11494FF47840086040F28331E0
:1058A00040F2E730FDF772FB4FF4FA7405E0204652
:1058B000FDF7ACFD2046FDF7A9FDFFF795FE00289A
:1058C000F5D14FF47A70FDF7A1FDFFF792FF04F0D8
:1058D0000FFB0A20F7E700009C00002024000020B6
:1058E00070B5040032D0A00706D019A34FF4A172FE
:1058F00020A129A0FAF704FD324D6868844202D342
:10590000A868844206D312A34FF4A2722EA122A04B
:10591000FAF7F6FC6868844218D3A868844215D266
:1059200014F8040C083C30B909A340F255122CA11C
:1059300019A0FAF7E5FC00202071E868844200D243
:10594000EC602046BDE8704001F0B4BB70BD0000C3
:105950002E2E5C4C5749505C6C7769702D312E347B
:105960002E315C7372635C636F72655C6D656D2E66
:10597000630000006D656D5F667265653A20736156
:105980006E69747920636865636B20616C69676E0A
:105990006D656E7400000000417373657274696F09
:1059A0006E2022257322206661696C656420617413
:1059B000206C696E6520256420696E2025730D0AB0
:1059C00000000000EC0100206D656D5F667265658A
:1059D0003A206C6567616C206D656D6F72790000AF
:1059E0006D656D5F667265653A206D656D2D3E75FE
:1059F000736564000A4A10B510684FF47A53C01CEE
:105A000020F0030151600B8000244C800C7101F5E3
:105A10007A5001249060047103804380D16010BDEE
:105A2000EC0100202DE9F047002875D04FF6FC71FD
:105A3000C01C00EA01054FF47A590C2D01D20C2547
:105A400001E04D456DD8384EC5F57A53F768716859
:105A5000781A80B263E00C182279002A5ED122887D
:105A6000121A083AAA4259D3228805F11403121ACD
:105A7000083A4FF001089A4215D34219083293B2FE
:105A8000CA184FF0000C82F804C0B4F800C0A2F8A5
:105A900000C05080238084F804801088484504D0DA
:105AA0008A1C835201E084F80480BC4214D11E4851
:105AB000806801E03A8857183A790AB18742F9D1EB
:105AC000F760874208D0387930B118A34FF41972C3
:105AD0001FA126A0FAF714FC6019B16808308842AB
