:020000040800F2
:1000000038B50120AD0100086F2C00084B2900080D
:100010006D2C000833060008E534000800000000DD
:10002000000000000000000000000000A32E0008F7
:10003000090C000800000000912C0008592F00084E
:10004000C7010008C7010008C7010008C701000870
:10005000C7010008C7010008C7010008C701000860
:10006000C7010008C7010008C7010008C701000850
:10007000C7010008C701000835060008410600084E
:10008000C7010008C7010008C7010008C701000830
:10009000C7010008C7010008C7010008C701000820
:1000A000C7010008C7010008C7010008C701000810
:1000B000C7010008D53000080D310008C70100084D
:1000C000C7010008C7010008C7010008C7010008F0
:1000D000C7010008A1340008C7010008C7010008D3
:1000E000E50D0008C7010008C7010008C7010008A6
:1000F000C7010008C7010008C7010008C7010008C0
:10010000C7010008C7010008C7010008C7010008AF
:10011000C7010008C7010008C7010008C70100089F
:10012000C7010008C7010008C7010008C70100088F
:10013000C7010008590C0008C7010008C7010008E2
:10014000C7010008C7010008C7010008C70100086F
:10015000C7010008C7010008C7010008C70100085F
:10016000C7010008C7010008C7010008C70100084F
:10017000C7010008C7010008C7010008000000000F
:10018000C7010008C7010008DFF80CD000F068F8CC
:10019000004800473F5A000838B5012030BF72B60A
:1001A000704762B6704780F30888704706488047FA
:1001B00006480047FEE7FEE7FEE7FEE7FEE7FEE74C
:1001C000FEE7FEE7FEE7FEE75D2F00088901000875
:1001D00040EA01039B0703D009E008C9121F08C0C9
:1001E000042AFAD203E011F8013B00F8013B521E49
:1001F000F9D27047D2B201E000F8012B491EFBD2C0
:1002000070470022F6E710B513460A460446194621
:10021000FFF7F0FF204610BD30B50446002003462E
:1002200000E05B1C934203D2E05CCD5C401BF8D045
:1002300030BD30B50B46014600202022012409E0E4
:1002400021FA02F59D4205D303FA02F5491B04FA8F
:1002500002F52844151EA2F10102F1DC30BD0000B8
:10026000064C074D06E0E06840F0010394E8070003
:1002700098471034AC42F6D3FFF78AFF38A800083D
:1002800058A8000870B58C1810F8015B15F007032A
:1002900001D110F8013B2A1106D110F8012B03E01F
:1002A00010F8016B01F8016B5B1EF9D12B0705D427
:1002B0000023521E0DD401F8013BFAE710F8013B70
:1002C000CB1A921C03E013F8015B01F8015B521E8C
:1002D000F9D5A142D8D3002070BD0000094A40B131
:1002E000012809D002280AD0032801D1C2F8B81287
:1002F0007047C2F8AC127047C2F8B0127047C2F82B
:10030000B41270470080414210B5002000F034F96B
:10031000334CD0212070022000F059F9FC21032039
:1003200000F055F9642003F0F3F90021042000F0F7
:100330004EF9A0780007010E052000F048F9A078DA
:100340000007010E062000F042F9A0780007010E18
:10035000072000F03CF9A0780007010E082000F00B
:1003600036F9A0780007010E092000F030F9A078D6
:100370000007010E0A2000F02AF9A0780007010EFC
:100380000B2000F024F9A0780007010E0C2000F0EB
:100390001EF9FF210D2000F01AF9FF210E2000F0B8
:1003A00016F90021042000F012F920221521002066
:1003B00000F028F920221521012000F023F9202245
:1003C0001521022000F01EF9122000F00BF8102079
:1003D00002F0FEFC012003F09BF9002010BD00009C
:1003E0003000002070B50546002400212046FFF7AC
:1003F00075FF284602F0DCFC01212046FFF76EFF66
:10040000641CE4B2042CF0D370BD0000124800B5A7
:10041000016887B041F0080101600068694600F09A
:10042000080005904FF4806000900C480190012076
:1004300002900B4801F0F6F801220021282001F07B
:100440008BFA282001F07DFA0A20FFF7CBFF0A2063
:1004500003F05EF907B000BD303802400000211003
:10046000000C024070B53D4886B00025016841F09F
:1004700040010160016801F040010591016841F00F
:1004800008010160016801F008010591016841F06F
:10049000800101600068012400F0800005904FF4A5
:1004A000F040CDE900040320CDE9024069462C4824
:1004B00001F0B8F802F058FC322003F029F91820B6
:1004C00002F086FC2748C0F8AC42C0F8B042C0F841
:1004D000B442C0F8B8420220FFF784FF0620FFF7BD
:1004E00081FF052003F014F91F48A0211F4E017061
:1004F00008214170C021417221218170C5702021E5
:100500000171B178417171788171C57105721420E2
:1005100003F0FEF800F046F8E021032000F057F861
:100520001348C0F8B8421348C0F88042642003F072
:10053000EFF8707840F0D001012000F048F80A2070
:1005400003F0E6F87078012140F0F002002000F09E
:1005500059F8052003F0DCF806B070BD30380240D1
:10056000000C024000804142E403002030000020E3
:10057000008040420000404210B5094C0020C4F801
:10058000AC02202004F52B7402F012FC002002F0D3
:100590000FFC002002F00CFC0121216010BD0000C6
:1005A0000080414210B5002400212046FFF796FE4E
:1005B000112002F0FDFB01212046FFF78FFE0220F3
:1005C00003F0B4F8641CE4B2042CEDD310BD70B594
:1005D0000E46002440F0400500212046FFF77EFE35
:1005E000284602F0E5FB002002F0E2FB304602F074
:1005F000DFFB01212046FFF771FE641CE4B2042CEE
:10060000EAD370BD70B50B46154604460021FFF7CE
:1006100065FE43F0400002F0CBFB002002F0C8FB77
:10062000284602F0C5FB2046BDE870400121FFF7D7
:1006300055BEFEE70148406C00F0DEBBC40400205C
:100640000148006C00F0D8BBC40400202DE9FE4F27
:10065000DFF8188498F80000A02820D1DFF8109463
:1006600098F80100A9F12404012621784FF0000A2E
:1006700041F080010291414631288D787ED010DC16
:10068000012830D0FB4E11283FD0142856D0212805
:1006900005D102982070E6617078801C6081BDE809
:1006A000FE8FF2493228CA780B7968D0332867D098
:1006B0004128F4D102EB8200ED4F40007F1DE08124
:1006C000012D7CD0554684F803A0002002F05CFE8A
:1006D000FD70E76199F80100801C6081207840F08E
:1006E00080002070DBE7012D09D0002DD7D10A2032
:1006F000FFF778FE84F805A084F802A0CFE7082071
:10070000FFF770FE6671A670C9E7DB4F3878854247
:1007100003D0284602F0C6FB3D70112189F8021073
:1007200089F803A099F80110891C6181C4F81C9014
:10073000207840F080002070B571B0E7FFF732FFFD
:1007400098F80200CD4D012801D0C8B36CE028789C
:10075000052606EB0010C1B23046FFF738FF2878B7
:1007600006EB0010C1B20620FFF731FF287806EB38
:100770000010C1B20720FFF72AFF02E07DE08DE004
:100780001DE2287806EB0010C1B20820FFF71FFF1A
:10079000287806EB0010C1B20920FFF718FF28786F
:1007A00006EB0010C1B20A20FFF711FF287806EB14
:1007B0000010C1B20B20FFF70AFF287801E042E0E9
:1007C00002E006EB00102BE028780007010E052060
:1007D000FFF7FDFE28780007010E0620FFF7F7FE61
:1007E00028780007010E0720FFF7F1FE28780007A0
:1007F000010E0820FFF7EBFE28780007010E092004
:10080000FFF7E5FE28780007010E0A20FFF7DFFE5C
:1008100028780007010E0B20FFF7D9FE2878000189
:10082000C1B20C20FFF7D3FE91480A304178891CF1
:100830006181E061207840F080002070BDE8FE4FCB
:100840001220FFF7CFBD642815D8FA2B13D802F079
:100850009BFD2671208B6082A089E082E67098F86B
:100860000400208298F805103220B0FBF1F0A0823D
:1008700087F803A02DE7FE702BE702F03FF9082070
:10088000FFF7B0FD79486670C830A02101700321E0
:1008900041703121817080F803A0A6E17449443190
:1008A000086815B1764D284002E0754DED432843A8
:1008B000086012B1734A104002E0724AD2431043FA
:1008C000086098F817000028086802D06E4A1040A7
:1008D00002E06D4AD2431043086098F818000028DF
:1008E000086802D0C0F3150001E0684A10430860B0
:1008F0005F485F4A443010324068D2686FEA0209AC
:100900000BB1104001E040EA09004860584898F8EF
:10091000053010304069C743002B4B6801D00340BD
:1009200000E03B43524D4B6098F80C301035002BE3
:10093000AE684B686FEA060E01D0334001E043EA2F
:100940000E034B4D4B60103598F80D30AD69002B00
:100950006FEA050CCDF800C04B6801D02B4001E0D8
:1009600043EA0C034B60414B93F814C0404B1033E7
:10097000BCF1000F1B69D1F804C06FEA030B02D071
:100980000CEA030C01E04CEA0B0CC1F804C0DFF8E0
:10099000DCC09CF81280DFF8D8C0B8F1000F0CF171
:1009A000100CDCF804C0CDF804C0DFF8C4C0DDF8DA
:1009B00004800CF1440CDCF808C002D00CEA080CEE
:1009C00001E06CEA080CC1F808C0DFF8A0C09CF890
:1009D0000EC0BCF1000F06D0D1F808C00CEA060C1E
:1009E000C1F808C005E0D1F804C04CEA0E0CC1F80B
:1009F00004C0DFF878C09CF806C0BCF1000FD1F845
:100A000008C002D00CEA020C01E04CEA090CC1F863
:100A100008C0DFF858C09CF815C0BCF1000FD1F831
:100A200008C002D00CEA030C01E04CEA0B0CDFF822
:100A30003C80C1F808C098F807C0BCF1000FD1F89D
:100A400008C002D00CEA000C01E04CEA070CC1F827
:100A500008C0DFF818C09CF80FC0BCF1000FD1F837
:100A600008C015D00CEA050C16E0000028AF0120E4
:100A7000BC000020E40300203100002032000020F0
:100A8000FFFFF700FFDF7F00FFEF7F000000C0FFE8
:100A9000DDF800804CEA080CC1F808C0DFF85CC142
:100AA0009CF81380DFF858C1B8F1000FD1F8088026
:100AB000DCF81CC002D008EA0C0801E068EA0C0867
:100AC000DFF838C1C1F808809CF81080DFF830C129
:100AD000B8F1000F0CF1340CDCF80CC002D00CEAB9
:100AE000060C01E04CEA0E0C444EC1F80CC096F81E
:100AF00008C0BCF1000FD1F80CC002D00CEA020C07
:100B000001E04CEA090CC1F80CC096F816C0BCF123
:100B1000000F06D0D1F80CC00CEA030CC1F80CC0D1
:100B200003E0CB6843EA0B03CB60737A002BCB68FE
:100B300001D0034000E03B43CB60737C002BCB68CB
:100B400001D02B4001E0009D2B43CB602C4BB57AAC
:100B500034331B690DB1134001E043EA09030B6113
:100B6000F27A1AB103EA00020A6102E043EA0700DE
:100B70000861234B17202033321803EB400592788D
:100B800035F82E5C002ACA6801D02A4300E0AA4347
:100B9000401CC0B2CA602028EED31848A021C8303B
:100BA0000170032141703221817080F803A0C021BF
:100BB00001710521618102992170E0616FE50A20D0
:100BC000FFF710FC01F0ACFF554684F801A00D4A78
:100BD0008421232002F032FA0848A021C830017095
:100BE0000321417033218170C570C021017105213D
:100BF0006181217841F08001DEE7000028AF01200B
:100C0000CC000020003C7800704738B504460068EE
:100C100000F58050816941F480118161206800F500
:100C2000805080690090012000F0B8F92068009998
:100C300000F58050816138BD02680021002A08DB80
:100C40000268120405D40268D20502D50068C0F318
:100C50000D4108467047000010B5094C01E004F052
:100C6000BDFEA06AFFF7E8FF0028F8D120684FF426
:100C7000803100F5805041614021416110BD00008C
:100C8000CC0200202DE9F041044621B14FF4006070
:100C9000E060C000A060E0690026002861D0354611
:100CA0002068402702683A490A40D4E902131943F0
:100CB000294341F400711143016020680568012057
:100CC00000F06CF92068056020684760206845687E
:100CD000012000F063F92068456020688660206884
:100CE000C660206881694FF64172114041F0800171
:100CF000816120688569012000F050F920688561D4
:100D00002068C6612068C569012000F047F92068A5
:100D1000C561206800F5805081691E4A11401E4A55
:100D20000A438261206800F580508569012000F047
:100D300035F9206800F5805085612068174900F575
:100D400080500160206800F580500568012000F0A7
:100D500025F9206800F580500560A069012803D0BE
:100D600009E04FF480659BE7206800F58050C16979
:100D70000B4A1143C16160690A4A81881164017894
:100D8000D0F8010041EA00205064BDE8F081000085
:100D90000F8120FF233FDEF8040020028020C102E3
:100DA000400001000080024010B54FF4A071002007
:100DB00005F0BAF90A4CA0212060002005F0B4F932
:100DC000606043F68831002005F0AEF9A06041F67E
:100DD000C451002005F0A8F9E060002010BD00001B
:100DE0002000002010B501F055FF02494FF480604B
:100DF000086010BD143C01402DE9F041056D04462A
:100E0000286894F85420082101FA02F210424FF0A9
:100E100004074FF0000617D020680268520713D568
:100E2000026822F00402026094F854008140A96034
:100E3000E06C40F00100E06484F8357084F83460C0
:100E4000A16C09B120468847286894F85430524A6A
:100E500002FA03F1084218D020684169090614D546
:100E6000416921F08001416194F8540002FA00F1D7
:100E7000A960E06C40F00200E06484F8357084F80A
:100E80003460A16C09B1204688472868424A94F82A
:100E90005430D21C02FA03F1084218D020680168CD
:100EA000890714D5016821F00201016094F854000B
:100EB00002FA00F1A960E06C40F00400E06484F8FC
:100EC000357084F83460A16C09B1204688472868E1
:100ED00094F85430102202FA03F108421AD0206824
:100EE00003681B0716D503685F034FF0310327D54E
:100EF000A96020680168090302D484F8353005E050
:100F00000068000302D5412084F83500216C09B146
:100F100020468847286894F85430202202FA03F1CA
:100F2000084236D020680368DB0632D503685B03CD
:100F30001CD5A9602068016809030DD4616C0FE01D
:100F40000168C90503D4016821F00801016094F823
:100F500054008240AA60D0E70068000319D5E16B15
:100F6000002916D02046BDE8F04108470168C905B0
:100F700003D4016821F01001016094F8540082400C
:100F8000AA60E06CE064112084F8350084F83460D5
:100F9000E5E7BDE8F08100000100800031B500F018
:100FA0002DFC044600F02AFC0099001B8842F9D36E
:100FB00038BD2DE9F04390F845500024012D0DD0A7
:100FC0004FF0010980F84590022580F8445044F222
:100FD000F45C4FF000485F1E816216E00220BDE81D
:100FE000F08301EB4415C5F80080C4EBC41606EB92
:100FF000460602EB8606C5E901C6BC4203D205F1EE
:101000002006EE6000E0E960641C9C42E9D30268BF
:1010100002F58052D16080F84490002180F845109C
:101020000846DCE72DE9F04390F845400025012C07
:101030000BD04FF0010C80F845C0022480F84440EA
:101040004FF480195F1EC1621BE00220BDE8F083EF
:1010500001EB4514C4F80090C5EBC51606EB460637
:1010600002EB8606A660C6691EB9266846F44006ED
:101070002660BD4203D204F12006E66000E0E16094
:101080006D1C9D42E4D3026802F58052116180F824
:1010900044C0002180F845100846D7E710B590F805
:1010A0004510012913D0012380F84530022180F832
:1010B0004410816A0A680024002A27DB0A68D205E6
:1010C00018D5826B521C8263012A02D002E00220F2
:1010D00010BD016341630A68C2F30D42121FC2636F
:1010E000026B92680264C96840F8281F037744774E
:1010F000002010BD0A68920503D58363C0E90C1473
:1011000002E0826B521C8263C968816200F8443F2E
:101110004470012010BD00002DE9FC414FF0000695
:1011200004000096B046019603D094F8440018B12C
:1011300007E00120BDE8FC8184F84560204600F00E
:10114000C5F85848016841F480410160006800F426
:10115000804001905448016821F400010160016859
:10116000226A11430160206800F58050016841F057
:1011700001010160226802F580500168C907FCD1B5
:10118000106920F01C0500F01DFD4849484A014443
:10119000914202D245F0080516E04649464A01440C
:1011A000914202D245F00C050EE04449444A014404
:1011B000914209D3434908444349884202D245F049
:1011C000040501E045F0100520680561606801270D
:1011D00080B300F013FB42F2107501906A460121C2
:1011E000204600F0DBF800F009FB0199401AA84204
:1011F00017D800984007F1D54FF4805200212046BF
:1012000000F0D5F980BB00F0F9FA01906A4601219F
:10121000204600F0C3F800F0F1FA0199401AA84204
:1012200009D901212046FFF72DFD04F8447F032052
:1012300066707FE719E000988006E7D56A461F21AF
:10124000204600F0ABF878B90098C10603D54FF4FA
:101250000061E16000E0E660400701D5A66019E0AA
:101260004FF48040A06015E00AE0E068A168C00883
:1012700040EA510082B20021204600F098F930B1D6
:1012800001212046FFF7FEFC84F8447051E7FF205F
:10129000FFF784FE41462046FFF7F4FC84F84470D3
:1012A000002047E7443802400438014000D3CEFE16
:1012B000C0E1E40040F1E9FD40787D0100796CFC7B
:1012C000005A6202001F0AFA80F0FA022F4800B5A5
:1012D000026887B0002142F000720260026802F0EA
:1012E00000720592026842F080620260026802F0B9
:1012F00080620592026842F000620260026802F0B9
:1013000000620592026842F001020260026802F087
:1013100001020592026842F002020260026802F0D5
:1013200002020592026842F004020260026802F0C2
:1013300004020592026842F040020260006800F078
:1013400040000590862000900220CDE90101032095
:1013500003900B20049069460D4800F063F94FF4A8
:101360006050009069460B4800F05CF93220009014
:101370006946094800F056F9022201213D2000F09B
:10138000EBFA3D2000F0DDFA07B000BD3038024036
:101390000000024000040240000802402DE9F8432A
:1013A00000260446009690F84400914682281DD0FD
:1013B000822084F84400206802694FF6FF7502F02D
:1013C0001C03228A05EAC2221A434FF4F86303EA97
:1013D0008111114321F0020141F00105056100F086
:1013E0000DFA01274FF4803800900FE00220BDE88D
:1013F000F88300F003FA0099401A404504D304F83A
:10140000447F03206670F2E720680569E807F0D1A1
:101410002068406981B2C9F8001084F84470002047
:10142000E5E7F8B5044690F84500012839D00125D4
:1014300084F84550022084F84400206800260168A2
:1014400041F0080101602068006800902846FFF71D
:10145000A5FD2168009808602068016841F004013A
:1014600001602068006800900120FFF797FD216867
:10147000009808602046FFF7C8FB206800F5805000
:10148000816941F400518161206800F580508169D3
:1014900041F00201816184F8445084F845600020E5
:1014A000F8BD0220F8BDF0B590F845300022012BC0
:1014B00011D0012780F84570022380F844300025C0
:1014C00059B1C46A2368002B0ADA122100F8441FBC
:1014D00045700120F0BD0220F0BD00F8447FF7E721
:1014E00040F2F456B1420BD9B1FBF6FCB1FBF6F376
:1014F00006FB1C1CBCF1000F00D05B1C012B43D170
:10150000226842F040522260C26AC1F30C0151606D
:10151000C16A0A6842F000420A60C16AC968C162D1
:1015200034E0D4F800C02CF0405CC4F800C032B9FC
:10153000C46AD4F800C04CF0805CC4F800C0C46A2F
:1015400066605C1EA24214D1C46AD4F800C04CF09C
:10155000005CC4F800C0C3F10104C4EBC41404EB84
:101560004404D0F82CC001EB8404C4F30C04CCF880
:101570000440C46AD4F800C04CF0004CC4F800C069
:10158000C46A521CE468C4629A42CAD3016801F575
:1015900080514A69520705D504224A61016801F564
:1015A00080514D6000F8447F45700020F0BD2DE96A
:1015B000F041044690F8440042281ED0422084F8AE
:1015C0004400206803694FF6FF7603F01C05238A68
:1015D00006EAC3232B434FF4F86505EA811119434A
:1015E00041F0030591B241612068056100F006F900
:1015F000064601274FF480380FE00220BDE8F08155
:1016000000F0FCF8801B404505D304F8447F00201F
:1016100060700320F2E720680569E807F0D184F8DC
:101620004470EBE72DE9F84FDFF89491002209F1BF
:10163000040A0AF1040B4FF00F080BF1040E012607
:101640000B6896403340B34271D14C68022C01D0F4
:10165000122C11D1D40800EB84073D6A5407E40E24
:1016600008FA04FC25EA0C05D1F810C00CFA04FCB9
:101670004CEA050CC7F820C007685400032591F810
:1016800004C0A5400CF0030CAF430CFA04FC4CEA78
:10169000070CC0F800C04F68012F05D0022F03D0FF
:1016A000112F01D0122F11D18768D1F80CC0AF4390
:1016B0000CFA04FC4CEA070CC0F808C04768B743B2
:1016C0000E79C6F3001696403E434660C668AE43A8
:1016D0008D68A5403543C5604C68E4006AD5394C37
:1016E000256845F480452560246822F0030504F44C
:1016F00080440094344C2544D5F808789407260F8C
:1017000008FA06F4A743314CA04201D1002429E095
:101710002F4CA04201D1012424E02E4CA04201D143
:1017200002241FE02C4CA04202D103241AE041E025
:101730002A4CA04201D1042414E0294CA04201D13A
:1017400005240FE0274CA04201D106240AE0264CD4
:10175000A04201D1072405E0244CA04201D1082475
:1017600000E00924B4403C43C5F80848D9F80040DB
:101770004D464E689C43F60300D51C432C60DAF8B6
:10178000004055464E689C43B60300D51C432C6070
:10179000DBF800405D464E689C43F60200D51C43D2
:1017A0002C60DEF8004075464E689C43B60200D5BA
:1017B0001C432C60521C102AFFF441AFBDE8F88F87
:1017C000003C01404438024000300140000002402B
:1017D0000004024000080240000C024000100240D9
:1017E0000014024000180240001C02400020024089
:1017F0000AB1816170470904FBE7000001480068F5
:10180000704700001400002010B5040002D0607B77
:1018100010B106E0012010BD00202073204600F02A
:1018200018F802206073216845F25550086020685E
:101830004168626821F007011143416020688168B6
:10184000A2686FF30B0111438160012060730020D7
:1018500010BD70472DE9F0410446007B01280AD0F5
:101860000126267302206073FFF7C8FF0546002794
:101870004FF47A780BE00220BDE8F081FFF7BEFF5D
:10188000401B404503D9032060732773F4E72068A9
:10189000C068C0438007F1D521684AF6AA200860D5
:1018A000667327730020E7E7017B01290FD0012130
:1018B0000222427303684CF6CC421A6003684AF66F
:1018C000AA221A6041730021017308467047022062
:1018D0007047000002480168491C01607047000021
:1018E000140000200B4810B5016841F4007101603C
:1018F000016841F480610160016841F48071016018
:10190000052000F049F80F2000F006F800F015F867
:10191000002010BD003C024010B5044600F052F912
:101920004FF47A71B0FBF1F000F023FD0022214664
:10193000501E00F011F8002010BD08B500200090E6
:1019400008BD00F01F02012191404009800000F114
:10195000E020C0F800117047F0B40E4B1B68C3F3D1
:101960000223C3F10704042C00D904241D1D072DF4
:1019700001D2002300E0DB1E012606FA04F56D1EED
:101980000D409D409E40761E164045EA0601F0BC83
:1019900001F06EB90CED00E0064A00F00701106896
:1019A0004FF6FF03184040EA012003490843106046
:1019B000704700000CED00E00000FA052DE9F05F33
:1019C000DFF8F8A104460F46DAF80000DFF8F081EE
:1019D00000F00F02C8B27A49814641F2883608F118
:1019E0000808BA4261D202468AF80020DAF80000FC
:1019F00000F00F00B8427DD12078800707D5D8F8D5
:101A00000020A36822F0F0021A43C8F800202078D2
:101A1000C0072DD0606801281AD002281BD00328E7
:101A200019D009688907002964DAD8F800104746F8
:101A300021F003010143C8F80010FFF7DFFE05465F
:101A4000606801280FD0022818D003281CD027E096
:101A500009688903E7E709688901E4E7FFF7CEFE33
:101A6000401BB04258D83868C0F381000128F5D136
:101A700088E0FFF7C3FE401BB0424DD83868C0F382
:101A800081000228F5D17DE03868FFF7B7FE401BE2
:101A9000B042F9D940E0FFF7B1FE401BB0423BD85D
:101AA000386810F00C0FF6D16CE02078800707D56D
:101AB000D8F80020A36822F0F0021A43C8F80020EA
:101AC0002078C0074CD06068012828D0022829D08F
:101AD000032827D009688907002949DAD8F80020A7
:101AE00022F003020243C8F80020FFF787FE0546F4
:101AF000606800E03CE001281DD0022829D00328BE
:101B000038D0B3464646306810F00C0F28D0FFF7A7
:101B100075FE411B5945F6D90320BDE8F09F0968C1
:101B20008903D9E709688901D6E7FFF767FE411BFA
:101B3000594502D9F0E7B34646463068C0F3810004
:101B40000128F2D10CE0FFF759FE411B594502D99B
:101B5000E2E7B34646463068C0F381000228F2D17E
:101B60008AF80090DAF8000000F00F00B84209D0BF
:101B70000120D2E744462068FFF740FE401BB042F8
:101B8000F9D9C9E72078400707D5D8F80010E268EE
:101B900021F4E0511143C8F800102078000708D55F
:101BA000D8F80010226921F4604141EAC201C8F866
:101BB00000100F20FFF7B0FE0020AEE7003C02400F
:101BC0000038024010B500F017F808490968F02203
:101BD00092FAA2F201F0F001B2FA82F2D140044A84
:101BE000515CC8400349086010BD0000083802403D
:101BF00064A600080000002030B51948006810F005
:101C00000C01184812D0184C04290ED008290DD107
:101C1000134A121F1168136801F03F015D0247F675
:101C2000C07304D5B4FBF1F003E0204630BDB0FB37
:101C3000F1F01168194093FAA3F3B3FA83F3D94092
:101C4000484311684FF4403292FAA2F201F4403155
:101C5000B2FA82F2D140491C4900B0FBF1F030BD2C
:101C6000083802400024F40040787D012DE9F84F47
:101C700004460078DFF8FCA2BF4DC0074FF0000615
:101C800048D0DAF800105046C1F38101012908D08C
:101C90000068C0F3810002280AD1281D00684002B4
:101CA00006D52868800335D56068002873D031E0F8
:101CB000DFF8C49209F1020989F80060FFF79EFD80
:101CC000074641F2883804E0FFF798FDC11B414503
:101CD0007AD828688003F7D4207989F800006068F2
:101CE00060B1FFF78BFD074604E0FFF787FDC11BDE
:101CF0004145EDD828688003F7D50BE0FFF77EFD5E
:101D0000074604E0FFF77AFDC11B4145E0D828688B
:101D10008003F7D42078DFF86492800744D5DAF89E
:101D20000010504611F00C0F4FF0F80809D0006871
:101D3000C0F3810002280BD18E48001F00684002CA
:101D400006D42868800714D5E068012823D110E064
:101D5000E068D0B10120C9F80000FFF74FFD074649
:101D600004E0FFF74BFDC01B6428B1D8286880074A
:101D7000F7D5286898FAA8F22169B2FA82F220F021
:101D8000F8009140084328600EE0C9F80060FFF7B2
:101D900035FD074605E0EAE0FFF730FDC01B64288B
:101DA00012D828688007F7D42078000725D5DFF8F7
:101DB000C4817348616908F16C0881B10121016037
:101DC000FFF71CFD074605E07EE0FFF717FDC01B8F
:101DD000642879D8D8F800008007F6D50DE00660B1
:101DE000FFF70CFD074604E0FFF708FDC01B642861
:101DF0006AD8D8F800008007F6D42078400753D579
:101E00005C483830016841F0805101600068DFF8BB
:101E1000748100F080500090D8F8001041F4807177
:101E2000C8F80010FFF7EAFC074604E0FFF7E6FCFD
:101E3000C01B642848D8D8F80000C005F6D5DFF8E4
:101E400034B10BF1680B8BF80060FFF7D7FC074645
:101E500041F2883804E0FFF7D1FCC11B41457ED830
:101E6000DBF800008007F6D4207A8BF80000A06829
:101E700068B1FFF7C3FC074604E0FFF7BFFCC11BD6
:101E800041456CD8DBF800008007F6D50CE0FFF781
:101E9000B5FC074604E0FFF7B1FCC11B41455ED825
:101EA000DBF800008007F6D4A069E8B3DAF8001088
:101EB000C1F3810102295AD0022806D0C9F8606016
:101EC000FFF79CFC04464DE049E04F46C9F86060CE
:101ED000FFF794FC064604E0FFF790FC801B6428A3
:101EE0003DD828688001F7D4D4E90701084347F6B4
:101EF000C07191FAA1F1626AB1FA81F18A40A16AD6
:101F00004FF0FF3303EB51014FF4403393FAA3F347
:101F1000B3FA83F399400A4310434FF0706292FA88
:101F2000A2F2B2FA82F200E01FE0E16A91400843B7
:101F30001049091F086001203866FFF75FFC04465E
:101F400004E0FFF75BFC001B642808D828688001C8
:101F5000F7D50AE0FFF752FC001B642802D90320E2
:101F6000BDE8F88F28688001F4D40020F8E701204C
:101F7000F6E70000083802400038024000004742FF
:101F8000800E47420070004070B5040004D094F801
:101F90005100002510B106E0012070BD84F85050BA
:101FA000204600F033F8022084F8510020680168D0
:101FB00021F040010160D4E901010843D4E9031292
:101FC0001143084361690843218B01F40071084300
:101FD000E1690843216A0843A16A0843216808604F
:101FE000A069042101EA1040616A08432168486041
:101FF0002168E06A08612068C16921F40061C1615B
:102000006565012084F85100002070BD70B5254839
:1020100086B0016841F002010160016801F002012F
:102020000591016841F020010160016801F0200183
:102030000591016841F004010160016801F00401AB
:102040000591184910310A6842F400420A600A6892
:1020500002F4004205920A6842F480420A6009686C
:1020600001F480410591016841F4001101600068AC
:10207000022400F4001005900C2001268DE8510088
:10208000052569460848CDE90345FFF7CBFA60020C
:102090008DE8510069460548CDE90345FFF7C2FACE
:1020A00006B070BD30380240000802400004024013
:1020B0002DE9F843044690F85100DDF8208001280E
:1020C00001D022287ED169B162B15BB194F8500091
:1020D000012877D0012784F8507094F85100012826
:1020E00003D005E00120BDE8F883322084F85100D8
:1020F00000266665A263A387E3872163A386E38640
:10210000A664E664A06A4FF40055A84209D120688D
:10211000016821F4005101602068016841F4005118
:10212000016020680168490603D4016841F040015C
:102130000160E0684FF48271B0F5006F606807D00D
:10214000002867D088426ED1E08E012862D06AE014
:1021500020B188420CD1E08E012809D1206B216882
:102160000088C860206B801C2063E08E401EE086E3
:10217000E08E80B9A06AA84244D12068016841F489
:10218000805101603EE02068C068A16B0880A06BB0
:10219000801CA0639EE0434600220221204600F0FE
:1021A00031FE002874D1206B21680088C860206B44
:1021B000801C2063E08E401E0004000CE08609D1E4
:1021C000A06A00E0C7E0A84204D12068016841F499
:1021D00080510160434600220121204600F012FE9A
:1021E00000286FD12068C068A16B0880A06B801C9C
:1021F000A063E08F401EE087E08E0028CBD16068AE
:1022000000286AD1434600220121204600F0FAFD51
:10221000F0BBB8E7206B411C216321680078C860DF
:10222000E08E401EE086E08E98B9A06AA84204D1F4
:102230002068016841F48051016043460022012179
:10224000204600F0DFFD18BB2068C068A16B087055
:1022500040E0434600220221204600F0D3FDB8B9F9
:10226000206B411C216321680078C860E08E401E0D
:102270000004000CE08607D1A06AA84204D12068BF
:10228000016841F48051016000224346012100E0D1
:1022900018E0204600F0B6FDA0B92068C168A06B28
:1022A000421CA2630170E08F401EE087E08E002890
:1022B000CFD1606888B9434600220121204600F052
:1022C000A1FD08B103200EE72068C168A06B421C85
:1022D000A2630170E08F401EE087A06AA84210D17F
:1022E000434600220121204600F08CFD18B1606DAC
:1022F00040F002000FE02068C068ADF80000BDF8B3
:102300000000434601228021204600F07BFD20B1E1
:10231000606D40F020006065D4E784F8517020685B
:102320008168A26AC1F30011AA4210D179B1616D2E
:1023300041F002016165016821F4005101602068EB
:10234000016841F40051016084F85060CAE684F8E5
:1023500050600020C7E60220C5E64FF0E0210428C7
:10236000086903D020F004000861704740F00400C1
:10237000FAE710B5401EB0F1807F01D3012010BDF7
:102380004FF0E02460610F21601700F071FC002025
:10239000A06107202061002010BD7047704710B574
:1023A000040003D094F8390010B107E0012010BDFB
:1023B000002084F83800204600F00CF8022084F851
:1023C0003900211D206800F0BDFE012084F839008D
:1023D000002010BD38B5054600681549154C8842E7
:1023E0000FD1206840F0020020602068032200F036
:1023F0000200009001211D20FFF7AEFA1D20FFF71B
:10240000A0FA0D492868884211D1206840F00400E4
:1024100020602068052200F00400009001211E20A9
:10242000FFF79AFABDE838401E20FFF78ABA38BD98
:102430000004004040380240000800400168CA68BB
:1024400042F00102CA600068016841F001010160C8
:1024500000207047704770B50446006801694FF06E
:102460000005C943890715D4C168C943890711D438
:10247000E91E0161012020762068806980072046DE
:1024800002D0FFF7E7FF04E000F098F8204600F0E4
:1024900041F9257620680169C943490717D4C16805
:1024A000C943490713D46FF004010161022020766B
:1024B0002068806910F4407F204602D0FFF7CAFFF1
:1024C00004E000F07BF8204600F024F9257620682F
:1024D0000169C943090716D4C168C943090712D461
:1024E0006FF008010161042020762068C069800730
:1024F000204602D0FFF7AEFF04E000F05FF8204670
:1025000000F008F9257620680169C943C90617D487
:10251000C168C943C90613D46FF0100101610820D6
:1025200020762068C06910F4407F204602D0FFF773
:1025300091FF04E000F042F8204600F0EBF8257629
:1025400020680169C943C90708D1C168C943C907DF
:1025500004D1891E0161204600F0FAF82068016963
:10256000C943090609D4C168C943090605D46FF0F7
:10257000800101612046FFF710FF20680169C9430F
:10258000490609D4C168C943490605D46FF0400122
:102590000161204600F0F8F820680169C943890606
:1025A0000BD4C168C943890607D46FF020010161CB
:1025B0002046BDE87040FFF7F1BE70BD704770B5B2
:1025C000044690F838000D4601280DD0012684F805
:1025D0003860022084F8390042B1042A18D0082A51
:1025E0002AD00C2A4DD139E0022070BD206800F0BD
:1025F00015FE2068816941F00801816120688169C8
:1026000021F004018161206881692A69114311E088
:10261000206800F02FFE2068816941F4006181612B
:102620002068816921F480618161206881692A695B
:1026300041EA0221816124E0206800F04DFE20681B
:10264000C16941F00801C1612068C16921F004013C
:10265000C1612068C1692A69114311E0206800F056
:102660006BFE2068C16941F40061C1612068C169E5
:1026700021F48061C1612068C1692A6941EA0221AF
:10268000C16184F83960002084F8380070BD10B54D
:10269000040003D094F8390010B107E0012010BD08
:1026A000002084F83800204600F00CF8022084F85E
:1026B0003900211D206800F045FD012084F8390013
:1026C000002010BD114800B5016887B041F001013C
:1026D0000160006800F0010005900C4810380168A6
:1026E00041F0010101600068022100F00100059045
:1026F0000120CDE900010321CDE9020104906946E2
:102700000348FEF78FFF07B000BD000040380240CD
:10271000000002407047000010B504460068012226
:1027200000F070FD08482168814202D007488142CC
:1027300003D1486C40F4004048642068016841F0CF
:1027400001010160002010BD0000014000040140B3
:102750000949884207D109490A680A320A60084AC9
:102760001188491C118004493C31884203D1054835
:102770000188491C01807047140300209400002048
:10278000A4000020B00000207047704790F8390086
:10279000704738B5016804460868CA68C0F300008D
:1027A00002F4807238B132B1086848680090E06B7A
:1027B00040F00100E06308684A69C0F3400002F09D
:1027C000010238B132B1086848680090E06B40F00F
:1027D0000400E06308684A69C0F3800002F0010267
:1027E00038B132B1086848680090E06B40F00200F0
:1027F000E06308684A69C0F3C00002F0010238B122
:1028000032B1086848680090E06B40F00800E0636F
:102810000868C968C0F3401001F0200118B111B177
:10282000204600F0B7FD20680168C068C1F3C01100
:1028300000F0800019B110B1204600F0FEFD2168C3
:102840000868CA68C0F3801002F04002012568B130
:1028500062B1CA68204622F04002CA6094F839107A
:1028600032290CD080F8395000F06EF8E06B002867
:1028700004D084F839502046FFF787FF38BD222165
:1028800080F83910F0E790F83930012B01D0122B85
:102890002BD131B32AB390F83830012B25D0012346
:1028A00080F8383081628285C2850022C26390F848
:1028B0003910122917D0222180F839100168CB680D
:1028C00043F48073CB6001684B6943F001034B61B3
:1028D00080F838200068C16841F02001C160002004
:1028E0007047012070473221E6E702207047000060
:1028F00030B50068114988420CD1114A5088010452
:1029000008D41146440409784FF0000306D50A297B
:1029100001D0538030BD40F400400DE00D2909D0B6
:10292000C0F30D04074D401C80B229555080C728C4
:10293000EFD830BD40F48040508030BD00100140E1
:102940001C000020C40100207047FEE70E4810B5AF
:10295000016886B041F0080101600068012400F0C0
:10296000080005904FF44070CDE900040220029069
:10297000039069460548FEF755FE0548C0F8A44295
:10298000C0F8A04206B010BD30380240000C024032
:10299000008041422DE9F04105461448016821F4C8
:1029A00040210160016841F480210160104E002740
:1029B000C6F8A0723C464FF00108E809C6F8A40228
:1029C0006806050E022000F0B1FEC6F8A0820220C3
:1029D00000F0ACFEC6F8A072012000F0A7FE641C57
:1029E000E4B2082CE9D3BDE8F0810000000C0240FD
:1029F0000080414270B50D48016821F4402101601A
:102A0000016841F480210160094C0120C4F8A4024E
:102A1000C4F8A002042004F5287400F087FE002505
:102A20006560042000F082FE256070BD000C02404D
:102A3000008041420E4810B5016821F44021016038
:102A4000016841F4802101600A4C0020C4F8A00212
:102A5000C4F8A402042004F5287400F067FE0120E5
:102A600020606060BDE81040042000F05FBE000000
:102A7000000C02400080414270B5124800240168F9
:102A800021F440210160016801600F4D0126C5F865
:102A9000A462022000F04AFEC5F8A062022000F005
:102AA00045FE07E0641CE4B2FA2C03D9FFF7C2FF2D
:102AB000012070BDD5F824020028F3D1C5F8A0028A
:102AC00070BD0000000C0240008041420148FEF74A
:102AD000C1BE0000B4010020074A10B5054B1360C9
:102AE000C2E901011046FEF78FFEBDE81040024822
:102AF000FEF7DABE00300040B401002010B50A2114
:102B00000420FDF764FD04490020C1F8B802034920
:102B1000C1F8800210BD0000008040420000404229
:102B200010B500210420FDF752FD04490120C1F831
:102B3000B8020349C1F8800210BD00000080404285
:102B40000000404230B5364889B00024016841F0A9
:102B500000710160016801F000710791016841F0A6
:102B600080610160016801F080610791016841F0B6
:102B700000610160016801F000610791016841F0A6
:102B8000010101600068274D00F00100079040201E
:102B900002901120CDE903040320059002A92846E4
:102BA000FEF740FDFDF7FBFA002240212846FEF724
:102BB0001FFE642000F0ACFD012240212846FEF7F4
:102BC00017FE642000F0A4FDFDF7EBFA164801782B
:102BD0008DF8001041788DF8011081788DF8021081
:102BE000C1788DF8031001798DF8041040798DF8C3
:102BF00005000F480D49016001218A03C0E9011257
:102C0000CA02C26004826A46C0E90521C905C0E95A
:102C10000741FEF781FA002800D0012009B030BD3D
:102C20003038024000000240E0AE01200080024047
:102C3000CC0200200B4800B5016887B041F01001BC
:102C400001600068022100F010000590042000904F
:102C50000120CDE90101039069460348FEF7E2FC3B
:102C600007B000BD3038024000100240FEE7704758
:102C70000907090E002806DA00F00F0000F1E02035
:102C800080F8141D704700F1E02080F800147047B0
:102C9000704700002DE9F04389B01C2101A8FDF721
:102CA000B0FA2C4EF078FF2801D2401C00E0002042
:102CB000294DF070A020287067206870C02085F82A
:102CC00068000120A870DFF88C80F078E87000249C
:102CD0000DF104094FF4966708F10408002120461D
:102CE000FDF7FCFA1B491C2301AA08311B48009779
:102CF000FFF7DEF99DF805009DF80610000140EA97
:102D0000111008F8040004EB440005EBC000182281
:102D100009F104010830FDF75BFA01212046FDF7B7
:102D2000DDFA641CE4B2042CD8D30B4871680A386D
:102D3000C0F80E100A3003F00DFA09490028087097
:102D400004D00848017841F08001017009B0BDE865
:102D5000F083000030000020EE030020C4040020B7
:102D6000180100209800002010B5104C0E480121D9
:102D700020604FF4827060600020A060E060C4E9D1
:102D800004014902A1613821C4E907106062A06210
:102D90000720E0622046FFF7F7F82068016841F05D
:102DA0004001016010BD000000380040C404002054
:102DB00001B582B04FF47A700090012301AA02A9F4
:102DC0000248FFF775F99DF804000EBDC404002009
:102DD0000B4A10B511680B6823F040030B601168B3
:102DE0000B684FF6C77423400B6011680B680343F0
:102DF0000B601068016841F04001016010BD0000E7
:102E0000C40400202DE9F0471D4690460F460446B5
:102E1000FEF7F4FC06465FEA08004FF000084FF4A6
:102E2000005A4FF0010926D034E0681C23D025B1A8
:102E3000FEF7E4FC801BA8421DD92068416821F000
:102E4000E00141602068016821F040010160A06A52
:102E5000504509D12068016821F4005101602068C3
:102E6000016841F40051016084F8519084F8508069
:102E70000320BDE8F0872068806837EA0000D4D1DD
:102E80000DE0681C06D0002DD7D0FEF7B7FC801BE4
:102E9000A842D2D82068806837EA0000F1D000202C
:102EA000E7E7704710B5044640F0F002012100202A
:102EB000FDF7A8FB44F0D004012122460846FDF7A7
:102EC000A1FB224601210220FDF79CFB22460121A5
:102ED000BDE810400320FDF795BB000070B51C4C09
:102EE00092B00025266846F080562660246804F0DB
:102EF00080541194174C266846F480462660246856
:102F00000DF1240C04F480441194012400940194E4
:102F1000022406948CE80D006605CDE90761684639
:102F2000FEF7A4FE00B1FEE70CA90F2081E83100F6
:102F30004FF4A0500F904FF48050109005210CA832
:102F4000FEF73CFD002800D0FEE712B070BD000087
:102F50004038024000700040FEF7BCBC10480168D9
:102F600041F4700101600F48016841F00101016006
:102F70000C4A00210832116002680B4B1A400260B3
:102F8000031D0A4A1A60026822F480220260054882
:102F90000C30016002495806803908607047000013
:102FA00088ED00E000380240FFFFF6FE10300024FC
:102FB0001E4810B5016886B041F00201016000684A
:102FC000012400F0020005904FF40040CDE9000418
:102FD0000220CDE9024069461548FEF723FB15485B
:102FE000C0F8BC420A2000F0A1FBFFF703FD462019
:102FF000FFF7D0FCFFF740FD0F4C2070FFF71AFDE4
:1030000000228821232000F019F800228C2123209F
:1030100000F014F84FF400728421232000F00EF821
:103020002078002800D0012006B010BD30380240C2
:1030300000040240008040426F0000202DE9F04172
:1030400088460646D5B2C2F30724C2F30747FFF706
:10305000D1FC7006000EFFF79DFCFFF70DFD40460A
:10306000FFF798FCFFF708FD2846FFF793FCFFF7F2
:1030700003FD2046FFF78EFCFFF7FEFC3846FFF706
:1030800089FCFFF7F9FCBDE8F041FFF7D3BC000075
:1030900010B50F4A04464FF08040C2E900010020FD
:1030A000C2E9020410611046FFF7F1FA08496020F6
:1030B0003C310022C1E90004022088600448FFF787
:1030C0007EFABDE8104000210148FFF725BB000053
:1030D0008C0300200148FFF7BEB900001403002054
:1030E000094A10B5074BC2E900310021C2E90210BC
:1030F00010461161FFF753F9BDE810400248FFF791
:103100009DB9000000040040140300200148FFF7AF
:10311000A2B9000050030020094A10B5074BC2E9CC
:1031200000310021C2E9021010461161FFF737F9A2
:10313000BDE810400248FFF781B9000000080040D8
:1031400050030020F0B50268234D244E244FDFF8D1
:1031500094C0254B4FF0804EA84209D0704507D04F
:10316000B04205D0B84203D0604501D0984203D1A7
:1031700022F070044A682243A8421BD0704519D03F
:10318000B04217D0B84215D0604513D0984211D044
:10319000164CA0420ED0164CA0420BD0154CA042AB
:1031A00008D0154CA04205D0144CA04202D0144CBB
:1031B000A04203D122F44074CA68224302608A68A4
:1031C000C2620A688262A84201D0984201D10969AC
:1031D000016301214161F0BD000001400004004095
:1031E00000080040000C0040000401400040014085
:1031F000004401400048014000180040001C00400D
:103200000020004010B50123046A8B409C430462F7
:10321000036A8A401343036210BD000030B5026A9E
:1032200022F001020262056A426883690C6823F099
:1032300073031C438B6825F002052B430B4DA842FA
:1032400002D00B4DA8420BD123F00805CB6822F425
:1032500040722B434D6923F0040315438A692A43C6
:103260004260846149684163036230BD00000140EF
:103270000004014030B5026A22F010020262036AC3
:10328000426884690D6824F4E64444EA05248D68A4
:1032900023F0200343EA05130D4DA84202D00D4D43
:1032A000A8420ED1CD6823F0800343EA05134D698F
:1032B00022F4406242EA85028D6923F0400342EA2B
:1032C00085024260846149688163036230BD000009
:1032D000000001400004014030B5026A22F480720F
:1032E0000262036A4268C46923F4007324F0730520
:1032F0000C682C438D6843EA05230D4DA84202D08B
:103300000C4DA8420ED1CD6823F4006343EA052397
:103310004D6922F4405242EA05128D6923F480631C
:1033200042EA05124260C4614968C163036230BD6C
:10333000000001400004014030B5026A22F48052CE
:103340000262036A4268C4690D6824F4E64444EAF0
:1033500005248D6823F4005343EA0533084DA84241
:1033600002D0084DA84204D14D6922F4804242EABD
:1033700085124260C46149680164036230BD000087
:1033800000000140000401404FF08041C0F57A7018
:103390004863704710B590F83910222903D03229BC
:1033A00001D0022010BD8168B1F5805F11D00169A4
:1033B000002901681FD0496801F07F03816A4A1C17
:1033C00082620B70C18D491E0904090CC18518D099
:1033D0002FE00269816A002A0268526805D0D2B2E1
:1033E0000A80816A491C8162ECE7C2F308020A8004
:1033F000816A891CF7E74A68816A4B1C83620A70FC
:10340000E0E70168CA6822F02002CA6090F839102B
:10341000322910D00168CA6822F48072CA6001683B
:103420004A6922F001024A61012180F83910FFF750
:103430005FFA002010BD1221F7E790F83910122929
:1034400003D0322901D0022070478168B1F5805F36
:10345000016A0BD04A1C0262026809785160C18C73
:10346000491E0904090CC1840ED017E009880268BE
:10347000C1F30801516001690029016A02D0491CA9
:103480000162ECE7891CFBE70168CA6822F0800250
:10349000CA600068C16841F04001C1600020704707
:1034A00070B500240C4D0D48FFF773F902E0641C61
:1034B000AC4204D80948FFF769F90128F7D1002484
:1034C00002E0641CAC4206D8012205490348FFF71C
:1034D000DAF90028F5D170BDFFFF01008C02002051
:1034E0001C000020FEE700000FB4054B10B503A937
:1034F000044A029800F018F810BC5DF814FB0000B4
:10350000D3440008B001002002E008C8121F08C11F
:10351000002AFAD170477047002001E001C1121F54
:10352000002AFBD1704700002DE9FF4F8BB09A466F
:103530000F460546002606E025280BD052460D9979
:1035400090476D1C761C28780028F5D10FB03046C6
:10355000BDE8F08F0024A0460122604900E004434A
:1035600015F8013F203B02FA03F00842F7D1287812
:103570002E2817D115F8010F44F004042A280ED084
:103580006FF02F022878A0F1300109290AD808EB42
:10359000880102EB410100EB01086D1CF2E757F8CE
:1035A000048B6D1C287869283ED006DC0028CDD01D
:1035B00063280BD0642804D136E0732810D0752816
:1035C0004BD052460D999047761C85E017F8040BB6
:1035D0008DF8000000208DF80100E946012003E08D
:1035E00057F8049B4FF0FF3061074FF0000401D4FF
:1035F0000AE0641C44450DDA8442FADB19F8041031
:103600000029F6D106E0641C8442FCDB19F80410A2
:103610000029F8D1264404E019F8010B52460D990F
:103620009047641EF8D257E001CF4FF00A0B0028F4
:1036300002DA40422D2102E0210504D52B218DF82C
:103640002410012103E0E10705D02021F7E70DF167
:10365000200908910CE00021F9E701CF4FF00A0B97
:10366000F9E75946FCF7E5FD01F1300209F8012DB3
:103670000028F6D1ADEB090000F1200B600701D462
:103680004FF00108D84502DDA8EB0B0000E0002058
:103690008046002406E009A85246005D0D99904737
:1036A000641C761C08988442F5DB04E03020524606
:1036B0000D999047761CB8F10001A8F10108F5DCDE
:1036C00005E019F8010B52460D999047761CBBF1A5
:1036D0000001ABF1010BF4DC6D1C34E7092801009B
:1036E00010B500F05DFDBDE810400022024941F236
:1036F000883003F0BFBD0000E136000810B5044675
:103700000420FEF72AFE0148046010BD18000020C6
:1037100070B5054600244FF47A7603E0304600F099
:1037200005F8641CAC42F9D370BD000070B54FF0D1
:10373000E02500216C69094AAB6912685043AA6907
:103740009A42FCD002D2A3EB020302E0A4EB0206F1
:103750003344194413468142F1D370BD1800002050
:103760002DE9F84F90468946050010D0B8F80A00B8
:103770002A2866D3D8F804604FF4807A344634F8A7
:103780000E0F50455DD1207906285AD108E02FA3AD
:1037900040F2BB2237A13BA0FFF7A6FEBDE8F88FA1
:1037A000607904284DD1608808284AD1D4F80E00E9
:1037B0000090A169281D05D0686818B1814201D127
:1037C000012700E000270FB1012300E0022304F1EC
:1037D00008026946284600F007FDE088504530D1D0
:1037E000002F2ED0022002F0E1F8E080D4F80E0085
:1037F000A0616868C4F80E0095F82200062806D07B
:1038000012A340F211322A491EA0FFF76DFEA068F4
:10381000C4F81200A089E082A0683060A089B0805E
:10382000D9F80010A160B9F80400A081D9F80010FF
:10383000C6F80610B9F804007081AA694146284606
:103840009047404603F056F9A8E700002E2E5C4C46
:103850005749505C6C7769702D312E342E315C7372
:1038600072635C6E657469665C6574686172702E03
:10387000630000006E6574696620213D204E554C42
:103880004C000000417373657274696F6E202225CD
:103890007322206661696C6564206174206C696EB6
:1038A0006520256420696E2025730D0A0000000044
:1038B00024A700082DE9F34F80460A2085B0002494
:1038C00002900746A346A2460190A14600904C49AB
:1038D00004EB840001EB80060390B57C0A2F18D01E
:1038E000002D24D0012D08D0022D06D245A340F290
:1038F0002B124EA15DA0FFF7F7FDB8F1000F0CD021
:10390000D8F800007168884207D160B207B0BDE8FE
:10391000F08F002DE6D167B209E0012D15D0022D00
:1039200005D3F07C504502D361B282460191641CFC
:10393000E4B20A2CCBD3069881074FF0FF30E5D4D0
:103940000A2F15D017DAFCB23AE02D48039950F847
:1039500021000028F07C05D04845E8D361B28146BB
:103960000091E4E75845E2D361B283460291DEE775
:103970000699C907CAD001990A290EDACCB22048A3
:1039800004EB840150F8210070B11EA340F27112C3
:1039900041A136A0FFF7A8FD06E002990A2902DB43
:1039A00000990A29B2DACCB20A2C06D315A340F248
:1039B00083123FA12DA0FFF797FD204600F098F855
:1039C0000A2C06D30FA340F2871239A127A0FFF7D4
:1039D0008BFD0B4804EB840100EB8105A87C30B122
:1039E00008A34FF4C47237A120A0FFF77DFDB8F102
:1039F000000F02D0D8F8000068600020E87484E767
:103A000034B001202E2E5C4C5749505C6C776970A5
:103A10002D312E342E315C7372635C6E6574696671
:103A20005C6574686172702E630000007374617469
:103A300065203D3D204554484152505F5354415408
:103A4000455F50454E44494E47207C7C207374614D
:103A50007465203E3D204554484152505F535441C7
:103A600054455F535441424C450000004173736517
:103A70007274696F6E2022257322206661696C65FD
:103A800064206174206C696E6520256420696E2055
:103A900025730D0A000000006172705F7461626C32
:103AA000655B695D2E71203D3D204E554C4C0000FC
:103AB00069203C204152505F5441424C455F53497C
:103AC0005A4500006172705F7461626C655B695D8C
:103AD0002E7374617465203D3D2045544841525019
:103AE0005F53544154455F454D5054590000000008
:103AF00070B5074D00EB8004002655F8240018B17E
:103B000002F0F8FF45F8246005EB8400867470BD70
:103B100034B001202DE9FC4115460E46040006D1C3
:103B200045A340F275324EA151A0FFF7DDFC36B936
:103B300041A340F2763259A14DA0FFF7D5FC35B92B
:103B40003DA340F2773258A149A0FFF7CDFC0E21EA
:103B5000304603F07DF818B16FF00100BDE8FC813C
:103B60002146286800F0B8FE08B1534B3CE02868B5
:103B7000C0F303110E2922D0A168636800EA010294
:103B80000B409A420BD080B2A0F57E41A93906D0F5
:103B900014F10C0F2FD0E06868B304F10C05474B0B
:103BA000474A187800EB800102EB81018F7C022FDD
:103BB00024D32F6849688F4220D102462CE001208F
:103BC0008DF8000000208DF801005E208DF80200C5
:103BD00068786B4600F07F008DF80300A8788DF8B8
:103BE0000400E8788DF8050004F1230231462046F0
:103BF00000F086FAB2E76FF00300AFE7002000EBB9
:103C0000800102EB81018F7C022F0AD32F68496863
:103C10008F4206D1C2B21A703146204600F052F8E7
:103C20009CE7401C40B20A28E9DB32462946204680
:103C300000F0B6F892E700002E2E5C4C5749505C1D
:103C40006C7769702D312E342E315C7372635C6E2B
:103C5000657469665C6574686172702E630000004B
:103C60006E6574696620213D204E554C4C00000065
:103C7000417373657274696F6E202225732220660A
:103C800061696C6564206174206C696E65202564CF
:103C900020696E2025730D0A000000007120213D6F
:103CA000204E554C4C000000697061646472202104
:103CB0003D204E554C4C000098A6000819010020EC
:103CC00034B0012070B505460E46134802EB820160
:103CD00000EB8104A07C022806D210A34FF453729B
:103CE00018A124A0FFF700FCA07C022809D1E07CE9
:103CF000E42806D3211D284600F0F0F908B9032076
:103D0000A07404F10C0305F1230231462846BDE8F6
:103D1000704000F0F5B9000034B001202E2E5C4C4C
:103D20005749505C6C7769702D312E342E315C739D
:103D300072635C6E657469665C6574686172702E2E
:103D4000630000006172705F7461626C655B617238
:103D5000705F6964785D2E7374617465203E3D20E8
:103D60004554484152505F53544154455F53544168
:103D7000424C4500417373657274696F6E20222551
:103D80007322206661696C6564206174206C696EC1
:103D90006520256420696E2025730D0A000000004F
:103DA0002DE9F74F82B0884602984FF0FF3B233051
:103DB0000090086816465F46029900F08DFD0028C5
:103DC00029D1D8F80000C0F303110E2923D0B8F18F
:103DD000000F20D000281ED001214046FFF76AFDC9
:103DE00004001AD4DFF8DCA004EB84090AEB89058F
:103DF000A87C002814D0012814D0022809D232A3AC
:103E000040F219423AA144A0FFF76EFBA87C0128BA
:103E100008D03EB10DE06FF00D0005B0BDE8F08FA9
:103E20000120A8744146029800F058F90746002E78
:103E3000F3D0A87C02280AD3424805F10C0331468E
:103E40000470009A029800F05BF9074638E0D0460B
:103E5000012835D10025344640F23E47608921894A
:103E6000884207D1206828B117A33A4636A12AA074
:103E7000FFF73AFB207B012803D12468002CEDD109
:103E800075B121890022032002F06CFA050016D0DA
:103E9000314602F0B5FC40B1284602F02BFE0EE0A0
:103EA0003546304603F024F84DB158F82900444611
:103EB00008B102F01FFE44F82950002700E05F46D9
:103EC0003846AAE734B001202E2E5C4C5749505C8E
:103ED0006C7769702D312E342E315C7372635C6E99
:103EE000657469665C6574686172702E63000000B9
:103EF0006172705F7461626C655B695D2E73746181
:103F00007465203D3D2050454E44494E47206F7218
:103F100020535441424C4500417373657274696F7C
:103F20006E2022257322206661696C6564206174AD
:103F3000206C696E6520256420696E2025730D0A4A
:103F400000000000190100206E6F207061636B6536
:103F5000742071756575657320616C6C6F7765642D
:103F6000210000002DE9F05FDDF82CB09846914665
:103F70008A46070006D132A340F2A5423AA13EA0EC
:103F8000FFF7B2FA00222A21032002F0EBF9060023
:103F900053D070892A2806D229A34FF4966241A1F2
:103FA00035A0FFF7A1FA75680D9805F10E0401F030
:103FB000FDFCE08097F82200062806D020A34FF4ED
:103FC000976245492CA0FFF78FFAD8F80010A1603E
:103FD000B8F80400A081DBF80010C4F81210BBF898
:103FE0000400E082D9F800102960B9F80400A88024
:103FF000DAF80010C5F80610BAF8040068810A98CB
:1040000031460068C4F80E000C980068A0614FF4B7
:10401000807020800820608006202071042060715C
:104020004FF4C160A881BA693846904704463046CB
:1040300002F060FD2046BDE8F09F4FF0FF30FAE748
:104040002E2E5C4C5749505C6C7769702D312E34A4
:104050002E315C7372635C6E657469665C6574684E
:104060006172702E630000006E6574696620213DE8
:10407000204E554C4C000000417373657274696F9B
:104080006E2022257322206661696C65642061744C
:10409000206C696E6520256420696E2025730D0AE9
:1040A00000000000636865636B20746861742066BB
:1040B0006972737420706275662063616E20686F28
:1040C0006C642073747275637420657468617270B7
:1040D0005F6864720000000024A700081FB5012378
:1040E000064C021DCDE90213CDE9002400F12303A3
:1040F0001946A21FFFF736FF04B010BD9EA60008A8
:104100002DE9F041054690F822004C681E461746FE
:104110008846062806D00CA340F2A312144915A025
:10412000FFF7E2F930682060B088A0803868C4F8F2
:104130000600B88860810820A08141462846AA6907
:10414000BDE8F041104700002E2E5C4C5749505CF2
:104150006C7769702D312E342E315C7372635C6E16
:10416000657469665C6574686172702E6300000036
:1041700024A70008417373657274696F6E2022254D
:104180007322206661696C6564206174206C696EBD
:104190006520256420696E2025730D0A000000004B
:1041A00070B5104D002404EB840005EB8000827C88
:1041B00092B1C17C491CC9B2C174F02906D2012A4E
:1041C00002D0032A06D007E0022905D32046FFF7D4
:1041D0008FFC01E002218174641CE4B20A2CE2D35A
:1041E00070BD000034B001202DE9F041044690F884
:1041F00022001F4615460E46062806D01EA340F292
:10420000C31227A130A0FFF76FF986B3306870B3EF
:10421000214600F061FB50BB3078C0F303100E283C
:1042200026D039463046FFF745FB00281DDB314AD2
:1042300000EB800102EB81000223837484602B6811
:10424000C360AB8803820023C37452F821605EB15F
:1042500042F821302B4604F1230231462046FFF775
:104260004FFF304602F046FC0020BDE8F081FFE73A
:104270006FF00D00F9E700002E2E5C4C5749505CA2
:104280006C7769702D312E342E315C7372635C6EE5
:10429000657469665C6574686172702E6300000005
:1042A0006E657469662D3E6877616464725F6C65E3
:1042B0006E203D3D204554484152505F485741448F
:1042C00044525F4C454E0000417373657274696FD0
:1042D0006E2022257322206661696C6564206174FA
:1042E000206C696E6520256420696E2025730D0A97
:1042F0000000000034B0012070B5044640890D462E
:104300000E2842D9606801788689CA0714D001292D
:1043100005D006221F49FBF77FFF48B10CE041782A
:1043200051B980785E2807D1607B40F0100002E030
:10433000607B40F008006073082E03D0B6F5C16FB3
:1043400023D116E095F8290080061ED56FF00D01E7
:10435000204602F07DFC38B10FA340F24F5218A165
:1043600020A0FFF7C1F810E02946204600F00AFC23
:1043700009E095F82900800607D5224605F12301BA
:104380002846FFF7EDF9002070BD204602F0B2FB91
:10439000F9E7000098A600082E2E5C4C5749505CA7
:1043A0006C7769702D312E342E315C7372635C6EC4
:1043B000657469665C6574686172702E63000000E4
:1043C00043616E2774206D6F7665206F766572206D
:1043D00068656164657220696E207061636B6574E5
:1043E00000000000417373657274696F6E202225AE
:1043F0007322206661696C6564206174206C696E4B
:104400006520256420696E2025730D0A00000000D8
:1044100010B5040005D10AA3C02214A116A0FFF70D
:1044200063F8652084F82A006E2084F82B001D486C
:1044300060611D48A061204601F03AF9002010BDDE
:104440002E2E5C4C5749505C6C7769702D312E34A0
:104450002E315C7372635C6E657469665C6574684A
:1044600065726E657469662E630000006E6574691E
:1044700066213D4E554C4C00417373657274696FF3
:104480006E2022257322206661696C656420617448
:10449000206C696E6520256420696E2025730D0AE5
:1044A00000000000153B0008E957000870B50546FC
:1044B00001F03CF9040009D02A692946904705001B
:1044C00002D0204602F016FB284670BD4FF0FF30A8
:1044D00070BD38B504468DF8000069460320ABBEB8
:1044E000204638BD10B5FBF70FFF18B16420FFF769
:1044F0000FF9F8E7BDE81040FBF788BF0A46032133
:1045000000F040B92DE9FE4F456804468A462878F8
:104510000007870E79428846204602F099FB002862
:104520007AD12089042877D36068007800287FD06A
:1045300008287DD1414901260868C0F303120E2ADC
:1045400000D100268946514600F0C6F900286FD1F7
:10455000002E6DD0208908286AD3204600F098F9F3
:10456000002865D12221204602F072FB002831D0BC
:104570003946204602F06CFB18B131A398223AA1CB
:1045800047E021890022022001F0ECFE06004FD016
:10459000718907F10800814205D229A3A1223FA118
:1045A0004CA0FEF7A1FF2146304602F029F918B1D0
:1045B00023A3A52252A12CE041463046756802F0A3
:1045C00047FB10B11EA3AB220CE0204602F092FA8A
:1045D000344609E06FF02101204602F039FB18B1A2
:1045E00017A3B52250A114E06068D9F80010E96063
:1045F0005A4900260968296106704680FF20287202
:104600006E813946204602F023FB30B10CA3DA223A
:1046100053A130A0FEF768FF0AE00121CDE9006157
:10462000FF230022CDF808A00449204600F0A6FB95
:104630002046BDE8FE4F02F05DBA00002C010020CC
:104640002E2E5C4C5749505C6C7769702D312E349E
:104650002E315C7372635C636F72655C6970763473
:104660005C69636D702E630069636D705F696E7065
:1046700075743A206D6F76696E6720702D3E70619B
:10468000796C6F616420746F206970206865616463
:104690006572206661696C65640A00006368656321
:1046A0006B2074686174206669727374207062751F
:1046B000662063616E20686F6C642073747275632A
:1046C00074207468652049434D50206865616465B5
:1046D00072000000417373657274696F6E20222549
:1046E0007322206661696C6564206174206C696E58
:1046F0006520256420696E2025730D0A00000000E6
:1047000069636D705F696E7075743A20636F70795C
:10471000696E6720746F206E657720706275662001
:104720006661696C65640A0069636D705F696E70CB
:1047300075743A20726573746F72696E67206F7258
:104740006967696E616C20702D3E7061796C6F6174
:1047500064206661696C65640A000000280100201D
:1047600043616E2774206D6F7665206F76657220C9
:1047700068656164657220696E207061636B657441
:10478000000000002DE9FE4391460E460746002238
:104790002421012001F0E6FD05002DD068892428A0
:1047A00006D216A34FF499721EA129A0FEF79CFE13
:1047B0006C68D7F804801C22267084F801900026CB
:1047C000A680E680686879680830FBF701FD66809E
:1047D0006989204600F056F86080D8F80C000290F5
:1047E0000120CDE90060FF2302AA0021284600F045
:1047F00071FA284602F07EF9BDE8FE832E2E5C4C4D
:104800005749505C6C7769702D312E342E315C73B2
:1048100072635C636F72655C697076345C69636D4A
:10482000702E6300636865636B2074686174206632
:104830006972737420706275662063616E20686FA0
:104840006C642069636D70206D65737361676500CA
:10485000417373657274696F6E202225732220661E
:1048600061696C6564206174206C696E65202564E3
:1048700020696E2025730D0A000000000A460B21F6
:10488000FFF780BF10B501F0AFF8C04380B210BD94
:1048900070B500240546264613E06989686801F072
:1048A000A3F82044010C11FA80F4A87AC00707D0BD
:1048B000C6F10100C6B2E0B2C4F3072141EA002408
:1048C0002D68002DE9D126B1E0B2C4F3072141EAF9
:1048D0000024E04380B270BD421C12D088B191F830
:1048E000292092070BD54A68824208D0896800EADD
:1048F00001030A40934202D10143491C01D0002028
:1049000070470120704700002DE9F74F8AB0044638
:104910000B9814250026078C60680690C08801F06B
:1049200058F8C0F30C0100F400500391089020895E
:104930001438143F1FFA80F9F81707EB5070C0F3D2
:10494000CF00079704908EE00799894501DC01208C
:1049500000E000200399089AC1F30C01114305916E
:10496000002825D048461FFA80FB0022142102208F
:1049700001F0F8FC0290002820D06089142806D2AB
:1049800040A340F2FB224AA151A0FEF7ADFD0298E0
:10499000142206994068FBF71BFC0298D0F804A08B
:1049A0006068284460606089401B60815D4631E03A
:1049B00041F4005005900498C000D4E74FF0FF3058
:1049C0000DB0BDE8F08F6689AE4200D92E4606B321
:1049D000062001F0A9FA07004BD06068CDE9000677
:1049E0003B4602223146032001F0FAFD5FEA00084F
:1049F00043D0204602F07CFA4048C7E9040441460F
:104A0000029801F057FEA81B05042D0C04D0246861
:104A1000D9E72468002DD6D13546059800F0C6FFA9
:104A2000AAF806000BF1140080B200F0BFFFAAF84C
:104A300002000021AAF80A1014215046FFF722FFB5
:104A4000AAF80A000B980C9A0299436998470298B1
:104A500002F050F8A9EB0B001FFA80F9DDE9030121
:104A6000084480B20390B9F1000F7FF46DAF0020CD
:104A7000A6E7029802F03EF8A0E7384600F040F8BA
:104A8000F7E700002E2E5C4C5749505C6C7769703C
:104A90002D312E342E315C7372635C636F72655CF2
:104AA000697076345C69705F667261672E630000BE
:104AB00074686973206E6565647320612070627527
:104AC0006620696E206F6E652070696563652100E0
:104AD000417373657274696F6E202225732220669C
:104AE00061696C6564206174206C696E6520256461
:104AF00020696E2025730D0A00000000255600086D
:104B000010B5040006D106A340F279220FA112A02D
:104B1000FEF7EAFC2146BDE81040062001F0C8B9C6
:104B20002E2E5C4C5749505C6C7769702D312E34B9
:104B30002E315C7372635C636F72655C697076348E
:104B40005C69705F667261672E6300007020213DB2
:104B5000204E554C4C000000417373657274696FB0
:104B60006E2022257322206661696C656420617461
:104B7000206C696E6520256420696E2025730D0AFE
:104B8000000000002DE9F05F456806468846287859
:104B90000421B1EB101F0FD100F00F004FF6FF7191
:104BA00001EA8004688800F014FF01467089A04281
:104BB00002D33089884203D2304601F09BFF4EE099
:104BC000304602F0D1F841482969A0F1040A016099
:104BD000EA68DFF8FCB0012744468146CAF80020A5
:104BE00094F82900C0070BD0201D09D0616839B1A5
:104BF000D9F8000088420ED02146FFF76DFE50B96B
:104C00001FB10027DBF8004000E02468444500D1D4
:104C10002468002CE4D157464146DAF80000FFF73B
:104C20005BFE0028C8D13878BA46C0F303100E28BE
:104C3000C2D0002CC0D0E88830F0C00005D030468B
:104C400000F04EF906000AD07568204C4146103C31
:104C50003046C4E9018502F0A5FA18B12DE0002024
:104C6000BDE8F09F687A012815D006280ED01128DB
:104C700007D04F464146D9F80000FFF72DFE78B126
:104C800018E04146304605F023FB16E04146304629
:104C900002F000FF11E041463046FFF733FC0CE024
:104CA0003878C0F303100E2804D002213046756016
:104CB000FFF724FC304601F01DFF00206060A0607B
:104CC000CAF80000C9F80000C9E700002C01002064
:104CD000500100202DE9FE430446DDE90A65C08944
:104CE000984617468946012806D00CA340F239326F
:104CF00014A117A0FEF7F8FB384600F073FC50B182
:104D00000096CDE9015043463A464946204600F018
:104D100035F8BDE8FE836FF00300FAE72E2E5C4CF9
:104D20005749505C6C7769702D312E342E315C738D
:104D300072635C636F72655C697076345C69702E57
:104D400063000000702D3E726566203D3D203100FD
:104D5000417373657274696F6E2022257322206619
:104D600061696C6564206174206C696E65202564DE
:104D700020696E2025730D0A000000002DE9F84F10
:104D80000546DDE90BA6C089DDF828B09846174630
:104D90008946012806D02DA34FF4277235A138A0EB
:104DA000FEF7A2FB002F3CD01421284601F050FF53
:104DB00018B16FF00100BDE8F88F68896C6814289D
:104DC00006D222A340F2C92238A12DA0FEF78CFB07
:104DD00084F8088084F809A0386820614520207094
:104DE00084F801B0288900F0E1FDDFF8F0806080F0
:104DF0004FF0000AA4F806A0B8F8000000F0D6FDB5
:104E0000A080B8F80000401CA8F80000B9F1000F1D
:104E100002D0D9F8000000B97068E060A4F80AA0D8
:104E200003E068686F4600690090308C40B12989C2
:104E3000814205D93A4631462846FFF765FDBAE773
:104E400073693A46294630469847B4E72E2E5C4CA3
:104E50005749505C6C7769702D312E342E315C735C
:104E600072635C636F72655C697076345C69702E26
:104E700063000000702D3E726566203D3D203100CC
:104E8000417373657274696F6E20222573222066E8
:104E900061696C6564206174206C696E65202564AD
:104EA00020696E2025730D0A0000000063686563A9
:104EB0006B20746861742066697273742070627507
:104EC000662063616E20686F6C6420737472756312
:104ED000742069705F686472000000001C0100208B
:104EE0002DE9F14F002700984468207800F00F006A
:104EF00005287CD1E08800F06CFDC0044FEA104A20
:104F0000608800F066FD217801F00F01494200EB56
:104F100081001FFA80F9009801F069FC584D06469F
:104F2000288830440A2809D93146204600F0FCFA86
:104F300000285CD0288830440A2858D8A8466D68D4
:104F40004FF0000B0DE06869E168884207D1A8695D
:104F50002169884203D1A889A188884204D02F46BC
:104F60002D68002DEFD106E02DB1E08800F031FD75
:104F7000C00424D02EE0052000F0D6FF05000AD1A1
:104F80003146204600F0D0FAB04216DB052000F092
:104F9000CBFF050011D02021FBF733F90320E87780
:104FA000D8F8041029601422214605F10800C8F839
:104FB0000450FBF70DF9D5B10CE05D46FBE7E8893D
:104FC00000F007FDC00405D01422214605F10800B9
:104FD000FBF7FEF8B8F800103144A8F80010A079EB
:104FE000800608D4A87F40F00100A87700E041E0E7
:104FF0000AEB0900A8832846009900F043F800282E
:1050000036D0A88B14221430A883686805F10801F3
:10501000466830463468FBF7DBF8A88B00F0C6FC26
:105020007080A6F806B0A6F80AB014213046FFF743
:1050300029FC70816FF0130AD5F8049009E05146FD
:105040002046666801F004FE2146484601F032FB26
:105050003468002CF3D13946284600F04DF9484613
:1050600001F0C5FBB8F80020101AA8F80000484667
:10507000BDE8F88F009801F03DFD0020F8E7000042
:10508000300100202DE9F0474C680646884600258F
:105090000127608800F09DFC217801F00F01494252
:1050A00000EB8109E08800F094FCC004D8F80440CB
:1050B000020C0020206002EB0900A2801FFA80FC95
:1050C000A4F806C071681DE0486883889A420ED231
:1050D000216045B1EB889A4275D38088844572D8A7
:1050E000C5F8008001E0C6F8048069B12BE06AD001
:1050F000C1888A4267D31DB1E988994200D0002750
:10510000016805460029DFD195B1E888A188884269
:1051100006D933A340F293123CA144A0FEF7E4F970
:10512000C5F80080E888A18888420CD000270AE0F2
:10513000706830B12AA340F29B1247A13BA0FEF752
:10514000D3F9C6F80480B07FC00739D0002F36D01D
:1051500072685068808838B92068214630B1446848
:10516000C888A1888842F7D0002728E0002F26D0E1
:1051700032B91BA34FF4DE7245A12CA0FEF7B4F99F
:1051800070684068A04206D115A340F2BD1240A14C
:1051900026A0FEF7A9F9206830B111A340F2BF1292
:1051A0003FA122A0FEF7A0F9E088B18B884206D08B
:1051B0000BA340F2C11243A11CA0FEF795F938469B
:1051C000BDE8F087FFE7404601F011FB49490A8836
:1051D000101A0880404601F08DFC0020F0E7000026
:1051E0002E2E5C4C5749505C6C7769702D312E34F3
:1051F0002E315C7372635C636F72655C69707634C8
:105200005C69705F667261672E6300006368656346
:105210006B20667261676D656E747320646F6E27B4
:1052200074206F7665726C61700000004173736565
:105230007274696F6E2022257322206661696C6525
:1052400064206174206C696E6520256420696E207D
:1052500025730D0A000000006E6F2070726576697C
:105260006F757320667261676D656E742C2074684B
:105270006973206D7573742062652074686520669B
:105280006972737420667261676D656E74210000C7
:1052900073616E69747920636865636B0000000058
:1052A00076616C69646174655F6461746167726181
:1052B0006D3A6E6578745F70627566213D4E554C2F
:1052C0004C00000076616C69646174655F646174B0
:1052D000616772616D3A646174616772616D2065C6
:1052E0006E64213D646174616772616D206C656EEE
:1052F000000000003001002070B504460B480D4648
:105300004168A14202D12168416009E035B908A392
:1053100040F2391211A118A0FEF7E6F820682860C3
:105320002146BDE87040052000F0C2BD30010020DC
:105330002E2E5C4C5749505C6C7769702D312E34A1
:105340002E315C7372635C636F72655C6970763476
:105350005C69705F667261672E63000073616E69DD
:10536000747920636865636B206C696E6B6564207B
:105370006C69737400000000417373657274696F27
:105380006E2022257322206661696C656420617439
:10539000206C696E6520256420696E2025730D0AD6
:1053A000000000002DE9F047064600250F46B142F7
:1053B00005D12FA3A52239A13BA0FEF795F847B14F
:1053C0003868B04205D02AA3A72242A136A0FEF732
:1053D0008BF874684FF480386068818800291AD18E
:1053E00000687060142206F108016068FAF7F0FEA8
:1053F00001212046FFF742FA204601F0F8F9054660
:10540000404505D31AA3B62237A127A0FEF76CF8B2
:10541000204601F06FFBC146746812E06068A04648
:105420000468404601F0E3F905444D4505D310A357
:10543000C6222DA11CA0FEF757F8ADB2404601F0E0
:1054400059FB002CEAD139463046FFF755FF2E4C68
:105450002088A84205D206A3CC222CA112A0FEF7D8
:1054600043F82088401B20802846BDE8F0870000D4
:105470002E2E5C4C5749505C6C7769702D312E3460
:105480002E315C7372635C636F72655C6970763435
:105490005C69705F667261672E630000707265768A
:1054A00020213D2069707200417373657274696FC9
:1054B0006E2022257322206661696C656420617408
:1054C000206C696E6520256420696E2025730D0AA5
:1054D00000000000707265762D3E6E657874203D88
:1054E0003D2069707200000070627566735F6672BD
:1054F000656564202B20636C656E203C3D20307810
:1055000066666666000000003001002069705F7208
:10551000656173735F70627566636F756E74203E4C
:105520003D20636C656E00002DE9F041DFF8688076
:105530000F4605460026002213461446D8F80400FC
:105540001AE04169D5F80CC0614509D18169D5F8E7
:1055500010C0614504D18189B5F804C0614507D008
:10556000641C22B1C17F92F81FC0614500D8024679
:10557000016801B1034608460028E2D122B119466C
:105580001046FFF70FFF0644BE4201DA012CD2DCC1
:105590003046BDE8F08100003001002010B500F079
:1055A0000BF8BDE81040002202494FF47A7001F078
:1055B00061BE00009D55000870B50948002544688B
:1055C0000BE0E07F20B1401EE0772546246804E030
:1055D000204624682946FFF7E5FE002CF1D170BD76
:1055E0003001002010B504460C480AE090F829105C
:1055F000C90706D08168226843680A400B409A4276
:105600000AD000680028F1D10548006818B190F868
:105610002910C90700D1002010BD00005001002052
:105620005401002010B5040006D108A340F28322E3
:1056300011A114A0FDF758FF606908B101F05AFAF2
:105640002046BDE81040FFF75BBA00002E2E5C4CF0
:105650005749505C6C7769702D312E342E315C7354
:1056600072635C636F72655C697076345C69705FED
:10567000667261672E63000070637220213D204EC8
:10568000554C4C00417373657274696F6E2022250E
:105690007322206661696C6564206174206C696E98
:1056A0006520256420696E2025730D0A0000000026
:1056B00010B5062180F82210164905230A7880F8D3
:1056C00023204A7880F824208A7880F82520CA7818
:1056D00080F826200A7980F82720497980F8281058
:1056E00040F6C41120F8201F322141720A48026896
:1056F0000A4801680A48FBF795FC0A480A23026831
:10570000094801680648FBF754FC0548FBF789FE89
:10571000002010BDE0AE01202C000020240000205D
:10572000CC02002028000020200000202DE9F84FA6
:105730000020044600902B48FBF7B0FC10B100207D
:10574000BDE8F88F2748818FD0F840900904090CF4
:105750002DD00322104600F005FE009038B32148FA
:10576000009D40F2F45BD0F830806F8900260FE096
:10577000A4F2F4525242FAF72BFDD8F80C008046FE
:10578000D0F80890361BAAF2F457002406F2F4561B
:10579000686807EB040ADA4509EB04013044E7D8EE
:1057A0003A46FAF715FD2D683C44002DDDD10D4A2F
:1057B0000021106B05E0036843F000430360C068FC
:1057C000491C936B8B42F6D800219163106800F559
:1057D00080504269120602D58022426181600098A1
:1057E000AEE70000CC0200202DE9F05F27480E460E
:1057F000C56A002081460446D5F808A031E0286833
:1058000000280CDBB6F80A80002717E0A4F2F45257
:105810005242FAF7DDFCED682868002802DA6FF0E2
:10582000070025E0D5F808A03F1BA9EB0400ABF268
:10583000F45800F2F459002407F2F45708EB040B73
:1058400040F2F45170688B4500EB07010AEB04004D
:10585000DCD84246FAF7BCFC09EB08003668444441
:105860008146002ECBD101460848FBF71CFE0020E4
:105870000649096801F580514A69920603D520223C
:105880004A6100224A60BDE8F09F0000CC0200207F
:1058900030B512490A68C0238371A824C47100215D
:1058A0000172392545720225057041708170150C11
:1058B000C570150A057142718372C4720173372273
:1058C0004273FF228273C273027441748374C4747E
:1058D000017501224275817530BD0000107AFF1FED
:1058E00010B586B00024FBF75FFA10B1012006B0B6
:1058F00010BD00F043F808B10220F8E71C48FFF79C
:10590000C7FF05E0641CE4B2052C01D90320EEE7D3
:10591000FDF718F90028F5D100F04AF8144805AB56
:10592000817A50F80B2F41EA02210391C178426835
:1059300041EA02210491C17980680E4A41EA0020BF
:1059400005900D4900208DE80700094804AA03A925
:10595000183000F021FC48B10548183000F094FCE4
:105960000348183000F0D2FC0020C0E70420BEE756
:10597000E0AE0120F94200081144000810B500F023
:10598000A3FA0146002000F0CFFB0549086043F66A
:105990009961002000F0C8FB02490860002010BD9A
:1059A000480100203801002000BA704740BA704713
:1059B00010B500F0F3F800F08BFA00F053FC04F09F
:1059C00085FC02F065F8BDE8104001F0D3BC00BAD8
:1059D000704740BA704701F01FBC00000148FEF755
:1059E00065BD0000F8AE012018B50022ADF800201A
:1059F00010F001030BD0002909DD10F8014B8DF8E0
:105A00000140491E03E030F8024B891E224401295F
:105A1000F9DC002902DD00788DF80000BDF80000F7
:105A20001044010C11FA80F0010C11FA80F023B13E
:105A3000C1B2C0F3072040EA012080B218BD08239C
:105A4000022219214FF4B470FDF748FAFBF74AFF20
:105A5000B420FDF753FEFDF7EDF842F2273142F294
:105A60000F70FDF759FB40F2E73459212046FDF74E
:105A70000FFB0020FDF788FCFCF768FFFAF7F2FC4B
:105A8000FDF796FA002000F0CBFA40F28331204671
:105A9000FDF726FB4FF4FA7402E02046FDF738FECE
:105AA000FFF71EFF0028F8D1FEF71CFD6420FDF76C
:105AB0002FFE21460420FDF70FF804F001FAFCE761
:105AC00070B5040029D0154D6868844202D3A868D7
:105AD000844206D312A34FF4A2721AA11FA0FDF7AD
