:020000040800F2
:1000000000EE0120BD020008253C00080F38000862
:10001000213C0008091200084560000800000000AB
:1000200000000000000000000000000085580008EB
:10003000BD140008000000009B0300086D59000873
:10004000F7020008F7020008F7020008F7020008AC
:10005000F7020008F7020008F7020008F70200089C
:10006000F7020008F702000899180008F7020008D4
:10007000F7020008F70200080D120008F702000856
:10008000F7020008F7020008F7020008F70200086C
:10009000F7020008F7020008F7020008F70200085C
:1000A000F7020008F7020008F7020008F70200084C
:1000B000F7020008D55A0008E55A0008F7020008C0
:1000C000F7020008F7020008F7020008F70200082C
:1000D000F7020008ED5F0008F7020008F7020008C9
:1000E000F7020008F7020008F7020008F70200080C
:1000F000F7020008F7020008F7020008F7020008FC
:10010000F7020008F7020008F7020008F7020008EB
:10011000F7020008F7020008F7020008F7020008DB
:10012000F7020008F7020008F7020008F7020008CB
:10013000F702000849150008F7020008F702000856
:10014000F7020008F7020008F7020008F7020008AB
:10015000F7020008F7020008F7020008F70200089B
:10016000F7020008F7020008F7020008F70200088B
:10017000F7020008F7020008F7020008000000007C
:10018000F7020008F7020008F7020008F70200086B
:10019000F7020008F7020008F7020008F70200085B
:1001A000F7020008F7020008F702000800F002F862
:1001B00000F06DF80AA090E8000C82448344AAF194
:1001C0000107DA4501D100F062F8AFF2090EBAE892
:1001D0000F0013F0010F18BFFB1A43F0010318477B
:1001E00080410100A04101000A444FF0000C10F8CA
:1001F000013B13F0070408BF10F8014B1D1108BFA5
:1002000010F8015B641E05D010F8016B641E01F844
:10021000016BF9D113F0080F1EBF10F8014BAD1C94
:100220000C1B09D16D1E58BF01F801CBFAD505E0B2
:1002300014F8016B01F8016B6D1EF9D59142D6D30C
:10024000704700000023002400250026103A28BF34
:1002500078C1FBD8520728BF30C148BF0B60704738
:10026000642900F02B81752900F02881782900F09D
:100270006181632900F0CA83732900F0CF830020D5
:1002800070471FB513F034FE1FBD10B510BD00F050
:10029000FFFB1146FFF7F5FF09F0EAFD00F01DFC3A
:1002A00003B4FFF7F2FF03BC05F012FF30BF72B6D4
:1002B000704762B6704780F30888704711488047DE
:1002C000DFF84400016841F470010160BFF34F8F13
:1002D000DFF83800016821F040410160BFF36F8F03
:1002E0000B480047FEE7FEE7FEE7FEE7FEE7FEE716
:1002F000FEE7FEE7FEE7FEE706480749074A084B28
:10030000704700008D59000888ED00E034EF00E0F0
:10031000AD01000800E8012000EE012000EA012004
:1003200000EA0120EFF3098141B1F1EE101A40F823
:10033000041D20ED200A29490A6810607047B0ECBE
:10034000200A02C8E1EE101A25490A6810607047B9
:10035000EFF3108072B6704780F310887047214821
:100360004FF0FF010170002080F309881E480168EA
:1003700081F308881D48012101701D484FF080510C
:10038000016062B6FEE71A484FF080510160704785
:1003900017484FF080510160704772B6EFF3098043
:1003A00028B1203880E8F00F0C490968086000B5D2
:1003B000104880475DF804EB0F4810490A78027036
:1003C000064807490A680260106890E8F00F20307C
:1003D00080F309884EF0F40E62B6704728030020BF
:1003E0003003002022ED00E048030020220300201B
:1003F00004ED00E0254C000817030020180300203E
:10040000704700000FB4044910B503AA029800F029
:1004100009FB10BC5DF814FB2000002070B50446F9
:1004200085690068C10601D5302600E02026C00796
:1004300007D070BDD4E9012130469047206A401CA6
:1004400020626D1EF6D570BD70B5044685690078D2
:10045000C00707D170BDD4E9012120209047206A50
:10046000401C20626D1EF6D570BD70B50C46054669
:10047000012A05D02878800600D5EA69002302E029
:10048000012305E05B1C934202D2E05C0028F9D115
:10049000A869E618C01AA861286A18442862284684
:1004A000FFF7BCFF04E0D5E9012114F8010B9047E8
:1004B000B442F8D32846FFF7C7FF70BD2DE9F041DD
:1004C0000646002410687529314616A510D0AFF3F2
:1004D0000080002802DA404213A507E031688A074D
:1004E00001D512A502E0490704D511A5012401E0B8
:1004F000AFF3008000210A2206F1240709E0B0FBD7
:10050000F2FCB0FBF2F302FB1C00303078541846CA
:10051000491C0028F3D123462A463046BDE8F04165
:1005200000F011BA000000002D0000002B000000B8
:100530002000000070B504460D4621461068AFF358
:1005400000802188090502D50F4A7A4402E00E4A4C
:100550007A440E32002104F1240305E000F00F0676
:100560000009965D5E54491C0028F7D120780023CD
:10057000000704D5702D02D009B1022311322046A4
:10058000BDE8704000F0DFB9823B01002DE9F05F6B
:10059000894604464FF0000ADFF874B1FB44C0F806
:1005A00020A02046E1688847002874D0252806D07E
:1005B000D4E901219047206A401C2062F1E700261F
:1005C0005F462046E16888472028054607DB312D35
:1005D00005D2781910F8200C08B10643F1E7B007EE
:1005E00001D526F00406C4F81CA00027C4F818A002
:1005F0002A2D09D0284605F064FD38B304EB87089E
:10060000303DC8F8185019E059F8041B204604EB97
:1006100087029161E1688847012F054618D1E0699A
:10062000002820DA26F020061DE0D8F8180000EB9C
:10063000800005EB40003038C8F818002046E1681B
:100640008847054605F03DFD0028EED1012F0AD070
:100650002E2D08D12046E16888477F1C0546022FD1
:1006600046F02006C4DBA069002803DA404246F0C9
:100670000106A061F00701D026F010066C2D0BD00A
:10068000682D09D04C2D39D06A2D35D0742D35D038
:100690007A2D33D016E038E0E1682F4620468847AF
:1006A000B842054609D16C2F26D04FF48060E1682E
:1006B000064320468847054604E06C2F1AD04FF4C5
:1006C000807006430DB3A5F14100192802D82035EA
:1006D00046F400664A462946204626604E46FFF705
:1006E000BFFD80B101280BD0F61D26F0070000F1F8
:1006F000080956E74020E4E78020D8E70020D6E745
:1007000006F104094DE7284652E7206ABDE8F09F4C
:10071000583B010040EA010310B59B070FD1042AA2
:100720000DD310C808C9121F9C42F8D020BA19BABC
:10073000884201D9012010BD4FF0FF3010BD1AB121
:10074000D30703D0521C07E0002010BD10F8013B76
:1007500011F8014B1B1B07D110F8013B11F8014B9D
:100760001B1B01D1921EF1D1184610BD032A40F285
:10077000308010F0030C00F0158011F8013BBCF143
:10078000020F624498BF11F801CB00F8013B38BF5B
:1007900011F8013BA2F1040298BF00F801CB38BF69
:1007A00000F8013B11F0030300F02580083AC0F087
:1007B000088051F8043B083A51F804CBA0E808102F
:1007C000F5E7121D5CBF51F8043B40F8043BAFF362
:1007D0000080D20724BF11F8013B11F801CB48BFBC
:1007E00011F8012B24BF00F8013B00F801CB48BFF2
:1007F00000F8012B704710B5203AC0F00B80B1E82B
:100800001850203AA0E81850B1E81850A0E8185045
:10081000BFF4F5AF5FEA027C24BFB1E81850A0E84E
:10082000185044BF18C918C0BDE810405FEA827C68
:1008300024BF51F8043B40F8043B08BF7047D2077F
:1008400028BF31F8023B48BF11F8012B28BF20F820
:10085000023B48BF00F8012B70474FF0000200B583
:10086000134694469646203922BFA0E80C50A0E8D3
:100870000C50B1F12001BFF4F7AF090728BFA0E881
:100880000C5048BF0CC05DF804EB890028BF40F84D
:10089000042B08BF704748BF20F8022B11F0804F8F
:1008A00018BF00F8012B70474FF0013C50F8042BA3
:1008B00051F8043B9A4221D1A2EB0C03934313EA73
:1008C000CC1317D150F8042B51F8043B9A4215D1A0
:1008D000A2EB0C03934313EACC130BD150F8042B77
:1008E00051F8043B9A4209D1A2EB0C03934313EA5B
:1008F000CC13DBD04FF00000704700BFD01A01BA14
:10090000B1FA81F101F0180122FA01F0CB40C1F1F6
:100910002001DBB2C0B2C01A2CFA01F3D11A914304
:1009200011EAC311E6D170477047704770477047AE
:1009300010B500F08DF8006810BD10B5044600F049
:1009400087F8046010BD2DE9F0470D4699469246A0
:10095000044600F124080168880604D5E06921F006
:100960001001216000E00120A84201DD471B00E0EA
:100970000027A1697A1902EB0900081AA061207802
:10098000C00602D42046FFF749FD002608E0D4E95E
:1009900001211AF806009047206A401C761C20624C
:1009A0004E45F4DB2078C0060AD52046FFF736FD19
:1009B00006E0D4E9012130209047206A401C2062E3
:1009C000381EA7F10107F4DC07E0D4E9012118F88B
:1009D00005009047206A401C2062281EA5F10105F1
:1009E000F3DC2046FFF730FD2078000602D5022018
:1009F000BDE8F0870120FBE710B5436913B1AFF301
:100A0000008001E0FFF731FD012010BD127800F1F8
:100A100024010A7000224A700122EDE711684FF0AC
:100A2000FF32E9E7074B70B50D467B4400F019F83B
:100A30000446284600F028F810B14FF0FF3070BD92
:100A4000204670BD3378000000487047A0E70120C1
:100A500000487047A0E7012001694A1C026108783C
:100A6000704700B58FB0CDE90131002105910549EE
:100A70007944CDE9031011466846FFF787FD0FB0B2
:100A800000BD0000E5FFFFFF007B00F08000704725
:100A90007546FFF7D9FFAE4605006946534620F07C
:100AA0000700854618B020B5FFF726FCBDE82040BA
:100AB0004FF000064FF000074FF000084FF0000B1A
:100AC00021F00701AC46ACE8C009ACE8C009ACE8CD
:100AD000C009ACE8C0098D46704710B50446AFF3B5
:100AE00000802046BDE81040FFF7DABB2DE9F04159
:100AF0002DED048B00250026002700BF8F2000F07D
:100B00007DF8054605F002000028F7D0942000F09B
:100B100075F836490860052005F0B6FB33480068D3
:100B2000000232490860952000F068F82F490968F2
:100B300008442E490860962000F060F82C490860AF
:100B4000052005F0A1FB2A4800680002284908603A
:100B5000972000F053F826490968084424490860A2
:100B6000052005F091FB2148008800F4004038B1D1
:100B70001E480068A0F5803040421C4908600126EC
:100B80001B48008800F4004038B119480068A0F5FF
:100B900080304042164908600127144909684943DA
:100BA000134A1268124B1B6802FB031013F06FF814
:100BB00041EC190BB0EE490AF0EE690A05F044FA6F
:100BC000B0EE408AF0EE608A51EC180B13F032F868
:100BD00008490860084600680749B1FBF0F084B294
:100BE0002046BDEC048BBDE8F081000078000020B9
:100BF0007C00002080000020D8F3100070B504466F
:100C0000204600F00FF802F0EDFE1B2002F0B6FEC9
:100C100002F034FF002002F07BFE054602F008FFE0
:100C2000284670BD10B5044602F0DCFE1A2002F022
:100C3000A5FE02F023FFB02002F0A0FE02F01EFF8E
:100C4000204602F09BFE02F019FF02F0F1FE10BDFB
:100C500010B50521842000F065F8052005F014FB8F
:100C6000FA21832000F05EF8052005F00DFB00213D
:100C7000822000F057F8052005F006FB00218720B0
:100C800000F050F8052005F0FFFA0021862000F062
:100C900049F8052005F0F8FA0021852000F042F817
:100CA000FF21892000F03EF80121882000F03AF869
:100CB00000218B2000F036F800218A2000F032F865
:100CC000B121802000F02EF8052005F0DDFA082182
:100CD000812000F027F8052005F0D6FA10218120A8
:100CE00000F020F8052005F0CFFA1121802000F057
:100CF00019F81E2005F0C8FAFF218B2000F012F829
:100D0000052005F0C1FA03218A2000F00BF8052028
:100D100005F0BAFA2121802000F004F8192005F02E
:100D2000B3FA10BD70B505460C4602F05BFE1A2002
:100D300002F024FE02F0A2FE18B102F079FE0120BA
:100D400070BD022005F0A0FA284602F017FE02F05E
:100D500095FE18B102F06CFE0120F1E7022005F0CB
:100D600093FA204602F00AFE02F088FE18B102F063
:100D70005FFE0120E4E702F05BFE0020E0E70000F8
:100D800030B1012807D0022809D003280FD10AE08A
:100D9000084A11600CE0074A121D116008E0054A7C
:100DA0000832116004E0034A0C32116000E000BF19
:100DB00000BF70478C82404210B5002000F068F9F7
:100DC000184908700521084600F092F9052106200F
:100DD00000F08EF90521072000F08AF90021082093
:100DE00000F086F90021092000F082F900210A2094
:100DF00000F07EF900210B2000F07AF900210C2090
:100E000000F076F91021152000F072F9122000F0A0
:100E10000BF8102004F088FC012005F0FFF90020F9
:100E200010BD00003800002070B5054600240CE01D
:100E300000212046FFF7A4FF284604F065FC0121AD
:100E40002046FFF79DFF601CC4B2042CF0DB70BD90
:100E500000B587B000BF002001901348006840F043
:100E60000400114908600846006800F00400019081
:100E700000BF00BF102002900C4803900120049096
:100E800002A90B4801F058F9012211460A2001F08D
:100E9000B7FA0A2001F0A7FA0120064908600A20E3
:100EA00005F0BCF907B000BD303802400000211049
:100EB000000002409C02414200B587B000BF002004
:100EC00001906948006840F00100674908600846E1
:100ED000006800F00100019000BF00BF00BF0020CB
:100EE00001900846006840F002000860084600686B
:100EF00000F00200019000BF00BF00BF0020019081
:100F00000846006840F0040008600846006800F0E9
:100F10000400019000BF00BF00BF00200190084600
:100F2000006840F0080008600846006800F008000B
:100F3000019000BF00BF41F2FA70029001200390BF
:100F400004900320059002A9484801F0F5F84FF4F9
:100F5000004002900120039004900320059002A914
:100F6000434801F0E9F8C02002900120039004906A
:100F70000220059002A93F4801F0DEF804F09AFB38
:100F8000322005F04BF9182004F0CEFB00203A493E
:100F9000086001203949C1F88C0239490860091DEF
:100FA0000860091D0860091D086036490860344959
:100FB0001831086032490C3908602F49091F086050
:100FC0002F4914310860091F08602C49C1F8B0028C
:100FD000052005F023F9002029492031086028491F
:100FE0000C310860274908602449C1F8A80205208F
:100FF00005F014F9012022490C3108602049203104
:101000000860204908601D49C1F8A802052005F0C4
:1010100005F9A0201C49087008204870C0204872BB
:10102000212088700020C87020200871012048719C
:101030001648007888710020C8710872142005F0E5
:10104000EDF800F03FF8E021032000F051F80A200D
:1010500005F0E4F89421012000F04AF8FFF7ACFE17
:10106000FFF7F6FE07B000BD303802400004024032
:1010700000000240000802409C02414200804042C1
:1010800090824042BC024042A80E0020590000203D
:1010900070B50546002009490860202004F034FBA3
:1010A000002004F031FB002004F02EFB0446012058
:1010B0000349C1F89802204670BD00009882404262
:1010C0000080404210B500240FE000212046FFF7C9
:1010D00057FE112004F018FB01212046FFF750FEB7
:1010E000022005F0D1F8601CC4B2042CEDDB10BD69
:1010F00070B505460E46002413E000212046FFF798
:101100003FFE45F0400004F0FFFA002004F0FCFA36
:10111000304604F0F9FA01212046FFF731FE601C49
:10112000C4B2042CE9DB70BD00B587B000BF00205D
:1011300001901248006840F0040010490860084619
:10114000006800F00400019000BF00BF4FF4B050F1
:1011500002900120039004900220059002A9084803
:1011600000F0EAFF0120074908600A2005F056F860
:10117000802000F009F807B000BD000030380240C0
:1011800000080240A402414270B5044601201849FB
:101190000860022005F078F800201649C1F8A8027E
:1011A000022005F071F800201149091F0860002590
:1011B00017E0E0090E49083108606006040E0220BD
:1011C00005F062F801200B49C1F8A802022005F0E1
:1011D0005BF8002006490860022005F055F8681CFD
:1011E000C5B2082DE5DB01200149091F086070BD6B
:1011F000A802414200004142704770477047704763
:10120000704770477047704700BFFEE710B52B4826
:1012100000682B49884205D929485438006800F0F5
:1012200000601BE0254800682649884205D924480B
:101230005838006800F0006010E02048006821493C
:101240006039884205D91F48B838406800F000600E
:1012500004E01C48B838006800F0006060B317482C
:1012600000681749884205D94FF0006014494C398D
:1012700008601BE0114800681249884205D94FF008
:1012800000600F495039086010E00C4800680D49B3
:101290006039884205D94FF000600A49B839C86002
:1012A00004E04FF000600749B839886006480068DC
:1012B0008047064801F046FD10BD0000FC150020E7
:1012C00058640240B86002406C000020A415002061
:1012D00070B56E480078A0287DD16C4840781328FE
:1012E0004AD006DC01280BD0112816D0122873D161
:1012F00034E021284ED031285AD03228F7D18EE060
:1013000062488478012C03D101206149086003E020
:1013100014B900205E490860B5E05C4884785D48F7
:101320000078844204D0204604F0AEFA5948047094
:101330001120594988700020C87008464078801CE8
:10134000564908605448564908605648007840F0AD
:101350008000544908705448847194E053485049BF
:1013600008604078801C4D4908604E48007840F085
:1013700080004C49087086E04D4849490860407833
:10138000801C464908604748007840F08000454985
:10139000087078E04348007840F0800041490870C8
:1013A00041483F4908604078801C3C4908606AE039
:1013B000002037490860FFF7E7FE3E4A84212320DA
:1013C00004F060FBFFF744FCFFF790FB85B20022BE
:1013D0008421232001E057E054E004F053FB8020F7
:1013E000FFF7D2FEA0203449087004204870312055
:1013F00088702812C8700D71C02048712348847805
:1014000008464078801C254908602648007840F04E
:1014100080002449087028482149086033E00020F2
:101420001B490860FFF7B0FE224A8421232004F004
:1014300029FBFFF70DFCFFF759FB85B20022842141
:10144000232004F01FFB8020FFF79EFEA0201A49F6
:10145000087042204870322088702812C8700D71C0
:10146000C02081F8430008464078801C0B49086082
:101470000C48007840F080000A4908700E4808497E
:10148000086000E000BF00BF70BD00008CC00120FC
:101490009C02414259000020EC010020E80100209C
:1014A000FC01002000020020A80E0020F101002015
:1014B000F60100200100800048C00120704701684B
:1014C00001F58051896941F00202016801F58051FE
:1014D0008A617047016801F58051896941F40052C1
:1014E000016801F580518A61704738B504460020D3
:1014F0000090206800F58050806940F480112068D9
:1015000000F580508161206800F58050806900906E
:10151000012000F002FA0099206800F580508161F6
:1015200038BD014600200A6802F0004252B90A683C
:1015300002F4004232B90A6802F4807212B10A68F9
:10154000C2F30D407047000010B501E008F058FCF0
:101550000949886AFFF7E5FF0028F7D14FF4803189
:101560000548006800F5805041614021024800684C
:1015700000F58050416110BD240E002030B50346B7
:101580001479557944EA0520084C0C442064D47839
:101590002406957844EA0544557844EA05241578EC
:1015A00044EA0500014C0C44606430BD00800240F8
:1015B00070B5AEB004460E46002526B14FF400616A
:1015C000E160C900A1600020119012901390149066
:1015D00015901690E06918B94FF48060179001E0FB
:1015E000002017904FF400701890002019901A9066
:1015F0001B901C901D9040201E9000201F9020905A
:10160000219022902390249025902690802027904E
:101610000020289029902A902B902C902D902068C3
:10162000056871480540DDE9110108431399084335
:1016300014990843A168084315990843169908436B
:10164000E168084317990843189908431999084312
:101650001A9908431B9908430543206805602068D0
:101660000568012000F059F920680560DDE91C01DA
:1016700008431E9908431F9908432099084321995C
:101680000843229908432399084321684860206849
:101690004568012000F041F92068456024982168E0
:1016A000886025982168C860206885694FF6417078
:1016B0000540DDE9261040EA0140289908432999B0
:1016C00008432A9908432B990843054320688561FC
:1016D00020688569012000F020F920688561DDE936
:1016E0002C0108432168C8612068C569012000F009
:1016F00014F92068C561002001904FF0007002903D
:10170000002003904FF400100490002005900690F4
:101710000790089004200990C0050A9040120B9091
:1017200080010C9040120D9080200E9000200F90B0
:101730001090206800F5805085692C480540DDE94F
:101740000101084303990843049908430599084394
:1017500006990843079908430899084309990843DB
:101760000543206800F580508561206800F58050B1
:101770008569012000F0D1F8206800F5805085616E
:10178000DDE90A0108430C9908430D9908430E99B5
:1017900008430F9940EA81001099084340F4000182
:1017A000206800F580500160206800F580500568D1
:1017B000012000F0B2F8206800F580500560A069B3
:1017C000012809D1206800F58050C0690849084304
:1017D000216801F58051C861002120466269FFF748
:1017E000CDFE2EB070BD00000F8120FF233FDEF83C
:1017F0004000010038B504460020009020680068D1
:1018000040F0040021680860206800680090012012
:1018100000F083F800982168086038BD38B50446A8
:10182000002000902068006840F0080021680860EF
:10183000206800680090012000F06FF8009821688F
:10184000086038BD10B54FF4A071002009F0A4F86D
:101850000D490860A021002009F09EF80B4908609E
:1018600043F68831002009F097F80949086041F6ED
:10187000C451002009F090F80649086000BF00BF7D
:1018800000BF00BF002010BD280000202C00002059
:10189000300000203400002010B502F03DFA054869
:1018A000006802F0C3FD10200349086002F046FA08
:1018B00010BD000064000020143C014070B50446D7
:1018C00000252068006820F001002168086000F011
:1018D00047FD054612E000F043FD401BB0F57A7F5E
:1018E0000CD9E06C40F02000E06400BF002084F8D8
:1018F000340000BF032084F8350070BD2068006804
:1019000000F001000028E6D100BF84F8340000BFD9
:10191000012084F835000020EFE731B5002400F005
:101920001FFD044600BF00F01BFD001B009988420C
:10193000F9D338BD70B504460D461646002200BFE7
:1019400094F84500012801D1022070BD012084F8DF
:10195000450000BF022084F84400A56200221FE079
:1019600005EB42114FF00040086044F2F45048602B
:10197000C2EBC21000EB400006EB80008860A0695B
:10198000012803D1486820F000404860581E90426A
:1019900004D905EB42102030C86000E0CD60521C35
:1019A0009A42DDD3206800F58050C560012084F89C
:1019B000440000BF002084F8450000BF00BFC4E71A
:1019C00070B504460D461646002200BF94F8450047
:1019D000012801D1022070BD012084F8450000BF1C
:1019E000022084F84400E56200221BE005EB42116E
:1019F0004FF480100860C2EBC21000EB400006EB11
:101A000080008860E06918B9086840F44000086008
:101A1000581E904204D905EB42102030C86000E007
:101A2000CD60521C9A42E1D3206800F580500561D8
:101A3000012084F8440000BF002084F8450000BF66
:101A400000BFC8E70146002200BF91F84500012809
:101A500001D102207047012081F8450000BF02201B
:101A600081F84400886A006800F00040002838D1FE
:101A7000886A006800F48070F0B1886B401C88634D
:101A8000886B012801D1886A08638B6A4B63886A76
:101A90000068C0F30D40021FCA63086B83680B64C3
:101AA000886AC0688862012081F8440000BF002075
:101AB00081F8450000BFCDE7886A006800F4007037
:101AC00048B1886A086300234B6301238B63886AEB
:101AD000C068886205E0886B401C8863886AC068BB
:101AE0008862012081F8440000BF002081F8450091
:101AF00000BF0120AEE70000FEB50446002500202F
:101B00000290874E019000270CB90120FEBD94F889
:101B1000440028B9002084F84500204600F00EF962
:101B200000BF002000907F48006840F480407D495D
:101B300008600846006800F48040009000BF00BFC5
:101B40007948006820F4000077490860084600687A
:101B5000216A084374490860206800F580500068D5
:101B600040F00101206800F58050016000BF20684E
:101B700000F58050006800F001000028F7D12068CF
:101B8000056925F01C0500F037FE064667488642C9
:101B900005D36748864202D245F008051AE064483A
:101BA000864205D35E48864202D245F00C0511E01C
:101BB0005B48864203D35F48864200D20AE05D4814
:101BC000864205D35C48864202D245F0040501E016
:101BD00045F0100520680561606800287ED000F09F
:101BE000BFFB019000BF02AA0121204600F04CF982
:101BF00000F0B6FB0199401A42F2107188420ED9EA
:101C0000012739462046FFF7D3FC012084F8440021
:101C100000BF002084F8450000BF032076E702984B
:101C200000F004000428DED182020021204600F0EA
:101C30003BFA40B1012739462046FFF7B9FC0120A5
:101C400084F8440062E700F08BFB019000BF02AA19
:101C50000121204600F018F900F082FB0199401A9A
:101C600042F2107188420ED9012739462046FFF70B
:101C70009FFC012084F8440000BF002084F8450048
:101C800000BF032042E7029800F020002028DED1A8
:101C900002AA1F21204600F0F7F840B1012739467B
:101CA0002046FFF785FC012084F844002EE70298C7
:101CB00000F0100020B14FF40061E16002E00DE09F
:101CC0000021E160029800F00400042802D1002104
:101CD000A1601CE04FF48041A16018E0E068C0F30F
:101CE000CF00A168C1F34F0140EA01020021204664
:101CF00000F0DAF940B1012739462046FFF758FCD9
:101D0000012084F8440001E7FF20FFF706FE394672
:101D10002046FFF74DFC012084F844000020F5E642
:101D2000008793034438024004380140002D3101FC
:101D3000C00E160200E1F50580D1F00810B586B09E
:101D4000044600BF00BF002000904A48006840F0F1
:101D50000070484908600846006800F00070009074
:101D600000BF00BF00BF002000900846006840F0A0
:101D7000806008600846006800F08060009000BF46
:101D800000BF00BF002000900846006840F00060DF
:101D900008600846006800F00060009000BF00BFC7
:101DA00000BF00BF002000900846006840F001001E
:101DB00008600846006800F00100009000BF00BF06
:101DC00000BF002000900846006840F00200086054
:101DD0000846006800F00200009000BF00BF00BF8E
:101DE000002000900846006840F0040008600846A3
:101DF000006800F00400009000BF00BF00BF00209A
:101E000000900846006840F04000086008460068FE
:101E100000F04000009000BF00BF8620019002202B
:101E2000029000200390032004900B20059001A94C
:101E3000114800F081F94FF40060019001A90F48AA
:101E400000F07AF93220019001A90D4800F074F9F0
:101E50004FF4C040019001A90A4800F06DF9022238
:101E600001213D2000F0CCFA3D2000F0BCFA06B084
:101E700010BD000030380240000002400004024063
:101E80000008024000180240F8B504460E46174606
:101E900000250020009094F84400822801D10220FF
:101EA000F8BD822084F844002068056905F01C050F
:101EB000208A4FF4784101EAC0200543481100EA26
:101EC0008610054325F0020545F0010520680561EF
:101ED00000F046FA009012E000F042FA0099401A31
:101EE000B0F5803F09D3012084F8440000BF0020F2
:101EF00084F8450000BF0320D2E72068056905F09B
:101F000001000028E8D12068406980B238600120D3
:101F100084F844000020C3E710B5044600BF94F8DD
:101F20004500012801D1022010BD012084F84500A0
:101F300000BF022084F844002046FFF76FFC2046D3
:101F4000FFF758FC2046FFF7D0FA2046FFF7C2FA09
:101F50002046FFF7B4FA012084F8440000BF0020B7
:101F600084F8450000BF00BFDEE770B502460023DD
:101F70000025002400BF92F84500012801D102206D
:101F800070BD012082F8450000BF022082F84400A5
:101F900049B9012082F8440000BF002082F84500C2
:101FA00000BF0120ECE7D06A006800F0004048B1B3
:101FB000122082F8440000BF002082F8450000BFD4
:101FC0000120DDE740F2F450814208D9B1FBF0F383
:101FD000B1FBF0F600FB161010B15B1C00E0012312
:101FE000012B13D1D06A006840F04050D66A3060AF
:101FF000C1F30C00D66A7060D06A006840F00040FF
:10200000D66A3060D06AC068D06232E000242EE028
:10201000D06A006820F04050D66A30602CB9D06A8F
:10202000006840F08050D66A306040F2F450D66AC2
:102030007060581EA04210D1D06A006840F0005075
:10204000D66A3060581EC0EBC01000EB4000A1EB18
:102050008005C5F30C00D66A7060D06A006840F055
:102060000040D66A3060D06AC068D062641C9C426E
:10207000CED3106800F58050406900F0040048B1EC
:102080000426106800F5805046610026106800F5AF
:1020900080504660012082F8440000BF002082F892
:1020A000450000BF00BF6BE72DE9F04104460E4636
:1020B00017460025A84694F84400422802D1022081
:1020C000BDE8F081422084F844002068056905F0ED
:1020D0001C05208A4FF4784101EAC02005434811CD
:1020E00000EA8610054345F0020545F00105B8B247
:1020F000216848612068056100F032F9804612E0ED
:1021000000F02EF9A0EB0800B0F5803F09D30120C4
:1021100084F8440000BF002084F8450000BF03207D
:10212000CEE72068056905F001000028E8D101200C
:1021300084F844000020C3E7F8B502460B460025AA
:10214000002400200021E6E0012606FA01F51E68C1
:1021500006EA0504AC4273D15E68022E02D05E68C6
:10216000122E13D1CF0802F1200656F827004E0791
:10217000F70E0F26BE40B0434F07FF0E1E69BE404C
:102180003043CF0802F1200646F8270010684F00C0
:102190000326BE40B0431E7906F003064F00BE4042
:1021A000304310605E68012E08D05E68022E05D0B4
:1021B0005E68112E02D05E68122E13D190684F0017
:1021C0000326BE40B0434F00DE68BE4030439060FF
:1021D000506801268E40B0431E79C6F300168E402B
:1021E00030435060D0684F000326BE40B0434F00DC
:1021F0009E68BE403043D0605E6806F08056B6F1FF
:10220000805FA8D100BF00260096454E366846F490
:102210008046434F3E603E46366806F48046009650
:1022200000BF00BF3F4E8F0856F827008E07370FBC
:102230000F26BE40B0433C4EB24202D100262EE0F3
:1022400068E03A4EB24201D1012628E0384EB2424F
:1022500001D1022623E0374EB24201D103261EE00F
:10226000354EB24201D1042619E0344EB24201D1BA
:10227000052614E0324EB24201D106260FE0314E5F
:10228000B24201D107260AE02F4EB24201D1082600
:1022900005E02E4EB24201D1092600E00A268F0742
:1022A0003F0FBE4030431F4E8F0846F82700284E90
:1022B0003068A0435E6806F48036B6F5803F00D1F2
:1022C0002043234E3060361D3068A0435E6806F41C
:1022D0000036B6F5003F00D120431D4E361D30605C
:1022E000361D3068A0435E6806F48016B6F5801F80
:1022F00000D12043164E08363060361D3068A043AA
:102300005E6806F40016B6F5001F00D12043104E9B
:102310000C363060491C1029FFF416AFF8BD0000E0
:1023200044380240083801400000024000040240E6
:1023300000080240000C024000100240001402405D
:1023400000180240001C024000200240002402400D
:10235000003C01400AB1816101E00B0483617047D8
:10236000014800687047000014000020024800681F
:10237000401C0149086070471400002010B50D484A
:10238000006840F400700B4908600846006840F49B
:10239000806008600846006840F48070086005208E
:1023A00000F06CF80F2000F007F800F017F800209C
:1023B00010BD0000003C024070B5044600F01CFA5D
:1023C0004FF47A71B0FBF1F5284600F040FF00228F
:1023D0002146501E00F014F8002070BD08B5002002
:1023E000009000BF08BD00BF00F01F020121914016
:1023F0004209920002F1E022C2F8001100BF7047CA
:102400002DE9F05F80460D461646002701F00CFCD2
:10241000074639462A46334601F00700C0F1070A4D
:10242000BAF1040F02D94FF0040A01E0C0F1070A23
:10243000D14600F1040ABAF1070F02D24FF0000AA8
:1024400001E0A0F1030AD4464FF0010A0AFA09FAA2
:10245000AAF1010A0AEA020A0AFA0CFA4FF0010B81
:102460000BFA0CFBABF1010B0BEA030B4AEA0B0472
:102470002146404601F0E0FBBDE8F09F00BF00F0C0
:102480000702064B19684FF6FF031940044B0B4334
:1024900043EA0221014B196000BF70470CED00E0D8
:1024A0000000FA0538B5002400BF00200090234842
:1024B000006840F08050214908600846006800F03C
:1024C0008050009000BF00BF0120010491FAA1F1EB
:1024D000B1FA81F11A4A42F82100FFF741FF0446A0
:1024E00007E0FFF73DFF001BB0F57A7F01D903201D
:1024F00038BD1448406800F48030B0F5803FF0D11A
:102500000120410491FAA1F1B1FA81F10C4A42F89B
:102510002100FFF725FF044607E0FFF721FF001B1E
:10252000B0F57A7F01D90320E2E70648406800F45D
:102530000030B0F5003FF0D10020D9E7403802402C
:1025400000000E420070004070B504460E460025A3
:10255000A748006800F00F00B0426FD2A4490E7087
:102560000846006800F00F00B04201D0012070BDA5
:10257000207800F00200022807D19E48006820F071
:10258000F000A16808439B490860207800F0010032
:1025900000283ED06068012807D1964808380068B6
:1025A000C0F34040B8B90120E1E76068022802D0DA
:1025B0006068032807D18F4808380068C0F340607E
:1025C00048B90120D3E78B4808380068C0F34000C1
:1025D00008B90120CBE78748006820F00300616854
:1025E000084384490860FFF7BBFE05466068012880
:1025F00010D108E0FFF7B4FE401B41F28831884259
:1026000001D90320B3E77B48006800F00C000428E0
:10261000F0D1CDE06068022811D108E0FFF7A0FEFC
:10262000401B41F28831884201D903209FE771485D
:10263000006800F00C000828F0D1B9E024E06068E0
:10264000032810D108E0FFF78BFE401B41F28831D0
:10265000884201D903208AE76648006800F00C0030
:102660000328F0D1A4E008E0FFF77AFE401B41F216
:102670008831884201D9032079E75E48006800F07C
:102680000C000028F0D193E0207800F0020002282E
:1026900007D15848006820F0F000A1680843554968
:1026A0000860207800F00100002877D060680128D9
:1026B00007D1504808380068C0F34040B8B901203D
:1026C00055E76068022802D06068032807D14948AE
:1026D00008380068C0F3406048B9012047E7454822
:1026E00008380068C0F3400008B901203FE74148BE
:1026F000006820F00300616808433E490860FFF766
:102700002FFE05466068012810D108E0FFF728FE7B
:10271000401B41F28831884201D9032027E7354820
:10272000006800F00C000428F0D137E0606802284F
:1027300010D108E0FFF714FE401B41F288318842B7
:1027400001D9032013E72B48006800F00C0008288B
:10275000F0D123E06068032810D108E0FFF700FE05
:10276000401B41F28831884201D90320FFE621480D
:10277000006800F00C000328F0D10FE008E0FFF73C
:10278000EFFD401B41F28831884201D90320EEE67B
:102790001848006800F00C000028F0D114490E70B1
:1027A0000846006800F00F00B04201D00120DEE6CC
:1027B000207800F00400042807D10E48006820F4B7
:1027C000E050E16808430B490860207800F00800F9
:1027D000082808D10748006820F46040216940EAD1
:1027E000C100044908600F20FFF7E6FD0020BEE6A7
:1027F000003C02400838024010B500F045F8094995
:10280000096801F0F001F02292FAA2F2B2FA82F223
:10281000D140054A515CC840044908600846006838
:1028200010BD000008380240FA3E010800000020F8
:1028300010B5FFF7E1FF0749096801F4E0514FF4D3
:10284000E05292FAA2F2B2FA82F2D140024A515C0C
:10285000C84010BD08380240FA3E010810B5FFF725
:10286000CBFF0749096801F460414FF4604292FAD6
:10287000A2F2B2FA82F2D140024A515CC84010BDC5
:1028800008380240FA3E010870B5002100220023FA
:102890000020274C246804F00C0424B1042C04D03C
:1028A000082C41D103E0234840E023483EE0204C7F
:1028B000241F246804F03F011D4C241F246804F4E5
:1028C000800484B11C4CB4FBF1F5194C241F24681E
:1028D00047F6C076344096FAA6F6B6FA86F6F44085
:1028E00005FB04F20FE0134CB4FBF1F5104C241F70
:1028F000246847F6C076344096FAA6F6B6FA86F60D
:10290000F44005FB04F20A4C241F246804F440340C
:102910004FF4403595FAA5F5B5FA85F5EC40641C01
:102920006300B2FBF3F001E0024800BF00BF70BDDE
:10293000083802400024F40040787D0138B5044690
:102940000025207800F00100002866D0F7480068D4
:1029500000F00C0004280DD0F448006800F00C00D2
:10296000082813D1F148001F006800F48000B0F57A
:10297000800F0BD1ED4808380068C0F340400028B4
:102980004BD06068002848D1012038BD0020E749BD
:10299000891F0870FFF7E4FC054608E0FFF7E0FC3C
:1029A000401B41F28831884201D90320EDE7DF481E
:1029B00008380068C0F340400028EFD12079DB4997
:1029C000891F08706068A0B1FFF7CAFC054608E0DF
:1029D000FFF7C6FC401B41F28831884201D9032031
:1029E000D3E7D24808380068C0F340400028EFD051
:1029F00013E0FFF7B5FC054608E0FFF7B1FC401B0C
:102A000041F28831884201D90320BEE7C74808381F
:102A10000068C0F340400028EFD1207800F00200A9
:102A2000022869D1C148006800F00C0058B1BF48C5
:102A3000006800F00C00082821D1BC48001F006885
:102A400000F48000D8B9B94808380068C0F34000E5
:102A500020B1E068012801D0012096E7B34808388A
:102A6000006820F0F800F82292FAA2F2B2FA82F29C
:102A7000216991400843AD49083908603CE0E068AD
:102A800028B30120AA490860FFF76AFC054606E062
:102A9000FFF766FC401B642801D9032075E7A348B3
:102AA00008380068C0F340000028F1D09F4808387B
:102AB000006820F0F800F82292FAA2F2B2FA82F24C
:102AC00021699140084399490839086014E00020C1
:102AD00097490860FFF744FC054606E0FFF740FC15
:102AE000401B642801D903204FE79048083800684C
:102AF000C0F340000028F1D1207800F00800082839
:102B00002CD16069A8B101208A490860FFF728FC30
:102B1000054606E0FFF724FC401B642801D903208A
:102B200033E782486C300068C0F340000028F1D0E1
:102B300014E000207F490860FFF712FC054606E01C
:102B4000FFF70EFC401B642801D903201DE77748DE
:102B50006C300068C0F340000028F1D1207800F00C
:102B6000040004286FD100BF002000906F48383067
:102B7000006840F080506D493831086008460068B0
:102B800000F08050009000BF00BF6B48006840F428
:102B9000807069490860FFF7E3FB054606E0FFF730
:102BA000DFFB401B642801D90320EEE66248006881
:102BB00000F480700028F2D000205C496831087071
:102BC000FFF7CEFB054608E0FFF7CAFB401B41F2CA
:102BD0008831884201D90320D7E65448683000681C
:102BE000C0F340000028EFD1207A504968310870C6
:102BF000A068A0B1FFF7B4FB054608E0FFF7B0FB03
:102C0000401B41F28831884201D90320BDE6474884
:102C100068300068C0F340000028EFD013E0FFF7F1
:102C20009FFB054608E0FFF79BFB401B41F2883104
:102C3000884201D90320A8E63C4868300068C0F308
:102C400040000028EFD1A069F0B33848006800F0D8
:102C50000C00082872D0A069022850D10020344905
:102C60000866FFF77DFB054606E0FFF779FB401B92
:102C7000642801D9032088E62C4808380068C0F38E
:102C800040600028F1D1D4E90701084347F6C0723B
:102C900092FAA2F2B2FA82F2616A914008430122EA
:102CA000A16AC2EB51014FF4403292FAA2F2B2FA99
:102CB00082F2914008434FF0706292FAA2F2B2FAA7
:102CC00082F2E16A914000E03AE008431749091FA7
:102CD0000860012016490866FFF742FB054606E03A
:102CE000FFF73EFB401B642801D903204DE60F4847
:102CF00008380068C0F340600028F1D020E00020D0
:102D00000B490866FFF72CFB054606E0FFF728FB9A
:102D1000401B642801D9032037E6044808380068BE
:102D2000C0F340600028F1D10AE007E00838024013
:102D300000004742800E474200700040012024E618
:102D4000002022E610B50446206C10B1206CFEF77E
:102D5000B5FD606C10B1606CFEF7B0FD2068406896
:102D600020F00200216848602068406820F00100DF
:102D700021684860012084F85100002010BD10B582
:102D800004460CB9012010BD94F8510028B9002068
:102D900084F85000204600F037F8022084F85100F3
:102DA0002068006820F0400021680860D4E9010133
:102DB0000843E16808432169084361690843218B9E
:102DC00001F400710843E1690843216A0843A16ADC
:102DD0000843216808600421A06901EA1040616A83
:102DE0000843216848602168E06A08612068C0697A
:102DF00020F400602168C86100206065012084F82B
:102E000051000020BFE7000010B586B0044600BFA7
:102E1000002000902D48006840F002002B49086017
:102E20000846006800F00200009000BF00BF00BF2D
:102E3000002000900846006840F020000860084626
:102E4000006800F02000009000BF00BF00BF00201D
:102E500000900846006840F00400086008460068DA
:102E600000F00400009000BF00BF00BF00200090F1
:102E700016481030006840F40040144910310860D2
:102E80000846006800F40040009000BF00BF00BF8B
:102E9000002000900846006840F480400860084622
:102EA000006800F48040009000BF00BF4FF4604015
:102EB000019002200290039004900520059001A942
:102EC0000348FFF739F906B010BD00003038024062
:102ED000000402402DE9F84F04460E4617461D46F1
:102EE000DDF828904FF00008C24694F85180B8F100
:102EF000010F02D0B8F1220F76D10EB107B115B98A
:102F00000120BDE8F88F00BF94F85000012801D1DE
:102F10000220F6E7012084F8500000BF94F8510029
:102F2000012802D1322084F8510000206065A76397
:102F3000A587E5872663A586E586A064E064A06A88
:102F4000B0F5005F0DD100BF2068006820F400508C
:102F5000216808602068006840F40050216808601B
:102F600000BF2068006800F04000402805D02068BD
:102F7000006840F0400021680860E068B0F5006F2C
:102F800075D1606830B16068B0F5827F0CD1E08E99
:102F9000012809D1206B00882168C860206B801C43
:102FA0002063E08E401EE086E08EF0B9A06AB0F5A6
:102FB000005F05D12068006840F4805021680860F7
:102FC0004B4600220121204602F0D2FB08B103202B
:102FD00097E72068C068A16B0880A06B801CA06385
:102FE000E08F401EE087C7E01BE131E04B46002246
:102FF0000221204602F0BCFB08B1032081E7206BD0
:1030000000882168C860206B801C2063E08E401E11
:10301000E086E08E48B9A06AB0F5005F05D120686F
:10302000006840F48050216808604B46002201216E
:10303000204602F09DFB08B1032062E72068C068CB
:10304000A16B0880A06B801CA063E08F401EE0870E
:10305000E08E0028CADC60680028C4D14B460022FC
:103060000121204602F084FB10B1032049E70AE069
:103070002068C068A16B0880A06B801CA063E08FF3
:10308000401EE08778E0606830B16068B0F5827F0C
:103090000BD1E08E012808D1216B481C20630878F1
:1030A0002168C860E08E401EE086E08ED0B9A06A3C
:1030B000B0F5005F05D12068006840F480502168B9
:1030C00008604B4600220121204602F051FB08B166
:1030D000032016E72068C068A16B0870E08F401ECF
:1030E000E08749E030E04B4600220221204602F012
:1030F0003FFB08B1032004E7216B481C20630878DC
:103100002168C860E08E401EE086E08E48B9A06A63
:10311000B0F5005F05D12068006840F48050216858
:1031200008604B4600220121204602F021FB08B135
:103130000320E6E62068C068C1B2A26B501CA06301
:103140001170E08F401EE087E08E0028CBDC6068C5
:1031500090B94B4600220121204602F009FB08B13C
:103160000320CEE62068C068C1B2A26B501CA063E9
:103170001170E08F401EE087A06AB0F5005F12D1A9
:103180004B4600220121204602F0F2FA28B1606D80
:1031900040F0020060650320B3E62068C06880B29A
:1031A0000090BDF800004B4601228021204602F02D
:1031B000DFFA28B1606D40F0200060650320A0E6D2
:1031C000012084F8510020688068C0F3001AA06ACA
:1031D000B0F5005F1FD1BAF1000F1CD0606D40F058
:1031E00002006065A06AB0F5005F0DD100BF2068E5
:1031F000006820F40050216808602068006840F4EE
:1032000000502168086000BF00BF002084F8500013
:1032100000BF012075E600BF002084F8500000BF09
:103220006FE602206DE6042808D14FF0E02109691D
:1032300041F004014FF0E022116107E04FF0E0217E
:10324000096921F004014FF0E0221161704770B567
:1032500004462546681EB0F1807F01D301200FE0AF
:10326000681E4FF0E02148610F214FF0FF3000F061
:10327000E3FC00204FF0E021886107200861002076
:1032800070BD7047704710B504460CB9012010BDE1
:1032900094F8390028B9002084F83800204600F05E
:1032A0000DF8022084F83900211D206802F03CFC52
:1032B000012084F839000020E9E7000038B5044611
:1032C00000BF002000900B48006840F00200094950
:1032D00008600846006800F00200009000BF00BFD0
:1032E000012202211D20FFF78BF81D20FFF77BF83C
:1032F00038BD00004038024001460868C06840F010
:1033000001000A68D0600868006840F001000A689F
:10331000106000207047704710B5044620680069AF
:10332000C0F34000D8B12068C068C0F34000B0B11D
:103330006FF0020021680861012020762068806912
:1033400000F0030018B12046FFF7E5FF05E0204636
:1033500000F0ADF8204600F0ABF8002020762068A1
:103360000069C0F38000D8B12068C068C0F3800055
:10337000B0B16FF004002168086102202076206857
:10338000806900F4407018B12046FFF7C4FF05E0E3
:10339000204600F08CF8204600F08AF800202076C5
:1033A00020680069C0F3C000D8B12068C068C0F3CD
:1033B000C000B0B16FF008002168086104202076D9
:1033C0002068C06900F0030018B12046FFF7A3FF92
:1033D00005E0204600F06BF8204600F069F8002078
:1033E000207620680069C0F30010D8B12068C0685A
:1033F000C0F30010B0B16FF0100021680861082020
:1034000020762068C06900F4407018B12046FFF7AC
:1034100082FF05E0204600F04AF8204600F048F818
:10342000002020762068006900F0010058B1206873
:10343000C06800F0010030B16FF001002168086140
:10344000204600F036F820680069C0F3C01058B17B
:103450002068C068C0F3C01030B16FF080002168F0
:1034600008612046FFF70DFF20680069C0F3801057
:1034700058B12068C068C0F3801030B16FF04000D0
:1034800021680861204600F015F820680069C0F343
:10349000401058B12068C068C0F3401030B16FF0E0
:1034A0002000216808612046FFF7ECFE10BD704740
:1034B0007047704770477047014691F83900704770
:1034C000F8B50446002500262068006800F00105D4
:1034D0002068C06800F480767DB176B100BF00201E
:1034E000009020680068009020684068009000BF4D
:1034F00000BFE06B40F00100E06320680068C0F3AB
:1035000040052068406900F001067DB176B100BF3A
:1035100000200090206800680090206840680090BB
:1035200000BF00BFE06B40F00400E063206800686B
:10353000C0F380052068406900F001067DB176B1D6
:1035400000BF00200090206800680090206840685C
:10355000009000BF00BFE06B40F00200E063206815
:103560000068C0F3C0052068406900F001067DB125
:1035700076B100BF002000902068006800902068AD
:103580004068009000BF00BFE06B40F00800E063BF
:1035900020680068C0F340152068C06800F020066D
:1035A0001DB116B1204602F079FB20680068C0F317
:1035B000C0152068C06800F080061DB116B1204615
:1035C00002F0DCFC20680068C0F380152068C06849
:1035D00000F040061DB116B1204602F047FBE06B3B
:1035E00028B1012084F839002046FFF764FFF8BDB8
:1035F00010B504460CB9012010BDA06900B100E06F
:1036000000BF94F8390028B9002084F8380020461B
:1036100000F026F8022084F839002068C06820F401
:1036200000502168C860204602F096FB20680069BF
:1036300020F49040216808612068406920F02A0049
:10364000216848612068C06840F400502168C86063
:103650000020E063012084F839000020CCE700005E
:1036600010B586B004462249206888423ED100BF8A
:10367000002000901F48006840F001001D490860CC
:103680000846006800F00100009000BF00BF00BFC6
:103690000020009017481430006840F010001549D1
:1036A000143108600846006800F01000009000BF68
:1036B00000BF4815019002200290012003900220D3
:1036C00004900720059001A90B48FEF735FD4FF443
:1036D0008060019001A90848FEF72EFD2520FEF725
:1036E00082FE032211462520FEF78AFE06B010BD99
:1036F00000100140303802400000024030B503465F
:10370000002493F83940012C01D0122C37D101B19B
:103710000AB9012030BD00BF93F83800012801D15B
:103720000220F7E7012083F8380000BF99629A85EC
:10373000DA850020D86393F83900122803D13220AB
:1037400083F8390002E0222083F839001868C06845
:1037500040F480701D68E8601868406940F001001E
:103760001D68686100BF002083F8380000BF18683A
:10377000C06840F020001D68E8600020CAE7022011
:10378000C8E700001D4A0168914236D11C490988EA
:1037900001F4004189BB1A49098801F4804171B1E3
:1037A000184909780A2903D00021154A118024E01C
:1037B0001349098841F40041114A11801DE0114963
:1037C00009780D2906D10E49098841F480410C4A37
:1037D000118012E00B490978094A1288C2F30D02E0
:1037E000094B995406490988491C054A118011461C
:1037F0000988C72901DD00211180704700100140B0
:1038000024000020260000201C0D0020704700BF6F
:10381000FEE7000010B500200F4908600F4800685F
:1038200020F040700D4908600846006840F0807044
:10383000086000200A49C1F8B002022002F024FD0D
:10384000012005490860022002F01EFD0020044905
:10385000C1F8AC0210BD0000AC02404200000240C2
:103860000000404200B587B000BF00200190104822
:10387000006840F001000E4908600846006800F04A
:103880000100019000BF00BF4FF4C0500290012022
:10389000039004900220059002A90648FEF74CFC14
:1038A0000120054908600549C1F8AC0207B000BD18
:1038B0003038024000000240B00240420000404266
:1038C00010B500200F4908600F48006820F04070D4
:1038D0000D4908600846006840F0807008600120CB
:1038E0000A49C1F8B002022002F0CEFC01200549CD
:1038F0000860022002F0C8FC00200449C1F8AC02B4
:1039000010BD0000AC0240420000024000004042F6
:1039100070B5054600241648006820F04070144930
:103920000860084600680860002616E0002011497B
:103930000860022002F0A8FC01200F49C1F8AC0287
:103940006006040E0B487C38006808B1601CC4B2E5
:10395000022002F099FC701CC6B2082EE6DB15B9F5
:10396000FFF7AEFF01E0FFF755FF204670BD0000F6
:1039700000000240AC0240420000404270B50446E4
:103980001548006820F04070134908600846006838
:1039900040F080700860002010490860002517E0A2
:1039A000E0090E49091D08606006040E022002F0BD
:1039B0006BFC01200A49C1F8AC02022002F064FC51
:1039C000002006490860012002F05EFC681CC5B2B8
:1039D000082DE5DB70BD000000000240AC02404253
:1039E0000000404210B50F48006820F040700D49BB
:1039F00008600846006840F08070086001200A49AD
:103A000008600A49C1F8AC02042002F03DFC002025
:103A100005490860042002F037FC00200349C1F882
:103A2000AC0210BD00000240B00240420000404223
:103A300010B50F48006820F040700D490860084636
:103A4000006840F08070086000200A4908600A4958
:103A5000C1F8B002042002F017FC012005490860FB
:103A60000549C1F8B002042002F00EFC10BD0000B0
:103A700000000240AC0240420000404210B5002469
:103A80001448006820F04070124908600846006839
:103A90000860012010490860022002F0F5FB0120B7
:103AA0000E49C1F8AC02022002F0EEFB07E0601CF8
:103AB000C4B2FA2C03DDFFF7BBFF012010BD06489E
:103AC000803800680028F2D10349091F086000BF50
:103AD000F4E7000000000240B00240420000404213
:103AE00000B589B000BF002001903148006840F067
:103AF00001002F4908600846006800F001000190AD
:103B000000BF00BF402002901120039000200490CD
:103B10000320059002A92748FEF70EFBFCF7C7FB20
:103B2000002240212348FEF715FC642002F076FBBA
:103B3000012240211F48FEF70DFC642002F06EFBBD
:103B4000FCF7B7FB1C4800788DF81C001A48407839
:103B50008DF81D00184880788DF81E001648C07832
:103B60008DF81F00144800798DF820001248407924
:103B70008DF8210011481249086001204860810336
:103B80000F488160C910C1600021018207A941610D
:103B9000012181610021C1614FF400010162FDF743
:103BA000ABFF10B9002009B000BD0120FBE7000009
:103BB000303802400000024000C001200080024076
:103BC000240E002000B587B000BF002001901248ED
:103BD000006840F00200104908600846006800F0E4
:103BE0000200019000BF00BF03200290012003905B
:103BF00004900320059002A90848FEF79DFA0122CF
:103C000011460648FEF7A6FB012202210348FEF7F3
:103C1000A1FB07B000BD00003038024000040240A4
:103C200000BFFEE77047000002480068C0F30220B2
:103C3000704700000CED00E010B5002807DA0A0715
:103C4000140E054A00F00F031B1FD45403E00A07AB
:103C5000130E024A135410BD18ED00E000E400E01A
:103C60002DE9F04105460E4614460027114800781C
:103C700018B112202070BDE8F0812878012808D002
:103C8000022807D0032802D0042804D100E000BF96
:103C900000BF00BF02E001202070ECE700BFFCF78E
:103CA00057FB07466E613846FCF756FB0020207034
:103CB00000BFE0E71503002010B500F013F801F095
:103CC000FBF901F027FA01F047FA01F0C5F901F01C
:103CD00085F901F0DBFA01F07FFA01F0A5FA00F0B6
:103CE00019F810BD0848802102E0491E002204C0D6
:103CF0000029FAD1054A064B1A601A46126822F0CA
:103D000007021A6070470000A0E50120A0E701202B
:103D1000480300207047000006480078012808D1B9
:103D200005480078FF2804D203480078401C024967
:103D300008707047220300201503002010B50024EE
:103D40001A480078012830D1FCF702FB04461848D5
:103D5000007820B116480078401E154908701448B4
:103D60000078F8B913480078E0B901F0F1FA124888
:103D70001249097850F82100114908600F4800786D
:103D80001049097888420DD00D480068C06B401C6E
:103D90000B490968C8630C480068401C0A49086060
:103DA000FCF7F6FA2046FCF7D7FA10BD22030020F4
:103DB000150300201603002020DC0120180300203A
:103DC0003003002017030020FC0200202DE9F04101
:103DD00006460F464FF000082048007810B100203A
:103DE000BDE8F081FCF7B4FA80461D48046800681D
:103DF00020B11B4800684068194908604046FCF73C
:103E0000ABFAFCB1FCF7A4FA804616480568D5B1B8
:103E100000680068134908604046FCF79DFA6E6030
:103E200006EB8700A860EE602E61AF820020E8827A
:103E3000022020700020208165600BA06061204678
:103E400001F0BEF808E006480068606004480460BD
:103E50004046FCF781FA00242046C1E71503002004
:103E6000000300203C0300203F0000002DE9F04744
:103E70000446894615464FF0000A2078022804D0EF
:103E8000012028702046BDE8F0873548007818B139
:103E90000F2028702046F6E7FCF75AFA8246A07AEF
:103EA00010B14FF0010801E04FF00008B9F1000F28
:103EB00003D0B9F1010F49D121E0B8F1000F17D1BA
:103EC00028A060616668284800683060264806605F
:103ED0000020207025480068606000202081234871
:103EE00004605046FCF738FA00202870002705E0EF
:103EF0005046FCF731FA4920287027462DE005E0AE
:103F0000022304220021204600F0A0FFA07A00280E
:103F1000F6D114A0606166681348006830601248EA
:103F20000660002020701148006860600020208139
:103F30000E4804605046FCF70FFAB8F1010F01D1AA
:103F400001F0CCF900202870002706E05046FCF76D
:103F500003FA07202870274600BF00BF384692E7C3
:103F6000150300203F0000003C0300200003002058
:103F70002DE9F0470746884615464FF00009387886
:103F8000022804D0012028700020BDE8F0873E48B8
:103F9000007818B1022028700020F6E73B4800782E
:103FA00018B10D2028700020EFE7FCF7D1F9814609
:103FB0007C68E08A98B12169081D20610E68E08A5A
:103FC000401EE082A1682069884201D160682061BA
:103FD0004846FCF7C1F9002028703046D5E72C4848
:103FE000006890F8340040F004002949096881F81D
:103FF000340000202649096881F83500244800680B
:10400000C0F83080384600F09DFF4846FCF7A4F920
:1040100001F064F9FCF79CF981461D48006890F8AE
:10402000350020B101280DD002280AD105E018483A
:104030000068466A002028700DE000260E202870D7
:1040400009E000BF39461248006800F047FF00262B
:104050000A20287000BF00BF00200D49096881F8C0
:1040600034000B49096881F8350009490968C861BD
:104070000749096808620649096848624846FCF72A
:104080006BF9304681E7000015030020160300207D
:10409000280300202DE9F04105460E460027287828
:1040A000022802D00120BDE8F081FCF751F9074653
:1040B000A87A60B1002304223146284600F0C6FEEB
:1040C0003846FCF749F901F009F90020EBE76C6884
:1040D000E08AA18A884204DB3846FCF73DF91E20BD
:1040E000E1E7E168081DE0600E60E08A401CE082C4
:1040F000D4E90210884201D16068E0603846FCF7DC
:104100002BF90020CFE72DE9F04705460C464FF08C
:10411000000A2878022802D00120BDE8F087FCF7C9
:1041200017F98246A87A207405F10B0804F10809F2
:10413000002705E018F8010B09F8010B781CC7B23D
:10414000082FF7D36E68F08A18B1306900682060D4
:1041500001E000202060F08AA080B08AE080504614
:10416000FCF7FAF80020D8E710B500240B480078D7
:10417000012811D1FCF7ECF804460948007840B951
:1041800008480078FF2804D206480078401C0549FA
:1041900008702046FCF7E0F810BD00002203002064
:1041A000150300201603002010B5002413480078E2
:1041B000012821D1FCF7CCF8044611480078C0B999
:1041C0001048007888B10F480078401E0D490870EB
:1041D0000846007828B92046FCF7BEF801F07EF8C2
:1041E0000AE02046FCF7B8F806E02046FCF7B4F8F1
:1041F00002E02046FCF7B0F810BD000022030020CA
:10420000150300201603002070B50546002610484F
:10421000007808B1002070BDFCF79AF806460D48FA
:104220000468006820B10B480068406809490860CC
:104230003046FCF791F84CB1032020702581002016
:10424000606005A06061204600F0BAFE2046E2E70B
:1042500015030020000300203F0000002DE9F04777
:104260000446884615464FF000092078032804D0FC
:10427000012028702046BDE8F0872D48007818B14D
:104280000F2028702046F6E7FCF762F88146A07AF6
:1042900008B1012700E00027B8F1000F03D0B8F102
:1042A000010F3AD119E08FB922A06061002020707F
:1042B000214800686060002020811F480460484653
:1042C000FCF74AF800202870002605E04846FCF775
:1042D00043F849202870264626E005E00223012203
:1042E0000021204600F0B2FDA07A0028F6D111A0EE
:1042F000606100202070104800686060002020810C
:104300000D4804604846FCF727F8012F01D100F062
:10431000E5FF00202870002606E04846FCF71CF860
:1043200007202870264600BF00BF3046A3E70000E4
:10433000150300203F000000000300202DE9F0419C
:1043400005460E46144600272878032803D001208E
:104350002070BDE8F0813248007810B10220207052
:10436000F7E73048007810B10D202070F1E7FBF737
:10437000EFFF0746288940B12889401E288138462A
:10438000FBF7EAFF00202070E3E72748006890F879
:10439000340040F001002449096881F8340000200D
:1043A0002149096881F835001F48006806632846DE
:1043B00000F0C8FD3846FBF7CFFF00F08FFFFBF79A
:1043C000C7FF07461848006890F8350020B101285B
:1043D00009D0022806D102E0002020700BE00E2058
:1043E000207008E000BF29460F48006800F076FD05
:1043F0000A20207000BF00BF00200B49096881F827
:1044000034000949096881F8350007490968C8611D
:104410000549096808623846FBF79EFF00BF98E728
:1044200015030020160300202803002070B5044661
:1044300000252078032801D0012070BDFBF788FFFC
:104440000546A07A60B1002301221946204600F0FB
:10445000FDFC2846FBF780FF00F040FF0020ECE762
:1044600020894FF6FF71884207D22089401C2081A5
:104470002846FBF771FF0020DFE72846FBF76CFFBB
:104480003320DAE72DE9F04704460D464FF00009E6
:104490002078032802D00120BDE8F087FBF758FF01
:1044A0008146A07AA87204F10B0705F102080026E4
:1044B00005E017F8010B08F8010B701CC6B2082EB6
:1044C000F7D3208928804846FBF746FF0020E3E722
:1044D00010B50B48007890B900F03AFF0948007811
:1044E0000949087009480749097850F82100084926
:1044F00008600846006807490860FBF730FF10BDF8
:1045000022030020180300201703002020DC0120D4
:10451000300300202803002010B50024022000F002
:104520009FFBFBF715FF044600200B49086020465F
:10453000FBF712FFC82000F093FBFBF709FF0446CE
:1045400005480068054908600120054908702046B3
:10455000FBF702FF10BD0000240300200C03002025
:104560001403002010B504462046FCF745FE10BD9C
:104570002DE9FE4F06460F4690461C464FF00009B7
:10458000FBF7E6FE81461F48007828B14846FBF756
:10459000E3FE3C20BDE8FE8F1B4850F8240060BBC2
:1045A0000120194941F824004846FBF7D5FE0023B5
:1045B00042463946304600F0CDF982460020009050
:1045C00001900346024651460290204600F0D6FE76
:1045D000054635B90D48007801280CD100F07EFE63
:1045E00009E0FBF7B5FE81460020074941F82400A9
:1045F0004846FBF7B1FE2846CCE74846FBF7ACFE41
:104600002820C7E71503002020DC0120220300201A
:104610002DE9F04F85B081468A4693461C46DDE978
:104620000F78129D00200390FBF792FE0390234821
:10463000007830B10398FBF78FFE3C2005B0BDE851
:10464000F08F1F4850F8240088BB01201C4941F816
:1046500024000398FBF780FE2A464146384600F0C6
:10466000BDFF2B465A465146484600F073F9049068
:104670001198CDE9008002953A4620460E9B049998
:1046800000F07CFE064636B90E48007801280CD1B1
:1046900000F024FE09E0FBF75BFE039000200849D0
:1046A00041F824000398FBF757FE3046C6E7FFE7C2
:1046B0000398FBF751FE2820C0E7000015030020F7
:1046C00020DC01202203002010B504462046FCF720
:1046D00094FD10BD2DE9F041054600274A480078B9
:1046E00010B14020BDE8F0813F2D01D13E20F9E717
:1046F000FBF72EFE0746FF2D03D14448006890F8D3
:104700003650434850F8254024B93846FBF724FE7C
:104710004320E7E7012C04D13846FBF71DFE3D207E
:10472000E0E714F8380F3B49085C6178884321784A
:10473000384A505414F838091146085C30B994F8D6
:104740003A1035480078884333490870E06918B159
:104750002046E16900F0C2FB206A18B12046216AB8
:1047600000F0D3FBA66A16B1304600F063FC0020CF
:10477000206384F8340084F8350028480078FF2846
:1047800004D226480078401C244908703846FBF7BC
:10479000E3FD00F059FBFBF7DBFD07461F480078FF
:1047A00020B11E480078401E1C490870204600F0C9
:1047B00041F81B480078401E194908700020144930
:1047C00041F82500A06930B9002061698861154968
:1047D0006069086005E0D4E905014861D4E9051085
:1047E00088611148006860610F4804600FA020656F
:1047F0003846FBF7B1FD0E480078012801D100F0E2
:104800006DFD00206EE70000150300202803002046
:1048100020DC01201A0300201903002016030020C9
:1048200023030020340300202C0300203F0000005D
:104830002203002010B504462046FCF7DFFC10BD23
:1048400010B5FCF7DCFC10BD2DE9F04106460F4623
:1048500014464FF000081548007818B11220207057
:10486000BDE8F081FBF774FD8046FF2E03D11048B0
:10487000006890F836600F4850F826502DB9404631
:10488000FBF76AFD43202070EAE7012D05D1404681
:10489000FBF762FD43202070E2E72F654046FBF7FF
:1048A0005BFD0020207000BFDAE700001503002048
:1048B0002803002020DC012010B504462046FCF728
:1048C0009FFC10BD10B5FCF79CFC10BD2DE9F04716
:1048D00007460D464FF0000A002028606860FBF78D
:1048E00037FD8246FF2F03D11848006890F83670D4
:1048F000174850F827402CB95046FBF72DFD4320B0
:10490000BDE8F087012C04D15046FBF725FD43207C
:10491000F6E7207C00F0010020B95046FBF71CFDB3
:104920004520EDE70026D4F80C90D4F808805046D6
:10493000FBF712FD00E0761C58F8041B0029FAD0A2
:104940002E60A9EB060068600020D9E7280300204C
:1049500020DC012070B50446101D20F007004FF048
:104960008076051F28462E60051F28462C60684E5D
:10497000051F28462E604FF01236051F28462E6070
:104980004FF00336051F28462E604FF00236051FF4
:1049900028462E607610051F28462E60051F2846E3
:1049A00029604FF01136051F28462E604FF0103653
:1049B000051F28462E604FF00936051F28462E6039
:1049C0004FF00836051F28462E604FF00736051FAA
:1049D00028462E604FF00636051F28462E604FF001
:1049E0000536051F28462E604FF00436051F284661
:1049F0002E6003F00405002D7ED0F605051F284625
:104A00002E60444E051F28462E60434E051F284643
:104A10002E60424E051F28462E60414E051F284637
:104A20002E60404E051F28462E603F4E051F28462B
:104A30002E603E4E051F28462E603D4E051F28461F
:104A40002E603C4E051F28462E603B4E051F284613
:104A50002E603A4E051F28462E60394E051F284607
:104A60002E60384E051F28462E60374E051F2846FB
:104A70002E60364E051F28462E604FF08346051FD8
:104A800028462E60324E051F28462E60314E051FE7
:104A900028462E60304E051F28462E602F4E051FDB
:104AA00028462E602E4E051F28462E602D4E051FCF
:104AB00028462E602C4E051F28462E604FF0824659
:104AC000051F28462E60294E051F28462E60284EB9
:104AD000051F28462E60274E051F28462E604FF0E2
:104AE0008146051F28462E60234E051F28462E604E
:104AF0003602051F284600E009E02E604FF07E5682
:104B0000051F28462E600026051F28462E6070BD12
:104B1000E55400080000F8410000F0410000E841C1
:104B20000000E0410000D8410000D0410000C84131
:104B30000000C0410000B8410000B0410000A841A1
:104B40000000A04100009841000090410000884111
:104B500000007041000060410000504100004041F1
:104B60000000304100002041000010410000E04002
:104B70000000C0400000A040000040402DE9F0418E
:104B800005464FF00008FBF7E3FB8046FF2D05D1FB
:104B90002048006890F83650012608E01D4800685B
:104BA00090F83600A84201D1012600E000261A48FC
:104BB00050F825402CB94046FBF7CEFB4820BDE815
:104BC000F081012C04D14046FBF7C6FB4320F6E7F9
:104BD00094F838701148C05D94F8391088430F4933
:104BE000C8550846C05D30B994F83A100C480078B2
:104BF00088430B49087094F8340040F0080084F8AA
:104C000034004046FBF7A8FB012E01D100F066FB03
:104C10000020D4E72803002020DC01201A03002014
:104C20001903002010B50C480068007C00F0040057
:104C300020B1094909680868FBF774FB0748006858
:104C4000007C00F0040020B1044909680868FBF703
:104C500076FBFCF7D7FA10BD2803002030030020B4
:104C600070B5054600261748007800B170BD16489B
:104C7000007800B1FAE71DB3FBF76AFB064613485C
:104C8000006890F838401248005D1049096891F8B2
:104C9000391088430E4908550846005D40B90B4855
:104CA000006890F83A100B4800788843094908706A
:104CB0000648006805633046FBF74EFB00F00EFB2C
:104CC00000BFD3E7150300201603002028030020AF
:104CD0001A030020190300202DE9F04105460E4675
:104CE00017461C461248007810B15520BDE8F081E7
:104CF0001048007808B13220F8E74FF4FA606043BA
:104D00004FF47A71B0FBF1F14FF461606843C6EB88
:104D1000061200EB8200384400EB4002C2EBC010E8
:104D200001EB00184046FFF79BFF0020DEE7000084
:104D3000150300201603002070B50025FBF708FBC3
:104D40000546034804682846FBF706FB204670BD6D
:104D50004403002070B5002600F072F8FBF7F8FA63
:104D6000064631480068401C2F4908603046FBF772
:104D7000F3FA2E480078012853D12D48007820B14D
:104D8000012804D0022809D103E001250BE0002509
:104D900009E0012501202649087004E001250020D2
:104DA0002349087000BF00BF05B970BD21480468E1
:104DB00033E0FBF7CDFA0646206B50B3206B401E64
:104DC0002063206B28BB94F8340000F0370040B11A
:104DD00014F8340F00F0C800207001206070343CDB
:104DE00002E0002084F8350094F8340000F0080058
:104DF00078B93834A0781049097808430E4908700A
:104E000020780E49085C6178084314F838190B4A79
:104E1000505464693046FBF79FFA94F836003F28F7
:104E2000C7D100BFC1E700004403002022030020D7
:104E30003803002034030020190300201A03002047
:104E400010B5FCF7E0F910BD704700002DE9F04FF8
:104E500005460F4690469946A87A1C490E5C05F116
:104E60000B00805D11F800B00BEBC60000F0FF0AEC
:104E7000174850F82A4000202434E0602760207C46
:104E800020EA0800207484F81190207C243C00F073
:104E9000080068B994F83A000E49097808430D49AA
:104EA00008700D48805D94F8391008430A49885508
:104EB0002946204600F012F8206A20B12046216AD7
:104EC00000F023F8E5615046BDE8F08FD03F0108BF
:104ED00020DC0120190300201A03002010B590F8EF
:104EE000382001F10B039B5C90F83940A34301F19A
:104EF0000B04A35423469B5C23B98B7A90F83A4069
:104F0000A3438B720023C36110BDF0B5024612F8B3
:104F1000384F95785678383A0B4618680FE000F10C
:104F20000B073F5DB74300F10B0C0CF804706746AC
:104F30003F5D17B9877AAF4387721B1D1868002839
:104F4000EDD1F0BD10B51B4A1268D061194A126844
:104F500092F8383000F10B02D25C164B1B6893F8C4
:104F600039301A43134B1B6893F8384000F10B0398
:104F70001A55827A0F4B1B6893F83A301A438272A3
:104F80000C4A126892F838100B4A525C094B1B68A5
:104F900093F839309A43084B5A541A46525C42B936
:104FA000044A126892F83A30044A12789A43034B42
:104FB0001A7010BD280300201A03002019030020D6
:104FC000014600228A72002005E0002301F10B0255
:104FD0001354421CD0B20828F7D370472DE9F04192
:104FE0005021114800F048F900250DE0681C86B2F8
:104FF0000D4800EB051400EB0617002020706760D9
:105000000AA0E060681C85B2042DEFD3064800EBCF
:10501000051400202070606004A0E060024804498C
:105020000860BDE8F0810000D0D701203F000000FB
:105030000403002030B501464A6808682AB9CC68E4
:10504000606028B10025456002E0106000B1426058
:105050008B6800259D6230BD70B54FF4F071134828
:1050600000F00AF9002411E0601C85B204EB440052
:105070000E4901EBC00305EB450001EBC006002023
:1050800018705E600AA05861601C84B2132CEBD3C8
:1050900004EB4400054901EBC00300201870586080
:1050A00003A0586108460349086070BDF0D501208F
:1050B0003F0000000003002000200B4908600B495E
:1050C00008700B4908700B4908700B4908700B49B0
:1050D00008600B4908600B4908600B4908600B49E0
:1050E00008700B4908707047440300201503002026
:1050F000160300202303002022030020FC020020CE
:1051000024030020100300200C03002014030020BF
:105110004003002000210A4A1170002004E0002111
:10512000084A1154411CC8B20828F8D30021064A85
:105130001170064A1170064A1160064A11607047E4
:10514000190300201A030020170300201803002071
:10515000300300202803002070B54FF4F261194895
:1051600000F08AF84FF48071174800F085F80024A9
:1051700013E0601CC5B204EB440000EBC40011490D
:1051800001EBC00305EB450000EBC50001EBC006D9
:105190005E610EA01865601CC4B2152CE9D304EB47
:1051A000440000EBC400074901EBC0030020586134
:1051B00006A01865002006490860024805490860F5
:1051C00070BD000020DD012020DC01203F00000038
:1051D000340300202C03002000B587B003200021F9
:1051E00080220A4BCDE90132CDE903104FF6FF7062
:1051F0003F23074A00900748FFF70AFA06AA06A1CC
:105200003F20FFF721FB07B000BD000020DA01209E
:105210001CDC0120BD54000875432F4F532D494914
:105220002049646C6500000000B587B003200021B0
:1052300080220A4BCDE90132CDE903104FF6FE7012
:105240003E23074A00900748FFF7E2F906AA06A1A5
:105250003E20FFF7F9FA07B000BD000020D801207A
:105260001CDA0120FD54000875432F4F532D494986
:10527000205374617400000004E0002200F8012B48
:105280004A1E91B20029F8D1704700002DE9F04183
:10529000F0211048FFF7F0FF00240DE0601C86B2FB
:1052A00004EB44000B4901EBC00506EB460001EBA3
:1052B000C0072F60601C84B2092CEFD304EB4400BC
:1052C000044901EBC0050020286008460249086037
:1052D000BDE8F081B0E401203C03002010B50024BB
:1052E000FBF736F8044613480078F8B912480078FE
:1052F000E0B900F02DF811481149097850F8210063
:10530000104908600E4800780F49097888420DD08E
:105310000C480068C06B401C0A490968C8630B4808
:105320000068401C09490860FBF72DF82046FBF790
:1053300013F810BD150300201603002020DC012007
:10534000180300203003002017030020FC02002077
:105350000649074A1278885C0649095C034A515C91
:1053600001EBC001044A117070470000D03F0108F2
:10537000190300201A030020180300202DE9F84F1C
:1053800005460F4690469946DDE90AAB002000909D
:10539000FAF7DEFF009042480468002C7BD01C34F2
:1053A00054F8080C3E4908600098FAF7D5FF44F815
:1053B0001C7CA576002020766076606144F818BCDD
:1053C00044F810AC44F8148C0C9824F80C0C24F815
:1053D0000A9C0020E077E810207705F00700E076CF
:1053E000217F01208840A077E17E012088406077FE
:1053F000002020606060E060A0602062A0626062C7
:10540000E062206327A060631C3C002606E00021C8
:1054100004F1540040F82610701CC6B2002EF6D0DD
:105420002046FFF79FF8FAF793FF00901E4840F8D8
:1054300025400098FAF790FF2046FFF745F9FAF764
:1054400087FF00901948006860610020A06117483C
:10545000006810B11548006884611448046038344D
:10546000A078134909780843114908702078114938
:10547000085C6178084314F838190E4A50540E48F5
:105480000078401C0C4908700098FAF765FF00206E
:10549000BDE8F88FFFE70098FAF75EFF4220F7E7D4
:1054A0002C0300203F00000020DC012034030020FA
:1054B000190300201A03002023030020002400BF4A
:1054C00000BFFAF745FF044605480068401C044940
:1054D00008602046FAF740FFFFF7B2F9F1E7000055
:1054E0002403002010B504480068FFF7E5F9FF2009
:1054F000FFF7F0F810BD00002803002000BF00BF38
:1055000003E04FF4C870FFF7ABFB20480078002899
:10551000F7D01F4800686421B0FBF1F01C49086017
:105520000846006828B900201A490870FF20FFF7D4
:1055300025FBFAF70DFF044615480068642148432F
:10554000154908602046FAF707FF00BFFAF700FF89
:105550000446114800681149086000200E4908609F
:105560002046FAF7F9FE0D48006809490968B0FBC2
:10557000F1F0C0F1640007490870FFF7A3F900F0EB
:105580000FF8C820FFF76CFBE0E7000014030020D1
:105590000C03002008030020240300201003002037
:1055A0007CB5002514E069462846FFF78FF90646CA
:1055B00066B9094850F8254044B1012C06D0D4E919
:1055C000020100EB8100A0640198E064681CC5B290
:1055D0003F2DE8D97CBD000020DC012002F0010352
:1055E00043B102F002032BB102E0491E002308C0C0
:1055F0000029FAD17047000030B589B0002527484E
:105600000078FF2805DA25480078401C23490870F7
:1056100002E0002021490870A020214908701F489D
:1056200000784870C02081F8620000241DE000214D
:105630002046FBF7A5FB4FF496601C2302AA1949EC
:1056400000901948FDF746FC04EB4401022202EBEE
:10565000C101134A8818182203A9FBF787F8012112
:105660002046FBF78DFB601CC4B2042CDFDB0C482A
:1056700005F0C8F90D4908700846007800280BDDD0
:105680000B48007800F08000C04328B1084800783B
:1056900040F080000649087009B030BD610000206C
:1056A000B20E002039000020A415002001020020C5
:1056B0000002002010B51248124908604FF48270B1
:1056C000486000210F488160C16001610121416192
:1056D000490281613821C161002101624162816218
:1056E0000721C162FDF74BFB06480068006840F0E7
:1056F0004000044909680860FF2000F005F810BD6B
:1057000000380040A415002001B582B04FF47A7033
:10571000012301AA02A900900248FDF7DBFB9DF8D6
:1057200004000EBDA415002010490968096821F085
:1057300040010E4A126811600C49096809684FF669
:10574000C7721140094A126811600849096809685E
:105750000143064A1268116004490968096841F06A
:105760004001024A1268116070470000A415002031
:105770002DE9F04104460E4617461D464FF000083D
:10578000FCF7EEFD8046002F3ED132E0681C78B376
:105790002DB1FCF7E5FDA0EB0800A84229D920684F
:1057A000406820F0E000216848602068006820F030
:1057B000400021680860A06AB0F5005F0DD100BF0D
:1057C0002068006820F400502168086020680068A4
:1057D00040F400502168086000BF012084F85100A7
:1057E00000BF002084F8500000BF0320BDE8F08116
:1057F000FFE7206880683040B04201D1012000E01E
:1058000000200028C2D03BE030E0681C70B32DB10E
:10581000FCF7A6FDA0EB0800A84227D92068406845
:1058200020F0E000216848602068006820F0400017
:1058300021680860A06AB0F5005F0DD100BF206844
:10584000006820F40050216808602068006840F477
:1058500000502168086000BF012084F8510000BF9B
:10586000002084F8500000BF0320BFE72068806854
:105870003040B04201D1012000E000200028C4D116
:105880000020B3E77047000010B504460020074928
:105890000860FBF717FC0648007840F090010120F3
:1058A000FBF726FC1220FBF7BFFA10BD9C02414219
:1058B000590000202DE9F04192B005468846164671
:1058C0001F46002400BF002000902648006840F0DA
:1058D0008050244908600846006800F0805000901D
:1058E00000BF00BF00BF002000901F48006840F4C8
:1058F00040401D4908600846006800F440400090A0
:1059000000BF00BF01200690079002200C904105C7
:105910000D91CDF838800F951096119706A8FDF7D8
:105920000DF804460CB100BFFEE7FCF7BBFD0446D2
:105930000CB100BFFEE70F20019002200290002072
:1059400003904FF4A05004904FF48050059005212F
:1059500001A8FCF7F9FD04460CB100BFFEE712B048
:10596000BDE8F081403802400070004010B5FCF7FF
:10597000FDFC05480078012805D1FEF7CDF9FFF7B9
:10598000E9F9FEF7DBF910BD220300201448006896
:1059900040F47000124908601248006840F00100AD
:1059A0001049086000200F49083108600D48006860
:1059B0000D4908400B4908600C48091D0860081F84
:1059C000006820F48020091F0860002005490C3180
:1059D00008604FF00060024980390860704700009D
:1059E00088ED00E000380240FFFFF6FE1030002492
:1059F00000B587B000BF002001901F48006840F04C
:105A000004001D4908600846006800F00400019089
:105A100000BF00BF42F2040002900020039001206A
:105A200004900220059002A91448FCF785FB0A2087
:105A300000F02AFCFDF7D6FF4620FDF79FFFFEF79A
:105A40001DF80F490870FDF7F3FF0022882123207D
:105A500000F018F800228C21232000F013F8002217
:105A60008421232000F00EF80548007810B10120B1
:105A700007B000BD0020FBE73038024000080240BC
:105A80008800002070B505460E461446FDF7AAFFB3
:105A9000002141EA4501C8B2FDF770FFFDF7EEFFB6
:105AA0003046FDF76BFFFDF7E9FFE0B2FDF766FF5B
:105AB000FDF7E4FFC4F30720FDF760FFFDF7DEFF0D
:105AC000C4F30740FDF75AFFFDF7D8FFFDF7B0FF1D
:105AD00070BD000010B50248FDF71EFC10BD0000AF
