:020000040800F2
:1000000050BB0120D1010008532B0008F72700083E
:10001000512B0008C10A00089D33000800000000B1
:10002000000000000000000000000000772D000824
:10003000C10C000800000000752B00082D2E0008E0
:10004000EB010008EB010008EB010008EB010008E0
:10005000EB010008EB010008EB010008EB010008D0
:10006000EB010008EB010008EB010008EB010008C0
:10007000EB010008EB010008C50A0008EB010008CD
:10008000EB010008EB010008EB010008EB010008A0
:10009000EB010008EB010008EB010008EB01000890
:1000A000EB010008EB010008EB010008EB01000880
:1000B000EB010008552F00088D2F0008EB01000808
:1000C000EB010008EB010008EB010008EB01000860
:1000D000EB01000859330008EB010008EB010008B0
:1000E0009D0E0008EB010008EB010008EB01000881
:1000F000EB010008EB010008EB010008EB01000830
:10010000EB010008EB010008EB010008EB0100081F
:10011000EB010008EB010008EB010008EB0100080F
:10012000EB010008EB010008EB010008EB010008FF
:10013000EB010008110D0008EB010008EB010008BD
:10014000EB010008EB010008EB010008EB010008DF
:10015000EB010008EB010008EB010008EB010008CF
:10016000EB010008EB010008EB010008EB010008BF
:10017000EB010008EB010008EB01000800000000A3
:10018000EB010008EB010008EB010008EB0100089F
:10019000EB010008EB010008EB010008EB0100088F
:1001A000EB010008EB010008EB010008DFF80CD0C0
:1001B00000F06AF900480047295C000850BB0120A4
:1001C00030BF72B6704762B6704780F308887047D8
:1001D0000648804706480047FEE7FEE7FEE7FEE7E1
:1001E000FEE7FEE7FEE7FEE7FEE7FEE7312E00084A
:1001F000AD01000840EA01039B0703D009E008C9EC
:10020000121F08C0042AFAD203E011F8013B00F8DB
:10021000013B521EF9D27047D2B201E000F8012B27
:10022000491EFBD270470022F6E710B513460A4676
:1002300004461946FFF7F0FF204610BD30B50446CE
:100240000020034600E05B1C934203D2E05CCD5CDF
:10025000401BF8D030BD0EB5C10F80EAE0700844F5
:10026000CA07002140F233438DE80E000A460B46D0
:1002700000F06BF803B000BDC1F30A5210B5C1F332
:10028000130140F2FF3341F480119A4201DA002059
:1002900010BD40F233439A42A2F2334203DC524291
:1002A00000F034F810BD904010BD2DE9F05F054618
:1002B000002092469B4688460646814640241BE025
:1002C000284641464746224600F020F853465A4603
:1002D000C01A914110D311461846224600F0E6F8A4
:1002E0002D1A67EB01084F4622460120002100F03D
:1002F000DDF817EB00094E41201EA4F10104DFDCFC
:10030000484631462A464346BDE8F09F202A04DB92
:10031000203A21FA02F00021704721FA02F3D0407E
:10032000C2F12002914008431946704710B5141ECF
:1003300073F1000408DA401C41F1000192185B419E
:100340001A4301D120F0010010BD2DE9F04D924675
:100350009B4611B1B1FA81F202E0B0FA80F220328C
:10036000904600F0A3F804460F4640EA0A0041EA2E
:100370000B0153465A46084313D0114653EA010075
:1003800019D0C8F140025046FFF7C0FF05460E469F
:1003900050465946424600F089F8084305D00120EE
:1003A00004E020463946BDE8F08D0020054346EACA
:1003B000E0762C4337430A986305E40AA0EB080073
:1003C0000022FD0A44EA47540A3002D500200146C3
:1003D000E9E7010510196941DDE90845001969419E
:1003E000BDE8F04DA2E72DE9F04D00231A461B1A97
:1003F0008A4103DB00200146BDE8F08DC1F30A52BB
:10040000C1F3130141F480154FF0000BD10702D165
:1004100000186D41521E0027044640F2FF11384675
:1004200001EB620A3E468046024600204FF48011EE
:10043000FFF76CFFC2197141BB1846EB0100B4EB2A
:10044000030C75EB000C04D3E41A65EB00051746AA
:100450000E46241908F101006D4180463428E3DD81
:10046000F91946EB0600091BA84103D24FF0FF32F1
:10047000134601E0002213461BEB070046EB0A512E
:10048000BDE8F04DFFF752BF064C074D06E0E068AF
:1004900040F0010394E8070098471034AC42F6D3CB
:1004A000FFF788FE98C40008B8C40008202A04DBBF
:1004B000203A00FA02F1002070479140C2F1200377
:1004C00020FA03F319439040704770B58C1810F868
:1004D000015B15F0070301D110F8013B2A1106D189
:1004E00010F8012B03E010F8016B01F8016B5B1EA3
:1004F000F9D12B0705D40023521E0DD401F8013B7E
:10050000FAE710F8013BCB1A921C03E013F8015BE9
:1005100001F8015B521EF9D5A142D8D3002070BD6D
:1005200010B58F2000F04CF88007FAD5942000F029
:1005300047F8214CA060052003F0ECF9A068000208
:10054000A060952000F03CF8A1680844A0609620C7
:1005500000F036F8E060052003F0DCF9E068000206
:10056000E060972000F02CF8E1680844E060052086
:1005700003F0D0F9A068010403D5A0F58030404213
:10058000A060E068010403D5A0F580304042E0603F
:10059000A168494300FB0010FFF75DFE41EC100B22
:1005A00002F00EFF51EC100BFFF766FE03492061CD
:1005B000B1FBF0F080B210BD54000020D8F3100061
:1005C00010B500F00FF802F0DFF91B2002F0ACF9D3
:1005D00002F01CFA002002F073F9044602F0F4F96C
:1005E000204610BD10B5044602F0CEF91A2002F0E4
:1005F0009BF902F00BFAB02002F096F902F006FA2D
:10060000204602F091F902F001FABDE8104002F034
:10061000DBB910B50521842000F066F8052003F051
:1006200079F9FA21832000F05FF8052003F072F9D0
:100630000021822000F058F8052003F06BF900211A
:10064000872000F051F8052003F064F9002186208E
:1006500000F04AF8052003F05DF90021852000F044
:1006600043F8FF21892000F03FF80121882000F0A5
:100670003BF800218B2000F037F800218A2000F0A1
:1006800033F8B121802000F02FF8052003F042F963
:100690000821812000F028F8052003F03BF9102103
:1006A000812000F021F8052003F034F91121802089
:1006B00000F01AF81E2003F02DF9FF218B2000F026
:1006C00013F8052003F026F903218A2000F00CF826
:1006D000052003F01FF92121802000F005F8BDE876
:1006E0001040192003F016B970B50C46054602F00B
:1006F0004BF91A2002F018F902F088F988B90220A3
:1007000003F008F9284602F00FF902F07FF940B92A
:10071000022003F0FFF8204602F006F902F076F915
:1007200018B102F051F9012070BD02F04DF900201E
:1007300070BD0000094A40B1012809D002280AD042
:10074000032801D1C2F894127047C2F8881270478A
:10075000C2F88C127047C2F89012704700004342F2
:1007600010B5002000F01CF92E490870602105200A
:1007700000F041F9D121022000F03DF9FE220321D1
:10078000002000F053F90021042000F034F960212A
:10079000062000F030F96021072000F02CF96021DC
:1007A000082000F028F96021092000F024F96021D8
:1007B0000A2000F020F960210B2000F01CF96021D4
:1007C0000C2000F018F9FF210D2000F014F9FF2192
:1007D0000E2000F010F9FF210F2000F00CF9FF218E
:1007E0000F2000F008F920221521002000F01EF94A
:1007F00020221521012000F019F9202215210220C4
:1008000000F014F90221172000F0F5F8122000F092
:100810000BF8102002F046FA012003F06DF80020DA
:1008200010BD00003000002070B5054600240021F6
:100830002046FFF77FFF284602F024FA01212046D8
:10084000FFF778FF641CE4B2042CF0D370BD000005
:10085000124800B5016887B041F0020101600068EC
:10086000694600F0020005904FF4805000900C485B
:100870000190012002900B4800F090FE01221146E9
:10088000282000F0C7FF282000F0B9FF0A20FFF75A
:10089000CBFF0A2003F030F807B000BD303802402B
:1008A000000021100004024070B5364886B00025D3
:1008B000016841F040010160016801F040010591CB
:1008C000016841F0080101600068012400F008009F
:1008D00005903C20CDE900040326CDE90246694697
:1008E000294800F05BFE2003CDE90004CDE9024673
:1008F0006946264800F052FE02F09CF9322002F0D0
:10090000FBFF182002F0CEF92148C0F8B052214870
:10091000C0F88842C0F88C42C0F89042C0F89442B7
:100920000220FFF781FF0620FFF77EFF052002F07F
:10093000E3FF1948A021017008214170C0214172D4
:1009400021218170C570202101714471134C61789F
:100950008171C5710572142002F0CEFF00F036F8E7
:10096000E021032000F047F80A2002F0C5FF60787C
:1009700040F0D001012000F03EF8052002F0BCFF5D
:1009800006B070BD3038024000180240000C024032
:10099000008041420000434210040020300000204B
:1009A00010B5094C0020C4F88C02202004F52374F3
:1009B00002F068F9002002F065F9002002F062F907
:1009C0000121216010BD00000000434210B5002449
:1009D00000212046FFF7AEFE112002F053F901215D
:1009E0002046FFF7A7FE022002F094FF641CE4B249
:1009F000042CEDD310BD70B50E46002440F0400528
:100A000000212046FFF796FE284602F03BF9002021
:100A100002F038F9304602F035F901212046FFF79F
:100A200089FE641CE4B2042CEAD370BD70B50B4699
:100A3000154604460021FFF77DFE43F0400002F01A
:100A400021F9002002F01EF9284602F01BF9204689
:100A5000BDE870400121FFF76DBE00002DE9F047B1
:100A6000DFF8588001270546C8F8A872022008F56B
:100A7000297402F04FFF00266660022002F04AFF50
:100A80002660B14600244646E809C6F8B00268066A
:100A9000050E022002F03EFFC6F8A872022002F006
:100AA00039FFC6F8A892022002F034FF641CE4B2B9
:100AB000082CE9D3C6F8A472BDE8F08700004142D3
:100AC000FEE7000070B51B481C4D1C4A00681A4B1D
:100AD0001A4C603DB83A984202D91749543903E09C
:100AE000A04203D914495839096804E0A84201D941
:100AF000516800E0116811F0006F1AD04FF00061EA
:100B0000984202D90C484C3803E0A04203D90A4865
:100B10005038016004E0A84201D9D16000E0916042
:100B2000074800688047BDE870400248583801F027
:100B3000F9B970BDF40A002058640240B860024060
:100B4000500000202DE9F04757480178A0294FD1E7
:100B5000564C407800262178554F41F080011328EB
:100B60006DD00ADC504A0128957843D011284CD02A
:100B700012283DD14D48153063E0212867D04A4DF9
:100B80004C4FDFF834A1C8354FF0A0084FF0C00932
:100B9000312862D032282BD10A20FFF745FEC7F852
:100BA000B0620020FFF75AFF52468421232002F052
:100BB000ABF9FFF72EFDFFF7B3FC064600228421B8
:100BC000232002F0A1F98020FFF748FF85F800807C
:100BD000422068703220A870300AE8702E7185F8C3
:100BE00043904420A060207840F080002070656031
:100BF000BDE8F087012D06D0002DF9D10A20BDE80F
:100C0000F047FFF711BE0820F9E7DFF8B08098F849
:100C10000000854204D0284602F0AEF888F8005063
:100C20002248112110308170C6704178891CC4E9B6
:100C30000101207840F080002070BD71D8E71B488A
:100C40001A3060604078801CA0602170D0E721706D
:100C500067607878801CA060CAE70A20FFF7E4FD8F
:100C6000C7F8B0620020FFF7F9FE52468421232026
:100C700002F04AF9FFF7CDFCFFF752FC06460022CE
:100C80008421232002F040F98020FFF7E7FE85F859
:100C90000080042068703120A870300AE8702E713E
:100CA00085F8059006209DE708B5012094000020F6
:100CB000100400200080414201008000310000202B
:100CC000704738B50446006800F58050816941F4EA
:100CD00080118161206800F58050806900900120BA
:100CE00000F00FF92068009900F58050816138BD4F
:100CF00002680021002A08DB0268120405D4026899
:100D0000D20502D50068C0F30D41084670470000C7
:100D100010B5094C01E004F055FFA06AFFF7E8FFA9
:100D20000028F8D120684FF4803100F580504161EF
:100D30004021416110BD00008C0300202DE9F041ED
:100D4000044621B14FF40060E060C000A060E0699B
:100D50000026002861D035462068402702683A49BD
:100D60000A40D4E902131943294341F400711143A5
:100D7000016020680568012000F0C3F82068056064
:100D80002068476020684568012000F0BAF82068B4
:100D90004560206886602068C660206881694FF6DB
:100DA0004172114041F08001816120688569012014
:100DB00000F0A7F8206885612068C6612068C569D1
:100DC000012000F09EF82068C561206800F5805081
:100DD00081691E4A11401E4A0A438261206800F55B
:100DE00080508569012000F08CF8206800F5805063
:100DF00085612068174900F580500160206800F582
:100E000080500568012000F07CF8206800F58050D3
:100E10000560A069012803D009E04FF480659BE7D5
:100E2000206800F58050C1690B4A1143C1616069B7
:100E30000A4A818811640178D0F8010041EA002053
:100E40005064BDE8F08100000F8120FF233FDEF8F1
:100E5000040020028020C102400001000080024006
:100E600010B54FF4A071002005F00EFB0A4CA02134
:100E70002060002005F008FB606043F68831002008
:100E800005F002FBA06041F6C451002005F0FCFA19
:100E9000E060002010BD00002000002010B501F02F
:100EA0006BFE02494FF48050086010BD143C0140B5
:100EB0002DE9F04104460068016821F0010101605C
:100EC00000F060FC054600264FF47A770FE000F052
:100ED00059FC401BB8420AD954F84C0F40F020008E
:100EE00044F81809032026706070BDE8F08120687E
:100EF0000068C007EBD104F8346F01206070002057
:100F0000F3E731B500F03EFC044600F03BFC0099ED
:100F1000001B8842F9D338BD2DE9F04390F84550C5
:100F20000024012D0DD04FF0010980F845900225D5
:100F300080F8445044F2F45C4FF000485F1E816238
:100F400016E00220BDE8F08301EB4415C5F80080EF
:100F5000C4EBC41606EB460602EB8606C5E901C6DD
:100F6000BC4203D205F12006EE6000E0E960641C9B
:100F70009C42E9D3026802F58052D16080F8449027
:100F8000002180F845100846DCE72DE9F04390F891
:100F900045400025012C0BD04FF0010C80F845C0D6
:100FA000022480F844404FF480195F1EC1621BE0A8
:100FB0000220BDE8F08301EB4514C4F80090C5EBB6
:100FC000C51606EB460602EB8606A660C6691EB984
:100FD000266846F440062660BD4203D204F120068E
:100FE000E66000E0E1606D1C9D42E4D3026802F51A
:100FF0008052116180F844C0002180F845100846F5
:10100000D7E710B590F84510012913D0012380F8D7
:101010004530022180F84410816A0A680024002AC1
:1010200027DB0A68D20518D5826B521C8263012A1D
:1010300002D002E0022010BD016341630A68C2F3DE
:101040000D42121FC263026B92680264C96840F8C5
:10105000281F03774477002010BD0A68920503D546
:101060008363C0E90C1402E0826B521C8263C9687E
:10107000816200F8443F4470012010BD2DE9FC411D
:101080004FF0000604000096B046019603D094F895
:10109000440018B107E00120BDE8FC8184F84560F8
:1010A000204600F0C5F85848016841F480410160CD
:1010B000006800F4804001905448016821F4000168
:1010C00001600168226A11430160206800F58050C8
:1010D000016841F001010160226802F58050016859
:1010E000C907FCD1106920F01C0500F00DFD48492E
:1010F000484A0144914202D245F0080516E04649AB
:10110000464A0144914202D245F00C050EE04449A2
:10111000444A0144914209D343490844434988421F
:1011200002D245F0040501E045F010052068056194
:101130006068012780B300F025FB42F21075019032
:101140006A460121204600F0E5F800F01BFB0199FA
:10115000401AA84217D800984007F1D54FF48052A2
:101160000021204600F0DFF980BB00F00BFB01906E
:101170006A460121204600F0CDF800F003FB0199FA
:10118000401AA84209D901212046FFF7D7FD04F8EB
:10119000447F032066707FE719E000988006E7D55A
:1011A0006A461F21204600F0B5F878B90098C106BC
:1011B00003D54FF40061E16000E0E660400701D52F
:1011C000A66019E04FF48040A06015E00AE0E068F6
:1011D000A168C00840EA510082B20021204600F018
:1011E000A2F930B101212046FFF7A8FD84F8447030
:1011F00051E7FF20FFF785FE41462046FFF79EFDA1
:1012000084F84470002047E7443802400438014025
:1012100000D3CEFEC0E1E40040F1E9FD40787D015D
:1012200000796CFC005A6202001F0AFA80F0FA0290
:10123000334800B5026887B0002142F000720260B6
:10124000026802F000720592026842F08062026059
:10125000026802F080620592026842F00062026059
:10126000026802F000620592026842F00102026028
:10127000026802F001020592026842F00202026076
:10128000026802F002020592026842F00402026063
:10129000026802F004020592026842F04002026015
:1012A000006800F040000590862000900220CDE903
:1012B0000101032003900B2004906946114800F0BF
:1012C0006DF94FF40060009069460F4800F066F930
:1012D0003220009069460D4800F060F94FF4C0409C
:1012E000009069460A4800F059F9022201213D2088
:1012F00000F090FA3D2000F082FA07B000BD000037
:101300003038024000000240000402400008024061
:10131000001802402DE9F84300260446009690F894
:101320004400914682281DD0822084F84400206821
:1013300002694FF6FF7502F01C03228A05EAC222F9
:101340001A434FF4F86303EA8111114321F00201BB
:1013500041F00105056100F015FA01274FF48038CE
:1013600000900FE00220BDE8F88300F00BFA00992E
:10137000401A404504D304F8447F03206670F2E726
:1013800020680569E807F0D12068406981B2C9F892
:10139000001084F844700020E5E7F8B5044690F8A2
:1013A0004500012839D0012584F84550022084F8F1
:1013B000440020680026016841F0080101602068AF
:1013C000006800902846FFF79CFD2168009808609F
:1013D0002068016841F00401016020680068009005
:1013E0000120FFF78EFD2168009808602046FFF776
:1013F00068FC206800F58050816941F400518161EA
:10140000206800F58050816941F00201816184F813
:10141000445084F845600020F8BD0220F8BDF0B5C6
:1014200090F845300022012B11D0012780F845703B
:10143000022380F84430002559B1C46A2368002B88
:101440000ADA122100F8441F45700120F0BD022085
:10145000F0BD00F8447FF7E740F2F456B1420BD9F3
:10146000B1FBF6FCB1FBF6F306FB1C1CBCF1000F54
:1014700000D05B1C012B43D1226842F04052226015
:10148000C26AC1F30C015160C16A0A6842F00042AD
:101490000A60C16AC968C16234E0D4F800C02CF0A7
:1014A000405CC4F800C032B9C46AD4F800C04CF043
:1014B000805CC4F800C0C46A66605C1EA24214D19D
:1014C000C46AD4F800C04CF0005CC4F800C0C3F19A
:1014D0000104C4EBC41404EB4404D0F82CC001EBA9
:1014E0008404C4F30C04CCF80440C46AD4F800C0EB
:1014F0004CF0004CC4F800C0C46A521CE468C462DA
:101500009A42CAD3016801F580514A69520705D54C
:1015100004224A61016801F580514D6000F8447F62
:1015200045700020F0BD2DE9F041044690F84400DC
:1015300042281ED0422084F84400206803694FF6F8
:10154000FF7603F01C05238A06EAC3232B434FF4DE
:10155000F86505EA8111194341F0030591B2416133
:101560002068056100F00EF9064601274FF4803827
:101570000FE00220BDE8F08100F004F9801B404537
:1015800005D304F8447F002060700320F2E7206850
:101590000569E807F0D184F84470EBE72DE9F84FCE
:1015A000DFF8A091002209F1040A0AF1040B4FF0C0
:1015B0000F080BF1040E01260B6896403340B3422E
:1015C00071D14C68022C01D0122C11D1D40800EB3F
:1015D00084073D6A5407E40E08FA04FC25EA0C056A
:1015E000D1F810C00CFA04FC4CEA050CC7F820C076
:1015F00007685400032591F804C0A5400CF0030CC3
:10160000AF430CFA04FC4CEA070CC0F800C04F686A
:10161000012F05D0022F03D0112F01D0122F11D18D
:101620008768D1F80CC0AF430CFA04FC4CEA070CF5
:10163000C0F808C04768B7430E79C6F30016964055
:101640003E434660C668AE438D68A5403543C560DD
:101650004C68E4006FD53C4C256845F48045256016
:10166000246822F0030504F480440094374C2E19BA
:10167000D6F808789407250F08FA05F4A743344CE8
:10168000A04201D100242EE0324CA04201D101241D
:1016900029E0314CA04201D1022424E02F4CA04289
:1016A00002D103241FE046E02D4CA04201D10424C6
:1016B00019E02C4CA04201D1052414E02A4CA04290
:1016C00001D106240FE0294CA04201D107240AE0F1
:1016D000274CA04201D1082405E0264CA04201D1AC
:1016E000092400E00A24AC403C43C6F80848D9F875
:1016F00000404D464E689C43F60300D51C432C60C9
:10170000DAF8004055464E689C43B60300D51C43AA
:101710002C60DBF800405D464E689C43F60200D525
:101720001C432C60DEF8004075464E689C43B602B0
:1017300000D51C432C60521C102AFFF43CAFBDE8BE
:10174000F88F0000003C0140443802400030014066
:10175000000002400004024000080240000C024069
:10176000001002400014024000180240001C024019
:1017700000200240002402400AB181617047090440
:10178000FBE70000014800687047000014000020DB
:1017900002480168491C01607047000014000020E5
:1017A0000B4810B5016841F400710160016841F413
:1017B00080610160016841F480710160052000F0E2
:1017C00049F80F2000F006F800F015F8002010BDD1
:1017D000003C024010B5044600F096F94FF47A71CF
:1017E000B0FBF1F000F09DFD00222146501E00F0FC
:1017F00011F8002010BD08B50020009008BD00F0D1
:101800001F02012191404009800000F1E020C0F852
:1018100000117047F0B40E4B1B68C3F30223C3F1F1
:101820000704042C00D904241D1D072D01D2002318
:1018300000E0DB1E012606FA04F56D1E0D409D40FA
:101840009E40761E164045EA0601F0BC01F082B9C2
:101850000CED00E0064A00F0070110684FF6FF03A8
:10186000184040EA01200349084310607047000017
:101870000CED00E00000FA052DE9F8431D48016871
:1018800041F0805101600068012700F08050009015
:10189000380490FAA0F0DFF86080B0FA80F048F8E1
:1018A0002070FFF76FFF04464FF47A75134E04E083
:1018B000FFF768FF001BA84213D87068C003F7D574
:1018C0004FF4003090FAA0F0B0FA80F048F82070A1
:1018D000FFF758FF044607E0FFF754FF001BA8423C
:1018E00002D90320BDE8F88370688003F4D5002096
:1018F000F8E700004038024000000E42007000404F
:101900002DE9F05FDFF8F8A104460F46DAF8000091
:10191000DFF8F08100F00F02C8B27A49814641F247
:10192000883608F10808BA4261D202468AF80020D7
:10193000DAF8000000F00F00B8427DD1207880076F
:1019400007D5D8F80020A36822F0F0021A43C8F89F
:1019500000202078C0072DD0606801281AD0022806
:101960001BD0032819D009688907002964DAD8F840
:101970000010474621F003010143C8F80010FFF7AB
:1019800001FF0546606801280FD0022818D00328FF
:101990001CD027E009688903E7E709688901E4E7C3
:1019A000FFF7F0FE401BB04258D83868C0F3810002
:1019B0000128F5D188E0FFF7E5FE401BB0424DD885
:1019C0003868C0F381000228F5D17DE03868FFF760
:1019D000D9FE401BB042F9D940E0FFF7D3FE401BCF
:1019E000B0423BD8386810F00C0FF6D16CE020788C
:1019F000800707D5D8F80020A36822F0F0021A4328
:101A0000C8F800202078C0074CD06068012828D092
:101A1000022829D0032827D009688907002949DA34
:101A2000D8F8002022F003020243C8F80020FFF794
:101A3000A9FE0546606800E03CE001281DD00228B0
:101A400029D0032838D0B3464646306810F00C0F32
:101A500028D0FFF797FE411B5945F6D90320BDE872
:101A6000F09F09688903D9E709688901D6E7FFF77C
:101A700089FE411B594502D9F0E7B3464646306816
:101A8000C0F381000128F2D10CE0FFF77BFE411B7F
:101A9000594502D9E2E7B34646463068C0F38100B3
:101AA0000228F2D18AF80090DAF8000000F00F0066
:101AB000B84209D00120D2E744462068FFF762FE11
:101AC000401BB042F9D9C9E72078400707D5D8F8BC
:101AD0000010E26821F4E0511143C8F800102078AA
:101AE000000708D5D8F80010226921F4604141EAC6
:101AF000C201C8F800100F20FFF76CFE0020AEE70F
:101B0000003C02400038024010B500F043F808499C
:101B10000968F02292FAA2F201F0F001B2FA82F220
:101B2000D140044A515CC8400349086010BD000020
:101B3000083802401CC200080000002010B5FFF762
:101B4000E3FF074909684FF4E05292FAA2F201F468
:101B5000E051B2FA82F2D140024A515CC84010BD55
:101B6000083802401CC2000810B5FFF7CDFF074936
:101B700009684FF4604292FAA2F201F46041B2FAAD
:101B800082F2D140024A515CC84010BD0838024080
:101B90001CC2000830B51948006810F00C01184844
:101BA00012D0184C04290ED008290DD1134A121F47
:101BB0001168136801F03F015D0247F6C07304D558
:101BC000B4FBF1F003E0204630BDB0FBF1F011684A
:101BD000194093FAA3F3B3FA83F3D9404843116849
:101BE0004FF4403292FAA2F201F44031B2FA82F29A
:101BF000D140491C4900B0FBF1F030BD083802402B
:101C00000024F40040787D012DE9F84F0446007867
:101C1000DFF8FCA2BF4DC0074FF0000648D0DAF84D
:101C200000105046C1F38101012908D00068C0F3BB
:101C3000810002280AD1281D0068400206D52868C4
:101C4000800335D56068002873D031E0DFF8C49296
:101C500009F1020989F80060FFF794FD074641F297
:101C6000883804E0FFF78EFDC11B41457AD828680B
:101C70008003F7D4207989F80000606860B1FFF72D
:101C800081FD074604E0FFF77DFDC11B4145EDD80E
:101C900028688003F7D50BE0FFF774FD074604E0E2
:101CA000FFF770FDC11B4145E0D828688003F7D4D9
:101CB0002078DFF86492800744D5DAF800105046A7
:101CC00011F00C0F4FF0F80809D00068C0F3810044
:101CD00002280BD18E48001F0068400206D42868F5
:101CE000800714D5E068012823D110E0E068D0B166
:101CF0000120C9F80000FFF745FD074604E0FFF7A3
:101D000041FDC01B6428B1D828688007F7D5286832
:101D100098FAA8F22169B2FA82F220F0F800914014
:101D2000084328600EE0C9F80060FFF72BFD074666
:101D300005E0EAE0FFF726FDC01B642812D82868FA
:101D40008007F7D42078000725D5DFF8C4817348D1
:101D5000616908F16C0881B101210160FFF712FD92
:101D6000074605E07EE0FFF70DFDC01B642879D82B
:101D7000D8F800008007F6D50DE00660FFF702FDF9
:101D8000074604E0FFF7FEFCC01B64286AD8D8F8B9
:101D900000008007F6D42078400753D55C483830DF
:101DA000016841F0805101600068DFF8748100F043
:101DB00080500090D8F8001041F48071C8F80010ED
:101DC000FFF7E0FC074604E0FFF7DCFCC01B6428DB
:101DD00048D8D8F80000C005F6D5DFF834B10BF1CB
:101DE000680B8BF80060FFF7CDFC074641F288389E
:101DF00004E0FFF7C7FCC11B41457ED8DBF80000BB
:101E00008007F6D4207A8BF80000A06868B1FFF74D
:101E1000B9FC074604E0FFF7B5FCC11B41456CD88F
:101E2000DBF800008007F6D50CE0FFF7ABFC0746B7
:101E300004E0FFF7A7FCC11B41455ED8DBF80000BA
:101E40008007F6D4A069E8B3DAF80010C1F3810185
:101E500002295AD0022806D0C9F86060FFF792FC28
:101E600004464DE049E04F46C9F86060FFF78AFC40
:101E7000064604E0FFF786FC801B64283DD82868EE
:101E80008001F7D4D4E90701084347F6C07191FAFD
:101E9000A1F1626AB1FA81F18A40A16A4FF0FF3381
:101EA00003EB51014FF4403393FAA3F3B3FA83F3F6
:101EB00099400A4310434FF0706292FAA2F2B2FACC
:101EC00082F200E01FE0E16A914008431049091FD7
:101ED000086001203866FFF755FC044604E0FFF770
:101EE00051FC001B642808D828688001F7D50AE057
:101EF000FFF748FC001B642802D90320BDE8F88FD7
:101F000028688001F4D40020F8E70120F6E70000FB
:101F1000083802400038024000004742800E474225
:101F20000070004010B50446006C08B1FEF7C0FF19
:101F3000606C08B1FEF7BCFF2068416821F0020127
:101F400041602068416821F001014160012084F86E
:101F50005100002010BD70B5040004D094F8510069
:101F6000002510B106E0012070BD84F850502046D5
:101F700000F034F8022084F851002068016821F054
:101F800040010160D4E901010843D4E9031211437F
:101F9000084361690843218B01F400710843E1693A
:101FA0000843216A0843A16A084321680860A069C0
:101FB000042101EA1040616A0843216848602168F1
:101FC000E06A08612068C16921F40061C16165654A
:101FD000012084F85100002070BD00001E4800B5AB
:101FE000016887B041F002010160016801F002015F
:101FF0000591016841F020010160016801F02001B4
:102000000591016841F004010160006800F00400DE
:10201000059011481030016841F4004101600168E9
:1020200001F400410591016841F4804101600068BC
:10203000012100F4804005904FF4604000900220A0
:10204000CDE9010103900520049069460348FFF79C
:10205000A5FA07B000BD000030380240000402407D
:102060002DE9F843044690F85100DDF8208001285E
:1020700001D022287ED169B162B15BB194F85000E1
:10208000012877D0012784F8507094F85100012876
:1020900003D005E00120BDE8F883322084F8510028
:1020A00000266665A263A387E3872163A386E38690
:1020B000A664E664A06A4FF40055A84209D12068DE
:1020C000016821F4005101602068016841F4005169
:1020D000016020680168490603D4016841F04001AD
:1020E0000160E0684FF48271B0F5006F606807D05E
:1020F000002867D088426ED1E08E012862D06AE065
:1021000020B188420CD1E08E012809D1206B2168D2
:102110000088C860206B801C2063E08E401EE08633
:10212000E08E80B9A06AA84244D12068016841F4D9
:10213000805101603EE02068C068A16B0880A06B00
:10214000801CA0639EE0434600220221204600F04E
:10215000C3FD002874D1206B21680088C860206B03
:10216000801C2063E08E401E0004000CE08609D134
:10217000A06A00E0C7E0A84204D12068016841F4E9
:1021800080510160434600220121204600F0A4FD59
:1021900000286FD12068C068A16B0880A06B801CEC
:1021A000A063E08F401EE087E08E0028CBD16068FE
:1021B00000286AD1434600220121204600F08CFD10
:1021C000F0BBB8E7206B411C216321680078C86030
:1021D000E08E401EE086E08E98B9A06AA84204D145
:1021E0002068016841F480510160434600220121CA
:1021F000204600F071FD18BB2068C068A16B087014
:1022000040E0434600220221204600F065FDB8B9B7
:10221000206B411C216321680078C860E08E401E5D
:102220000004000CE08607D1A06AA84204D120680F
:10223000016841F48051016000224346012100E021
:1022400018E0204600F048FDA0B92068C168A06BE6
:10225000421CA2630170E08F401EE087E08E0028E0
:10226000CFD1606888B9434600220121204600F0A2
:1022700033FD08B103200EE72068C168A06B421C43
:10228000A2630170E08F401EE087A06AA84210D1CF
:10229000434600220121204600F01EFD18B1606D6A
:1022A00040F002000FE02068C068ADF80000BDF803
:1022B0000000434601228021204600F00DFD20B1A0
:1022C000606D40F020006065D4E784F851702068AC
:1022D0008168A26AC1F30011AA4210D179B1616D7F
:1022E00041F002016165016821F40051016020683C
:1022F000016841F40051016084F85060CAE684F836
:1023000050600020C7E60220C5E64FF0E021042817
:10231000086903D020F004000861704740F0040011
:10232000FAE710B5401EB0F1807F01D3012010BD47
:102330004FF0E02460610F21601700F00BFC0020DB
:10234000A06107202061002010BD7047704710B5C4
:10235000040003D094F8390010B107E0012010BD4B
:10236000002084F83800204600F00CF8022084F8A1
:102370003900211D206800F023FE012084F8390077
:10238000002010BD08B500680B49884212D10B48E7
:10239000016841F0020101600068032200F00200C0
:1023A000009001211D20FFF735FABDE808401D20EF
:1023B000FFF725BA08BD0000000400404038024085
:1023C0000168CA6842F00102CA600068016841F011
:1023D0000101016000207047704770B50446006835
:1023E00001694FF00005C943890715D4C168C94385
:1023F000890711D4E91E01610120207620688069D7
:102400008007204602D0FFF7E7FF04E000F098F8CD
:10241000204600F096F8257620680169C9434907EF
:1024200017D4C168C943490713D46FF0040101618F
:10243000022020762068806910F4407F204602D078
:10244000FFF7CAFF04E000F07BF8204600F079F8BF
:10245000257620680169C943090716D4C168C943B4
:10246000090712D46FF0080101610420207620686A
:10247000C0698007204602D0FFF7AEFF04E000F0FD
:102480005FF8204600F05DF8257620680169C943B1
:10249000C90617D4C168C943C90613D46FF0100127
:1024A0000161082020762068C06910F4407F204632
:1024B00002D0FFF791FF04E000F042F8204600F060
:1024C00040F8257620680169C943C90708D1C16869
:1024D000C943C90704D1891E0161204600F032F8C2
:1024E00020680169C943090609D4C168C9430906BE
:1024F00005D46FF0800101612046FFF726FF2068B8
:102500000169C943490609D4C168C943490605D4CC
:102510006FF040010161204600F020F82068016959
:10252000C94389060BD4C168C943890607D46FF033
:10253000200101612046BDE87040FFF707BF70BD74
:10254000704770470349884203D1034801680A3144
:1025500001607047D403002090000020704770474E
:1025600090F83900704738B5016804460868CA68B1
:10257000C0F3000002F4807238B132B108684868D4
:102580000090E06B40F00100E06308684A69C0F326
:10259000400002F0010238B132B10868486800908A
:1025A000E06B40F00400E06308684A69C0F3800013
:1025B00002F0010238B132B1086848680090E06B5F
:1025C00040F00200E06308684A69C0F3C00002F00E
:1025D000010238B132B1086848680090E06B40F001
:1025E0000800E0630868C968C0F3401001F02001EA
:1025F00018B111B1204600F06DFD20680168C06877
:10260000C1F3C01100F0800019B110B1204600F0F4
:102610006FFE21680868CA68C0F3801002F04002AB
:10262000012568B162B1CA68204622F04002CA6042
:1026300094F8391032290CD080F8395000F0DAF8CB
:10264000E06B002804D084F839502046FFF787FF5C
:1026500038BD222180F83910F0E770B5040004D0AD
:1026600094F83900002510B106E0012070BD84F80F
:102670003850204600F020F8022084F83900206805
:10268000C16821F40051C160204600F077FD206848
:10269000016921F4904101612068416921F02A011A
:1026A00041612068C16841F40051C160E5630120C7
:1026B00084F83900002070BD10B500681A4986B052
:1026C00088422FD11948016841F00101016000687A
:1026D00000F00100059015481430016841F0100128
:1026E00001600068012100F0100005904FF40070B7
:1026F00000900220CDE90101039007200C4C0490CA
:1027000069462046FEF74AFF21150091694620469A
:10271000FEF744FF2520FFF772F80322114625201B
:10272000FFF778F806B010BD0010014030380240C5
:102730000000024090F83930012B01D0122B2BD130
:1027400031B32AB390F83830012B25D0012380F81B
:10275000383081628285C2850022C26390F83910C8
:10276000122917D0222180F839100168CB6843F470
:102770008073CB6001684B6943F001034B6180F8C3
:1027800038200068C16841F02001C1600020704716
:10279000012070473221E6E70220704730B500681B
:1027A000114988420CD1114A5088010408D41146BD
:1027B000440409784FF0000306D50A2901D053805C
:1027C00030BD40F400400DE00D2909D0C0F30D04E8
:1027D000074D401C80B229555080C728EFD830BD26
:1027E00040F48040508030BD001001401C000020AB
:1027F000840200207047FEE770B50D4C0025C4F838
:102800008C520C48016821F440710160016841F468
:1028100080710160C4F89052022004F5237401F025
:1028200079F801202060022001F074F8256070BD65
:1028300000004242001002400E4810B5016886B008
:1028400041F0100101600068012400F010000590C3
:102850001820CDE900040220CDE90240694606486F
:10286000FEF79CFE0548C0F89042C0F88C4206B0C6
:1028700010BD00003038024000100240000042420B
:1028800070B50D4C0026C4F88C620C48016821F428
:1028900040710160016841F4807101600125C4F854
:1028A0009052022004F5237401F034F825600220D0
:1028B00001F030F8266070BD000042420010024076
:1028C0002DE9F047814616480024016821F4407143
:1028D000016001680160134E254627464FF001084C
:1028E000C6F88C72022001F015F8C6F88C826006DA
:1028F000040ED6F8100208B1641CE4B2022001F004
:1029000009F86D1CEDB2082DEAD3B9F1000F04D01F
:10291000FFF772FF2046BDE8F087FFF7B1FFF9E748
:1029200000100240000042422DE9F04105461448E3
:10293000016821F440710160016841F48071016017
:10294000104E0027C6F88C723C464FF00108E8098B
:10295000C6F890026806050E022000F0DBFFC6F8FC
:102960008C82022000F0D6FFC6F88C72012000F0A5
:10297000D1FF641CE4B2082CE9D3BDE8F08100006B
:10298000001002400000424270B50D48016821F479
:1029900040710160016841F480710160094C0120BF
:1029A000C4F89002C4F88C02042004F5237400F0EB
:1029B000B1FF00256560042000F0ACFF256070BD0C
:1029C00000100240000042420E4810B5016821F498
:1029D00040710160016841F4807101600A4C00207F
:1029E000C4F88C02C4F89002042004F5237400F0AB
:1029F00091FF012020606060BDE81040042000F0DD
:102A000089BF0000001002400000424270B5124829
:102A10000024016821F440710160016801600F4DDC
:102A20000126C5F89062022000F074FFC5F88C62A0
:102A3000022000F06FFF07E0641CE4B2FA2C03D917
:102A4000FFF7C2FF012070BDD5F810020028F3D1B6
:102A5000C5F88C0270BD0000001002400000424228
:102A600030B5364889B00024016841F0007101603A
:102A7000016801F000710791016841F08061016017
:102A8000016801F080610791016841F00061016017
:102A9000016801F000610791016841F001010160E6
:102AA0000068274D00F0010007904020029011209F
:102AB000CDE903040320059002A92846FEF76EFD28
:102AC000FDF77FFB002240212846FEF755FE6420DB
:102AD00000F012FF012240212846FEF74DFE64203F
:102AE00000F00AFFFDF76FFB164801788DF8001023
:102AF00041788DF8011081788DF80210C1788DF839
:102B0000031001798DF8041040798DF805000F4805
:102B10000D49016001218A03C0E90112CA02C260A5
:102B200004826A46C0E90521C905C0E90741FEF7EC
:102B3000A5FA002800D0012009B030BD303802408D
:102B400000000240C0B40120008002408C0300203D
:102B5000FEE770470907090E002806DA00F00F00AB
:102B600000F1E02080F8141D704700F1E02080F8AB
:102B700000147047704700002DE9F043284989B0E0
:102B80008878FF2801D2401C00E00020254E887084
:102B9000A020307063207070C02086F8640001208F
:102BA000B0708878F07000240DF104094FF4966736
:102BB00006F1650800212046FDF7BCFD18491C23DD
:102BC00001AAC91C18480097FFF74AFA04EB44050C
:102BD00006EBC500182209F10401001DFDF70AFBF0
:102BE00005EB0800BDF8051001809DF80710817005
:102BF00001212046FDF79EFD641CE4B2042CD9D3CC
:102C0000084803F057FC094910F0FF00087004D091
:102C10000748017841F08001017009B0BDE8F083F8
:102C2000300000201A0400209C0A0020B30000207D
:102C30009400002010B5124C1048012120604FF480
:102C4000827060600020A060E060C4E90401490275
:102C5000A1613821C4E907106062A0620720E06228
:102C60002046FFF778F92068016841F040010160D3
:102C7000BDE81040FF2000F005B80000003800401B
:102C80009C0A002001B582B04FF47A7000900123B5
:102C900001AA02A90248FFF7E3F99DF804000EBD5E
:102CA0009C0A00200B4A10B511680B6823F0400302
:102CB0000B6011680B684FF6C77423400B601168F6
:102CC0000B6803430B601068016841F0400101602C
:102CD00010BD00009C0A00202DE9F0471D469046DB
:102CE0000F460446FEF74EFD06465FEA08004FF029
:102CF00000084FF4005A4FF0010926D034E0681C58
:102D000023D025B1FEF73EFD801BA8421DD92068C7
:102D1000416821F0E00141602068016821F0400134
:102D20000160A06A504509D12068016821F4005172
:102D300001602068016841F40051016084F85190FD
:102D400084F850800320BDE8F0872068806837EA67
:102D50000000D4D10DE0681C06D0002DD7D0FEF7BE
:102D600011FD801BA842D2D82068806837EA000095
:102D7000F1D00020E7E77047094910B50020C1F8FD
:102D8000B002FDF723FE0748407840F09001012093
:102D9000FDF731FEBDE810401220FDF745BD0000F3
:102DA000008041423000002070B51E4C92B00025DA
:102DB000266846F080562660246804F080541194FA
:102DC000194C266846F44046266024680DF1240C10
:102DD00004F44044119401240094019402240694C4
:102DE0008CE80D006605CDE907616846FEF70CFF2B
:102DF00000B1FEE7FEF740FD00B1FEE70CA90F2091
:102E000081E831004FF4A0500F904FF480501090A3
:102E100005210CA8FEF774FD002800D0FEE712B0D3
:102E200070BD00004038024000700040FEF7B0BCAA
:102E30001048016841F4700101600F48016841F0D9
:102E4000010101600C4A00210832116002680B4B3D
:102E50001A400260031D0A4A1A60026822F48022A6
:102E6000026005480C30016002495806803908604C
:102E70007047000088ED00E000380240FFFFF6FEDA
:102E8000103000241D4810B5026886B0002142F0C1
:102E900010020260006800F0100005900420CDE9E7
:102EA0000001012002900220039069461448FEF7B9
:102EB00075FB0A2000F02EFDFFF766FD4620FFF7A8
:102EC00033FDFFF7A3FD0F4C2070FFF77DFD0022BF
:102ED0008821232000F018F800228C21232000F004
:102EE00013F84FF4EC628421232000F00DF82078D1
:102EF000002800D0012006B010BD0000303802408C
:102F0000001002406800002070B514460E460546C9
:102F1000FFF73AFD6806000EFFF706FDFFF776FDA6
:102F20003046FFF701FDFFF771FDE0B2FFF7FCFC53
:102F3000FFF76CFDC4F30720FFF7F6FCFFF766FD13
:102F4000C4F30740FFF7F0FCFFF760FDBDE87040F9
:102F5000FFF73ABD0148FFF740BA0000D403002054
:102F6000094A10B5074BC2E900310021C2E902103D
:102F700010461161FFF7EBF9BDE810400248FFF77A
:102F80001FBA000000040040D403002010B50A4C12
:102F90002068C068C043C00709D10848006980475D
:102FA00021680020486221686420C862E0602168CE
:102FB0006FF00100086110BD14B7012088010020E6
:102FC000F0B50268234D244E244FDFF894C0254B02
:102FD0004FF0804EA84209D0704507D0B04205D0CE
:102FE000B84203D0604501D0984203D122F070046A
:102FF0004A682243A8421BD0704519D0B04217D06E
:10300000B84215D0604513D0984211D0164CA0425A
:103010000ED0164CA0420BD0154CA04208D0154C37
:10302000A04205D0144CA04202D0144CA04203D1BF
:1030300022F44074CA68224302608A68C2620A6845
:103040008262A84201D0984201D10969016301213D
:103050004161F0BD00000140000400400008004054
:10306000000C0040000401400040014000440140C9
:103070000048014000180040001C004000200040B3
:10308000F8B5064610480D460024016841F00401D9
:1030900001600068032200F00400009021461E2019
:1030A000FEF7B8FB1E20FEF7AAFB094A074810608E
:1030B000C2E90154C2E903641046FFF748F9BDE8CC
:1030C000F8400348FFF77CB9403802400008004050
:1030D00014B7012010B590F83910222903D03229F5
:1030E00001D0022010BD8168B1F5805F11D0016967
:1030F000002901681FD0496801F07F03816A4A1CDA
:1031000082620B70C18D491E0904090CC18518D05B
:103110002FE00269816A002A0268526805D0D2B2A3
:103120000A80816A491C8162ECE7C2F308020A80C6
:10313000816A891CF7E74A68816A4B1C83620A70BE
:10314000E0E70168CA6822F02002CA6090F83910EE
:10315000322910D00168CA6822F48072CA600168FE
:103160004A6922F001024A61012180F83910FFF713
:1031700015FB002010BD1221F7E700002DE9F041FA
:10318000044600680169E26821F440510A43026183
:103190002068C16849F20C6291432369A268E5691D
:1031A0001A4363692B431A430A43C260206841698A
:1031B00021F44072A16911434161E069642632251E
:1031C000B0F5004F484A494920681DD0884201D0D7
:1031D000904269D1FEF7C8FC00EBC00101EB001082
:1031E0006168B0468900B0FBF1F1B1FBF8F6FEF77B
:1031F000BBFC00EBC00101EB001061688900B0FB73
:10320000F1F7FEF7B1FC68E0884201D0904219D195
:10321000FEF7AAFC00EBC00101EB00106168B046AC
:103220004900B0FBF1F1B1FBF8F6FEF79DFC00EBB5
:10323000C00101EB001061684900B0FBF1F7FEF737
:1032400093FC18E0FEF77AFC00EBC00101EB0010E4
:103250006168B0464900B0FBF1F1B1FBF8F6FEF74A
:103260006DFC00EBC00101EB001061684900B0FB90
:10327000F1F7FEF763FC00EBC00101EB00106168A1
:103280004900B0FBF1F1B1FBF8F06FF018014843D1
:1032900007EB800005EB0011B1FBF8F0216866F345
:1032A0001F108860BDE8F081FEF748FC00EBC0010C
:1032B00001EB00106168B0468900B0FBF1F1B1FB91
:1032C000F8F6FEF73BFC00EBC00101EB0010616873
:1032D0008900B0FBF1F7FEF731FC00EBC00101EB18
:1032E000001061688900CCE7001401400010014023
:1032F00090F83910122903D0322901D002207047EA
:103300008168B1F5805F016A0BD04A1C02620268D5
:1033100009785160C18C491E0904090CC1840ED082
:1033200017E009880268C1F30801516001690029AA
:10333000016A02D0491C0162ECE7891CFBE70168C5
:10334000CA6822F08002CA600068C16841F040018A
:10335000C16000207047000070B500240C4D0D487E
:10336000FFF701F902E0641CAC4204D80948FFF7FA
:10337000F7F80128F7D1002402E0641CAC4206D81B
:10338000012205490348FFF7D5F90028F5D170BDA2
:10339000FFFF01004C0300201C000020FEE700009E
:1033A0000FB4054B10B503A9044A029800F05AF86F
:1033B00010BC5DF814FB0000BB4600087C02002036
:1033C00000B52DED048BB0EE409AF0EE609A83B01C
:1033D00051EC190BFDF707F841EC180B18EE100A29
:1033E00018EE901A8DED008B002818BF01200843BD
:1033F00020F00040C0F17F6000F1E040C00F14D029
:1034000019EE101A19EE900A8DED009B002918BFD5
:103410000121084320F00040C0F17F6000F1E0404E
:10342000C00F04BF012000F017F8B0EE480A03B047
:10343000F0EE680ABDEC048B00BD02E008C8121F64
:1034400008C1002AFAD170477047002001E001C18D
:10345000121F002AFBD17047014908607047000025
:10346000800200202DE9FF4F8DB00F460546002653
:1034700006E025280BD0DDE90F1290476D1C761C65
:1034800028780028F5D111B03046BDE8F08F00242F
:10349000A246A1460122EC4900E0044315F8013F91
:1034A000203B02FA03F00842F7D128782A2810D0EE
:1034B0006FF02F022878A0F13001092914D80AEB07
:1034C0008A0102EB410144F0020400EB010A6D1C89
:1034D000F0E701CF5FEA000A03D544F40054CAF1D3
:1034E000000A44F002046D1C28782E2817D115F824
:1034F000010F44F004042A280ED06FF02F02287820
:10350000A0F1300109290AD809EB890102EB410138
:1035100000EB01096D1CF2E757F8049B6D1C28783D
:103520006C280FD006DC4C2817D068280DD06A28EC
:1035300014D104E0742810D07A280FD10DE044F49F
:1035400000140AE044F4801401E044F44014697863
:10355000814202D104F580146D1C6D1C2A786E2AFC
:103560001FD00CDC632A31D004DC002A8BD0582A0F
:1035700011D1A3E0642A68D0692A0CD165E0732ACE
:103580002ED004DC6F2A73D0702A04D19BE0752AF8
:103590006FD0782A6ED01046DDE90F129047761C66
:1035A00050E1C4F30250022806D0032809D00428B1
:1035B00001CF09D0066045E101CFF117C0E90061F4
:1035C00040E101CF06803DE106703BE117F8040BB6
:1035D0008DF8000000208DF80100EB46012003E08B
:1035E00057F804BB4FF0FF3061074FF0000102D4E1
:1035F0000DE008F10101884649450FDA8045F8DB06
:103600001BF808100029F4D108E008F101018846F0
:103610008142FADB1BF808100029F6D1DDE90F23FF
:10362000AAEB08008146214600F036F9304400EB51
:10363000080604E0DDE90F121BF8010B9047B8F112
:103640000108F7D221464846F7E00A21C4F30253A5
:103650004FF0000B0891022B04D001CFC117032BB0
:1036600009D00AE0FF1D27F00707F7E8020108E08C
:1036700032E01FE020E000B2C117042B01D140B2BC
:10368000C117031E71F1000307DA4FF0000CD0EBF5
:103690000C006CEB01012D2302E0230504D52B2344
:1036A0008DF82430012303E0E30701D02023F7E75E
:1036B000984658E00A2110E010210EE010204FF04B
:1036C000000B08900CE010214FF0000B44F00404B4
:1036D0004FF00809089103E008214FF0000B089112
:1036E000C4F30253022B04D001CF0021032B06D0D8
:1036F00006E0FF1D27F00707F7E8020103E080B2AC
:10370000042B00D1C0B24FF0000823072BD5702A3C
:1037100007D0DDF820C08CF0100C5CEA0B0C05D053
:103720000EE040238DF82430012308E050EA010325
:1037300006D030238DF824308DF8252002239846BA
:10374000DDF820C08CF0080C5CEA0B0C0BD150EAC1
:10375000010301D1630706D530238DF824304FF0E3
:103760000108A9F10109582A04D038A20B9208AA2D
:103770000A920BE03AA2F9E75B46089AFCF795FD3E
:103780000B9B9B5C0A9A521E0A92137050EA01022C
:10379000F2D10A98ADEB000000F1200B600702D5D2
:1037A00024F4803401E04FF00109D94502DDA9EB92
:1037B0000B0000E0002000EB0B0141440890AAEB55
:1037C000010AE00306D4DDE90F232146504600F04C
:1037D00063F806444FF0000908E009A911F8090050
:1037E000DDE90F12904709F10109761CC145F4DBB0
:1037F000E0030CD5DDE90F232146504600F04CF8DC
:10380000064404E0DDE90F1230209047761C089949
:10381000481E08900029F5DC08E00A980A9900780B
:10382000491C0A91DDE90F129047761CBBF100019B
:10383000ABF1010BF1DC21465046DDE90F2300F02E
:1038400019F806446D1C1BE609280100303132339B
:1038500034353637383961626364656600000000CC
:1038600030313233343536373839414243444546B6
:10387000000000002DE9F041044600251E461746D1
:10388000880404D405E039462020B0476D1C641E2E
:10389000F9D52846BDE8F0812DE9F0410446002520
:1038A0001E469046C80301D5302700E02027880433
:1038B00004D505E041463846B0476D1C641EF9D575
:1038C0002846BDE8F081000010B500F05DFDBDE8C0
:1038D00010400022024941F2883003F0E7BE0000A8
:1038E000C938000810B504460420FEF70EFD014853
:1038F000046010BD1800002070B5054600244FF488
:103900007A7603E0304600F005F8641CAC42F9D347
:1039100070BD000070B54FF0E02500216C69094AC8
:10392000AB6912685043AA699A42FCD002D2A3EB59
:10393000020302E0A4EB0206334419441346814219
:10394000F1D370BD180000202DE9F84F904689464C
:10395000050010D0B8F80A002A2866D3D8F8046009
:103960004FF4807A344634F80E0F50455DD12079FB
:1039700006285AD108E02FA340F2BB2237A13BA072
:10398000FFF70EFDBDE8F88F607904284DD16088FF
:1039900008284AD1D4F80E000090A169281D05D04E
:1039A000686818B1814201D1012700E000270FB1FA
:1039B000012300E0022304F108026946284600F0D2
:1039C00007FDE088504530D1002F2ED0022002F0B4
:1039D000E1F8E080D4F80E00A0616868C4F80E0039
:1039E00095F82200062806D012A340F211322A4987
:1039F0001EA0FFF7D5FCA068C4F81200A089E082E1
:103A0000A0683060A089B080D9F80010A160B9F832
:103A10000400A081D9F80010C6F80610B9F8040017
:103A20007081AA69414628469047404603F07CFAD7
:103A3000A8E700002E2E5C4C5749505C6C776970EB
:103A40002D312E342E315C7372635C6E6574696641
:103A50005C6574686172702E630000006E65746945
:103A60006620213D204E554C4C000000417373658B
:103A70007274696F6E2022257322206661696C65FD
:103A800064206174206C696E6520256420696E2055
:103A900025730D0A00000000DCC200082DE9F34F79
:103AA00080460A2085B0002402900746A346A2461D
:103AB0000190A14600904C4904EB840001EB800684
:103AC0000390B57C0A2F18D0002D24D0012D08D0EA
:103AD000022D06D245A340F22B124EA15DA0FFF7A6
:103AE0005FFCB8F1000F0CD0D8F800007168884274
:103AF00007D160B207B0BDE8F08F002DE6D167B204
:103B000009E0012D15D0022D05D3F07C504502D3DC
:103B100061B282460191641CE4B20A2CCBD30698B0
:103B200081074FF0FF30E5D40A2F15D017DAFCB229
:103B30003AE02D48039950F821000028F07C05D088
:103B40004845E8D361B281460091E4E75845E2D3A5
:103B500061B283460291DEE70699C907CAD001998E
:103B60000A290EDACCB2204804EB840150F8210077
:103B700070B11EA340F2711241A136A0FFF710FCF4
:103B800006E002990A2902DB00990A29B2DACCB2CE
:103B90000A2C06D315A340F283123FA12DA0FFF7F4
:103BA000FFFB204600F098F80A2C06D30FA340F242
:103BB000871239A127A0FFF7F3FB0B4804EB840120
:103BC00000EB8105A87C30B108A34FF4C47237A183
:103BD00020A0FFF7E5FBB8F1000F02D0D8F80000F5
:103BE00068600020E87484E714B601202E2E5C4C37
:103BF0005749505C6C7769702D312E342E315C73CF
:103C000072635C6E657469665C6574686172702E5F
:103C1000630000007374617465203D3D2045544885
:103C20004152505F53544154455F50454E44494EB4
:103C300047207C7C207374617465203E3D20455490
:103C4000484152505F53544154455F535441424C94
:103C500045000000417373657274696F6E20222500
:103C60007322206661696C6564206174206C696EE2
:103C70006520256420696E2025730D0A0000000070
:103C80006172705F7461626C655B695D2E71203D6D
:103C90003D204E554C4C000069203C204152505F65
:103CA0005441424C455F53495A4500006172705F70
:103CB0007461626C655B695D2E7374617465203D2F
:103CC0003D204554484152505F53544154455F454F
:103CD0004D5054590000000070B5074D00EB8004B2
:103CE000002655F8240018B103F01EF945F82460A9
:103CF00005EB8400867470BD14B601202DE9FC41EB
:103D000015460E46040006D145A340F275324EA179
:103D100051A0FFF745FB36B941A340F2763259A1D5
:103D20004DA0FFF73DFB35B93DA340F2773258A1D6
:103D300049A0FFF735FB0E21304603F0A3F918B177
:103D40006FF00100BDE8FC812146286800F0B8FE54
:103D500008B1534B3CE02868C0F303110E2922D070
:103D6000A168636800EA01020B409A420BD080B25E
:103D7000A0F57E41A93906D014F10C0F2FD0E068D0
:103D800068B304F10C05474B474A187800EB8001F3
:103D900002EB81018F7C022F24D32F6849688F4268
:103DA00020D102462CE001208DF8000000208DF883
:103DB00001005E208DF8020068786B4600F07F00FD
:103DC0008DF80300A8788DF80400E8788DF80500D8
:103DD00004F123023146204600F086FAB2E76FF084
:103DE0000300AFE7002000EB800102EB81018F7C34
:103DF000022F0AD32F6849688F4206D1C2B21A70C7
:103E00003146204600F052F89CE7401C40B20A2898
:103E1000E9DB32462946204600F0B6F892E700007A
:103E20002E2E5C4C5749505C6C7769702D312E34C6
:103E30002E315C7372635C6E657469665C65746870
:103E40006172702E630000006E6574696620213D0A
:103E5000204E554C4C000000417373657274696FBD
:103E60006E2022257322206661696C65642061746E
:103E7000206C696E6520256420696E2025730D0A0B
:103E8000000000007120213D204E554C4C000000E8
:103E900069706164647220213D204E554C4C0000D5
:103EA00050C20008B400002014B6012070B50546C9
:103EB0000E46134802EB820100EB8104A07C02282D
:103EC00006D210A34FF4537218A124A0FFF768FA8A
:103ED000A07C022809D1E07CE42806D3211D2846D5
:103EE00000F0F0F908B90320A07404F10C0305F107
:103EF000230231462846BDE8704000F0F5B90000C5
:103F000014B601202E2E5C4C5749505C6C776970BA
:103F10002D312E342E315C7372635C6E657469666C
:103F20005C6574686172702E630000006172705F7E
:103F30007461626C655B6172705F6964785D2E7339
:103F400074617465203E3D204554484152505F5392
:103F5000544154455F535441424C4500417373658D
:103F60007274696F6E2022257322206661696C6508
:103F700064206174206C696E6520256420696E2060
:103F800025730D0A000000002DE9F74F82B0884626
:103F900002984FF0FF3B23300090086816465F46BA
:103FA000029900F08DFD002829D1D8F80000C0F357
:103FB00003110E2923D0B8F1000F20D000281ED005
:103FC00001214046FFF76AFD04001AD4DFF8DCA0A7
:103FD00004EB84090AEB8905A87C002814D0012889
:103FE00014D0022809D232A340F219423AA144A0C7
:103FF000FFF7D6F9A87C012808D03EB10DE06FF09C
:104000000D0005B0BDE8F08F0120A874414602986C
:1040100000F058F90746002EF3D0A87C02280AD3F6
:10402000424805F10C0331460470009A029800F0F2
:104030005BF9074638E0D046012835D100253446E3
:1040400040F23E4760892189884207D1206828B123
:1040500017A33A4636A12AA0FFF7A2F9207B012830
:1040600003D12468002CEDD175B1218900220320F1
:1040700002F028FB050016D0314602F0DBFD40B10E
:10408000284602F051FF0EE03546304603F04AF96B
:104090004DB158F82900444608B102F045FF44F8F4
:1040A0002950002700E05F463846AAE714B60120F1
:1040B0002E2E5C4C5749505C6C7769702D312E3434
:1040C0002E315C7372635C6E657469665C657468DE
:1040D0006172702E630000006172705F7461626CC7
:1040E000655B695D2E7374617465203D3D205045AC
:1040F0004E44494E47206F7220535441424C450074
:10410000417373657274696F6E2022257322206675
:1041100061696C6564206174206C696E652025643A
:1041200020696E2025730D0A00000000B4000020F5
:104130006E6F207061636B65742071756575657352
:1041400020616C6C6F776564210000002DE9F05FE1
:10415000DDF82CB0984691468A46070006D132A376
:1041600040F2A5423AA13EA0FFF71AF900222A2107
:10417000032002F0A7FA060053D070892A2806D23D
:1041800029A34FF4966241A135A0FFF709F975689C
:104190000D9805F10E0401F0FDFCE08097F8220077
:1041A000062806D020A34FF4976245492CA0FFF7BC
:1041B000F7F8D8F80010A160B8F80400A081DBF887
:1041C0000010C4F81210BBF80400E082D9F8001007
:1041D0002960B9F80400A880DAF80010C5F80610C4
:1041E000BAF8040068810A9831460068C4F80E00E5
:1041F0000C980068A0614FF48070208008206080D7
:1042000006202071042060714FF4C160A881BA6952
:10421000384690470446304602F086FE2046BDE808
:10422000F09F4FF0FF30FAE72E2E5C4C5749505C60
:104230006C7769702D312E342E315C7372635C6E35
:10424000657469665C6574686172702E6300000055
:104250006E6574696620213D204E554C4C0000006F
:10426000417373657274696F6E2022257322206614
:1042700061696C6564206174206C696E65202564D9
:1042800020696E2025730D0A0000000063686563D5
:104290006B20746861742066697273742070627533
:1042A000662063616E20686F6C642073747275633E
:1042B00074206574686172705F6864720000000049
:1042C000DCC200081FB50123064C021DCDE9021314
:1042D000CDE9002400F123031946A21FFFF736FFA2
:1042E00004B010BD56C200082DE9F041054690F813
:1042F00022004C681E4617468846062806D00CA3A6
:1043000040F2A312144915A0FFF74AF83068206064
:10431000B088A0803868C4F80600B888608108209A
:10432000A08141462846AA69BDE8F0411047000037
:104330002E2E5C4C5749505C6C7769702D312E34B1
:104340002E315C7372635C6E657469665C6574685B
:104350006172702E63000000DCC200084173736557
:104360007274696F6E2022257322206661696C6504
:1043700064206174206C696E6520256420696E205C
:1043800025730D0A0000000070B5104D002404EBE9
:10439000840005EB8000827C92B1C17C491CC9B2CB
:1043A000C174F02906D2012A02D0032A06D007E000
:1043B000022905D32046FFF78FFC01E0022181741A
:1043C000641CE4B20A2CE2D370BD000014B60120D4
:1043D0002DE9F041044690F822001F4615460E468E
:1043E000062806D01EA340F2C31227A130A0FEF774
:1043F000D7FF86B3306870B3214600F061FB50BB35
:104400003078C0F303100E2826D039463046FFF727
:1044100045FB00281DDB314A00EB800102EB8100E7
:104420000223837484602B68C360AB8803820023FB
:10443000C37452F821605EB142F821302B4604F17A
:10444000230231462046FFF74FFF304602F06CFD55
:104450000020BDE8F081FFE76FF00D00F9E70000F4
:104460002E2E5C4C5749505C6C7769702D312E3480
:104470002E315C7372635C6E657469665C6574682A
:104480006172702E630000006E657469662D3E686F
:1044900077616464725F6C656E203D3D20455448D1
:1044A0004152505F4857414444525F4C454E0000D2
:1044B000417373657274696F6E20222573222066C2
:1044C00061696C6564206174206C696E6520256487
:1044D00020696E2025730D0A0000000014B601202B
:1044E00070B5044640890D460E2842D960680178AF
:1044F0008689CA0714D0012905D006221F49FBF777
:104500009DFE48B10CE0417851B980785E2807D112
:10451000607B40F0100002E0607B40F008006073B8
:10452000082E03D0B6F5C16F23D116E095F8290007
:1045300080061ED56FF00D01204602F0A3FD38B1B4
:104540000FA340F24F5218A120A0FEF729FF10E060
:104550002946204600F00AFC09E095F8290080066B
:1045600007D5224605F123012846FFF7EDF9002083
:1045700070BD204602F0D8FCF9E7000050C20008E8
:104580002E2E5C4C5749505C6C7769702D312E345F
:104590002E315C7372635C6E657469665C65746809
:1045A0006172702E6300000043616E2774206D6F8E
:1045B0007665206F76657220686561646572206932
:1045C0006E207061636B6574000000004173736559
:1045D0007274696F6E2022257322206661696C6592
:1045E00064206174206C696E6520256420696E20EA
:1045F00025730D0A0000000010B5040005D10AA3C0
:10460000C02214A116A0FEF7CBFE652084F82A0074
:104610006E2084F82B001D4860611D48A061204673
:1046200001F03AF9002010BD2E2E5C4C5749505C29
:104630006C7769702D312E342E315C7372635C6E31
:10464000657469665C65746865726E657469662E0A
:10465000630000006E65746966213D4E554C4C0048
:10466000417373657274696F6E2022257322206610
:1046700061696C6564206174206C696E65202564D5
:1046800020696E2025730D0A00000000FD3C000823
:10469000D159000870B5054601F03CF9040009D075
:1046A0002A6929469047050002D0204602F03CFCCA
:1046B000284670BD4FF0FF3070BD38B504468DF808
:1046C000000069460320ABBE204638BD10B5FCF79C
:1046D00047F818B10120FFF70FF9F8E7BDE81040DF
:1046E000FCF7B6B80A46032100F040B92DE9FE4FA9
:1046F000456804468A4628780007870E794288462E
:10470000204602F0BFFC00287AD12089042877D304
:104710006068007800287FD008287DD141490126B3
:104720000868C0F303120E2A00D1002689465146BC
:1047300000F0C6F900286FD1002E6DD0208908281E
:104740006AD3204600F098F9002865D1222120463E
:1047500002F098FC002831D03946204602F092FC45
:1047600018B131A398223AA147E021890022022002
:1047700001F0A8FF06004FD0718907F108008142BF
:1047800005D229A3A1223FA14CA0FEF709FE214694
:10479000304602F04FFA18B123A3A52252A12CE013
:1047A00041463046756802F06DFC10B11EA3AB2285
:1047B0000CE0204602F0B8FB344609E06FF021011E
:1047C000204602F05FFC18B117A3B52250A114E0F7
:1047D0006068D9F80010E9605A4900260968296123
:1047E00006704680FF2028726E813946204602F00E
:1047F00049FC30B10CA3DA2253A130A0FEF7D0FD62
:104800000AE00121CDE90061FF230022CDF808A0D4
:104810000449204600F0A6FB2046BDE8FE4F02F00A
:1048200083BB0000C80000202E2E5C4C5749505C12
:104830006C7769702D312E342E315C7372635C633A
:104840006F72655C697076345C69636D702E6300AD
:1048500069636D705F696E7075743A206D6F76690B
:104860006E6720702D3E7061796C6F616420746F8B
:1048700020697020686561646572206661696C6595
:10488000640A0000636865636B2074686174206665
:104890006972737420706275662063616E20686F40
:1048A0006C64207374727563742074686520494366
:1048B0004D50206865616465720000004173736546
:1048C0007274696F6E2022257322206661696C659F
:1048D00064206174206C696E6520256420696E20F7
:1048E00025730D0A0000000069636D705F696E70CA
:1048F00075743A20636F7079696E6720746F206EEB
:1049000065772070627566206661696C65640A006F
:1049100069636D705F696E7075743A207265737447
:104920006F72696E67206F726967696E616C207063
:104930002D3E7061796C6F6164206661696C65649D
:104940000A000000C400002043616E2774206D6FD0
:104950007665206F7665722068656164657220698E
:104960006E207061636B6574000000002DE9FE43EA
:1049700091460E46074600222421012001F0A2FEA6
:1049800005002DD06889242806D216A34FF4997209
:104990001EA129A0FEF704FD6C68D7F804801C2234
:1049A000267084F801900026A680E6806868796801
:1049B0000830FBF71FFC66806989204600F056F836
:1049C0006080D8F80C0002900120CDE90060FF2340
:1049D00002AA0021284600F071FA284602F0A4FA43
:1049E000BDE8FE832E2E5C4C5749505C6C77697095
:1049F0002D312E342E315C7372635C636F72655C93
:104A0000697076345C69636D702E630063686563FA
:104A10006B207468617420666972737420706275AB
:104A2000662063616E20686F6C642069636D70201E
:104A30006D65737361676500417373657274696F47
:104A40006E2022257322206661696C656420617482
:104A5000206C696E6520256420696E2025730D0A1F
:104A6000000000000A460B21FFF780BF10B501F0DF
:104A7000AFF8C04380B210BD70B50024054626468D
:104A800013E06989686801F0A3F82044010C11FA69
:104A900080F4A87AC00707D0C6F10100C6B2E0B220
:104AA000C4F3072141EA00242D68002DE9D126B185
:104AB000E0B2C4F3072141EA0024E04380B270BDB4
:104AC000421C12D088B191F8292092070BD54A6870
:104AD000824208D0896800EA01030A40934202D169
:104AE0000143491C01D0002070470120704700009D
:104AF0002DE9F74F8AB004460B9814250026078C41
:104B000060680690C08801F058F8C0F30C0100F40A
:104B100000500391089020891438143F1FFA80F93F
:104B2000F81707EB5070C0F3CF00079704908EE0A2
:104B30000799894501DC012000E000200399089ACB
:104B4000C1F30C0111430591002825D048461FFAF6
:104B500080FB00221421022001F0B4FD0290002805
:104B600020D06089142806D240A340F2FB224AA13B
:104B700051A0FEF715FC0298142206994068FBF735
:104B800039FB0298D0F804A060682844606060890E
:104B9000401B60815D4631E041F40050059004986F
:104BA000C000D4E74FF0FF300DB0BDE8F08F66894C
:104BB000AE4200D92E4606B3062001F049FB07009D
:104BC0004BD06068CDE900063B4602223146032007
:104BD00001F026FF5FEA000843D0204602F0A2FB66
:104BE0004048C7E904044146029801F085FFA81B2C
:104BF00005042D0C04D02468D9E72468002DD6D1F3
:104C00003546059800F0C6FFAAF806000BF114001F
:104C100080B200F0BFFFAAF802000021AAF80A1033
:104C200014215046FFF722FFAAF80A000B980C9AAD
:104C3000029943699847029802F076F9A9EB0B00B4
:104C40001FFA80F9DDE90301084480B20390B9F14D
:104C5000000F7FF46DAF0020A6E7029802F064F920
:104C6000A0E7384600F040F8F7E700002E2E5C4C35
:104C70005749505C6C7769702D312E342E315C733E
:104C800072635C636F72655C697076345C69705FD7
:104C9000667261672E63000074686973206E6565D3
:104CA00064732061207062756620696E206F6E6586
:104CB0002070696563652100417373657274696F63
:104CC0006E2022257322206661696C656420617400
:104CD000206C696E6520256420696E2025730D0A9D
:104CE000000000000D58000810B5040006D106A30E
:104CF00040F279220FA112A0FEF752FB2146BDE837
:104D00001040062001F024BA2E2E5C4C5749505C0E
:104D10006C7769702D312E342E315C7372635C6355
:104D20006F72655C697076345C69705F667261672A
:104D30002E6300007020213D204E554C4C00000099
:104D4000417373657274696F6E2022257322206629
:104D500061696C6564206174206C696E65202564EE
:104D600020696E2025730D0A000000002DE9F05F18
:104D700045680646884628780421B1EB101F0FD1FC
:104D800000F00F004FF6FF7101EA8004688800F020
:104D900014FF01467089A04202D33089884203D2B1
:104DA000304602F0C1F84EE0304602F0F7F94148D3
:104DB0002969A0F1040A0160EA68DFF8FCB0012764
:104DC00044468146CAF8002094F82900C0070BD059
:104DD000201D09D0616839B1D9F8000088420ED091
:104DE0002146FFF76DFE50B91FB10027DBF80040E8
:104DF00000E02468444500D12468002CE4D15746E3
:104E00004146DAF80000FFF75BFE0028C8D1387889
:104E1000BA46C0F303100E28C2D0002CC0D0E888D8
:104E200030F0C00005D0304600F04EF906000AD040
:104E30007568204C4146103C3046C4E9018502F0BB
:104E4000CBFB18B12DE00020BDE8F09F687A012867
:104E500015D006280ED0112807D04F464146D9F864
:104E60000000FFF72DFE78B118E04146304606F00D
:104E700097F916E04146304603F014F911E0414637
:104E80003046FFF733FC0CE03878C0F303100E28EF
:104E900004D0022130467560FFF724FC304602F052
:104EA00043F800206060A060CAF80000C9F8000064
:104EB000C9E70000C8000020EC0000202DE9FE43F7
:104EC0000446DDE90A65C0899846174689460128E7
:104ED00006D00CA340F2393214A117A0FEF760FAF5
:104EE000384600F073FC50B10096CDE901504346BE
:104EF0003A464946204600F035F8BDE8FE836FF09B
:104F00000300FAE72E2E5C4C5749505C6C776970B1
:104F10002D312E342E315C7372635C636F72655C6D
:104F2000697076345C69702E63000000702D3E72EB
:104F30006566203D3D203100417373657274696F71
:104F40006E2022257322206661696C65642061747D
:104F5000206C696E6520256420696E2025730D0A1A
:104F6000000000002DE9F84F0546DDE90BA6C089D9
:104F7000DDF828B0984617468946012806D02DA3AB
:104F80004FF4277235A138A0FEF70AFA002F3CD063
:104F90001421284602F076F818B16FF00100BDE840
:104FA000F88F68896C68142806D222A340F2C922BF
:104FB00038A12DA0FEF7F4F984F8088084F809A040
:104FC000386820614520207084F801B0288900F0FD
:104FD000E1FDDFF8F08060804FF0000AA4F806A041
:104FE000B8F8000000F0D6FDA080B8F80000401C22
:104FF000A8F80000B9F1000F02D0D9F8000000B9FC
:105000007068E060A4F80AA003E068686F46006971
:105010000090308C40B12989814205D93A46314609
:105020002846FFF765FDBAE773693A4629463046D8
:105030009847B4E72E2E5C4C5749505C6C776970EA
:105040002D312E342E315C7372635C636F72655C3C
:10505000697076345C69702E63000000702D3E72BA
:105060006566203D3D203100417373657274696F40
:105070006E2022257322206661696C65642061744C
:10508000206C696E6520256420696E2025730D0AE9
:1050900000000000636865636B20746861742066BB
:1050A0006972737420706275662063616E20686F28
:1050B0006C64207374727563742069705F686472C5
:1050C00000000000B80000202DE9F14F00270098F3
:1050D0004468207800F00F0005287CD1E08800F0BB
:1050E0006CFDC0044FEA104A608800F066FD21782C
:1050F00001F00F01494200EB81001FFA80F900988E
:1051000001F08EFD584D0646288830440A2809D9FA
:105110003146204600F0FCFA00285CD02888304454
:105120000A2858D8A8466D684FF0000B0DE0686952
:10513000E168884207D1A8692169884203D1A8891A
:10514000A188884204D02F462D68002DEFD106E0BB
:105150002DB1E08800F031FDC00424D02EE0052000
:1051600001F076F805000AD13146204600F0D0FA69
:10517000B04216DB052001F06BF8050011D02021AC
:10518000FBF751F80320E877D8F8041029601422BF
:10519000214605F10800C8F80450FBF72BF8D5B1FB
:1051A0000CE05D46FBE7E88900F007FDC00405D090
:1051B0001422214605F10800FBF71CF8B8F800108E
:1051C0003144A8F80010A079800608D4A87F40F0E8
:1051D0000100A87700E041E00AEB0900A883284617
:1051E000009900F043F8002836D0A88B1422143020
:1051F000A883686805F10801466830463468FAF704
:10520000F9FFA88B00F0C6FC7080A6F806B0A6F8DF
:105210000AB014213046FFF729FC70816FF0130AA1
:10522000D5F8049009E051462046666801F02AFF4F
:105230002146484601F060FC3468002CF3D1394621
:10524000284600F04DF9484601F0EAFCB8F8002085
:10525000101AA8F800004846BDE8F88F009801F041
:1052600063FE0020F8E70000CC0000202DE9F047A5
:105270004C680646884600250127608800F09DFCA2
:10528000217801F00F01494200EB8109E08800F02C
:1052900094FCC004D8F80440020C0020206002EB0B
:1052A0000900A2801FFA80FCA4F806C071681DE006
:1052B000486883889A420ED2216045B1EB889A42B1
:1052C00075D38088844572D8C5F8008001E0C6F89F
:1052D000048069B12BE06AD0C1888A4267D31DB1CE
:1052E000E988994200D00027016805460029DFD1EE
:1052F00095B1E888A188884206D933A340F2931279
:105300003CA144A0FEF74CF8C5F80080E888A188CD
:1053100088420CD000270AE0706830B12AA340F21E
:105320009B1247A13BA0FEF73BF8C6F80480B07F74
:10533000C00739D0002F36D072685068808838B9DD
:105340002068214630B14468C888A1888842F7D0D7
:10535000002728E0002F26D032B91BA34FF4DE72BD
:1053600045A12CA0FEF71CF870684068A04206D149
:1053700015A340F2BD1240A126A0FEF711F8206847
:1053800030B111A340F2BF123FA122A0FEF708F8EE
:10539000E088B18B884206D00BA340F2C11243A132
:1053A0001CA0FDF7FDFF3846BDE8F087FFE740464B
:1053B00001F036FC49490A88101A0880404601F07D
:1053C000B3FD0020F0E700002E2E5C4C5749505CE6
:1053D0006C7769702D312E342E315C7372635C638F
:1053E0006F72655C697076345C69705F6672616764
:1053F0002E630000636865636B20667261676D658C
:105400006E747320646F6E2774206F7665726C61A2
:1054100070000000417373657274696F6E202225FD
:105420007322206661696C6564206174206C696E0A
:105430006520256420696E2025730D0A0000000098
:105440006E6F2070726576696F7573206672616722
:105450006D656E742C2074686973206D757374208B
:105460006265207468652066697273742066726173
:10547000676D656E7421000073616E6974792063D5
:105480006865636B0000000076616C696461746537
:105490005F646174616772616D3A6E6578745F70A4
:1054A000627566213D4E554C4C00000076616C697A
:1054B000646174655F646174616772616D3A6461AF
:1054C00074616772616D20656E64213D6461746111
:1054D0006772616D206C656E00000000CC000020DA
:1054E00070B504460B480D464168A14202D12168BF
:1054F000416009E035B908A340F2391211A118A0A2
:10550000FDF74EFF206828602146BDE87040052069
:1055100000F01EBECC0000202E2E5C4C5749505C83
:105520006C7769702D312E342E315C7372635C633D
:105530006F72655C697076345C69705F6672616712
:105540002E63000073616E69747920636865636B14
:10555000206C696E6B6564206C69737400000000D8
:10556000417373657274696F6E2022257322206601
:1055700061696C6564206174206C696E65202564C6
:1055800020696E2025730D0A000000002DE9F04708
:10559000064600250F46B14205D12FA3A52239A109
:1055A0003BA0FDF7FDFE47B13868B04205D02AA305
:1055B000A72242A136A0FDF7F3FE74684FF48038AD
:1055C0006068818800291AD100687060142206F191
:1055D00008016068FAF70EFE01212046FFF742FA43
:1055E000204601F01DFB0546404505D31AA3B6220F
:1055F00037A127A0FDF7D4FE204601F095FCC14657
:10560000746812E06068A0460468404601F008FB38
:1056100005444D4505D310A3C6222DA11CA0FDF7BE
:10562000BFFEADB2404601F07FFC002CEAD1394606
:105630003046FFF755FF2E4C2088A84205D206A31E
:10564000CC222CA112A0FDF7ABFE2088401B2080AD
:105650002846BDE8F08700002E2E5C4C5749505C70
:105660006C7769702D312E342E315C7372635C63FC
:105670006F72655C697076345C69705F66726167D1
:105680002E6300007072657620213D2069707200E3
:10569000417373657274696F6E20222573222066D0
:1056A00061696C6564206174206C696E6520256495
:1056B00020696E2025730D0A000000007072657667
:1056C0002D3E6E657874203D3D20697072000000AB
:1056D00070627566735F6672656564202B20636C0B
:1056E000656E203C3D2030786666666600000000EE
:1056F000CC00002069705F72656173735F706275C2
:1057000066636F756E74203E3D20636C656E0000AD
:105710002DE9F041DFF868800F460546002600229B
:1057200013461446D8F804001AE04169D5F80CC0B5
:10573000614509D18169D5F810C0614504D18189DD
:10574000B5F804C0614507D0641C22B1C17F92F84E
:105750001FC0614500D80246016801B103460846F2
:105760000028E2D122B119461046FFF70FFF064488
:10577000BE4201DA012CD2DC3046BDE8F0810000E7
:10578000CC00002010B500F00BF8BDE8104000225E
:1057900002494FF47A7001F089BF00008557000874
:1057A00070B50948002544680BE0E07F20B1401E39
:1057B000E0772546246804E0204624682946FFF760
:1057C000E5FE002CF1D170BDCC00002010B50446E0
:1057D0000C480AE090F82910C90706D081682268B1
:1057E00043680A400B409A420AD000680028F1D171
:1057F0000548006818B190F82910C90700D10020A9
:1058000010BD0000EC000020F000002010B50400E6
:1058100006D108A340F2832211A114A0FDF7C0FD18
:10582000606908B101F080FB2046BDE81040FFF739
:105830005BBA00002E2E5C4C5749505C6C77697047
:105840002D312E342E315C7372635C636F72655C34
:10585000697076345C69705F667261672E63000000
:1058600070637220213D204E554C4C00417373658E
:105870007274696F6E2022257322206661696C65DF
:1058800064206174206C696E6520256420696E2037
:1058900025730D0A0000000010B5062180F82210C3
:1058A000164905230A7880F823204A7880F82420B6
:1058B0008A7880F82520CA7880F826200A7980F82E
:1058C0002720497980F8281040F2DC5120F8201F69
:1058D000322141720A4802680A4801680A48FBF707
:1058E00054FB0A480A230268094801680648FBF786
:1058F00013FB0548FBF751FD002010BDC0B401208B
:105900002C000020240000208C0300202800002010
:10591000200000202DE9F84F0020044600902B487D
:10592000FBF76FFB10B10020BDE8F88F2748818F8F
:10593000D0F840900904090C2DD00322104600F045
:10594000C1FE009038B32148009D40F2F45BD0F8CE
:1059500030806F8900260FE0A4F2F4525242FAF729
:1059600049FCD8F80C008046D0F80890361BAAF203
:10597000F457002406F2F456686807EB040ADA4587
:1059800009EB04013044E7D83A46FAF733FC2D68B6
:105990003C44002DDDD10D4A0021106B05E0036869
:1059A00043F000430360C068491C936B8B42F6D8F8
:1059B00000219163106800F580504269120602D5FB
:1059C0008022426181600098AEE700008C030020D5
:1059D0002DE9F05F27480E46C56A0020814604463F
:1059E000D5F808A031E0286800280CDBB6F80A805A
:1059F000002717E0A4F2F4525242FAF7FBFBED68DD
:105A00002868002802DA6FF0070025E0D5F808A022
:105A10003F1BA9EB0400ABF2F45800F2F459002448
:105A200007F2F45708EB040B40F2F45170688B4511
:105A300000EB07010AEB0400DCD84246FAF7DAFB78
:105A400009EB0800366844448146002ECBD101465C
:105A50000848FBF7E4FC00200649096801F580517D
:105A60004A69920603D520224A6100224A60BDE8B5
:105A7000F09F00008C03002030B512490A68C02353
:105A80008371A824C4710021017239254572022551
:105A9000057041708170150CC570150A0571427151
:105AA0008372C472017337224273FF228273C273FE
:105AB000027441748374C474017501224275817546
:105AC00030BD0000107AFF1F10B586B00024FBF730
:105AD000C7F910B1012006B010BD00F043F808B1BD
